{
  "_format": "hh-sol-artifact-1",
  "contractName": "NFTReward",
  "sourceName": "contracts/NFTReward.sol",
  "abi": [
    {
      "inputs": [],
      "stateMutability": "nonpayable",
      "type": "constructor"
    },
    {
      "inputs": [
        {
          "internalType": "address",
          "name": "sender",
          "type": "address"
        },
        {
          "internalType": "uint256",
          "name": "tokenId",
          "type": "uint256"
        },
        {
          "internalType": "address",
          "name": "owner",
          "type": "address"
        }
      ],
      "name": "ERC721IncorrectOwner",
      "type": "error"
    },
    {
      "inputs": [
        {
          "internalType": "address",
          "name": "operator",
          "type": "address"
        },
        {
          "internalType": "uint256",
          "name": "tokenId",
          "type": "uint256"
        }
      ],
      "name": "ERC721InsufficientApproval",
      "type": "error"
    },
    {
      "inputs": [
        {
          "internalType": "address",
          "name": "approver",
          "type": "address"
        }
      ],
      "name": "ERC721InvalidApprover",
      "type": "error"
    },
    {
      "inputs": [
        {
          "internalType": "address",
          "name": "operator",
          "type": "address"
        }
      ],
      "name": "ERC721InvalidOperator",
      "type": "error"
    },
    {
      "inputs": [
        {
          "internalType": "address",
          "name": "owner",
          "type": "address"
        }
      ],
      "name": "ERC721InvalidOwner",
      "type": "error"
    },
    {
      "inputs": [
        {
          "internalType": "address",
          "name": "receiver",
          "type": "address"
        }
      ],
      "name": "ERC721InvalidReceiver",
      "type": "error"
    },
    {
      "inputs": [
        {
          "internalType": "address",
          "name": "sender",
          "type": "address"
        }
      ],
      "name": "ERC721InvalidSender",
      "type": "error"
    },
    {
      "inputs": [
        {
          "internalType": "uint256",
          "name": "tokenId",
          "type": "uint256"
        }
      ],
      "name": "ERC721NonexistentToken",
      "type": "error"
    },
    {
      "inputs": [
        {
          "internalType": "address",
          "name": "owner",
          "type": "address"
        }
      ],
      "name": "OwnableInvalidOwner",
      "type": "error"
    },
    {
      "inputs": [
        {
          "internalType": "address",
          "name": "account",
          "type": "address"
        }
      ],
      "name": "OwnableUnauthorizedAccount",
      "type": "error"
    },
    {
      "anonymous": false,
      "inputs": [
        {
          "indexed": true,
          "internalType": "address",
          "name": "owner",
          "type": "address"
        },
        {
          "indexed": true,
          "internalType": "address",
          "name": "approved",
          "type": "address"
        },
        {
          "indexed": true,
          "internalType": "uint256",
          "name": "tokenId",
          "type": "uint256"
        }
      ],
      "name": "Approval",
      "type": "event"
    },
    {
      "anonymous": false,
      "inputs": [
        {
          "indexed": true,
          "internalType": "address",
          "name": "owner",
          "type": "address"
        },
        {
          "indexed": true,
          "internalType": "address",
          "name": "operator",
          "type": "address"
        },
        {
          "indexed": false,
          "internalType": "bool",
          "name": "approved",
          "type": "bool"
        }
      ],
      "name": "ApprovalForAll",
      "type": "event"
    },
    {
      "anonymous": false,
      "inputs": [
        {
          "indexed": false,
          "internalType": "uint256",
          "name": "_fromTokenId",
          "type": "uint256"
        },
        {
          "indexed": false,
          "internalType": "uint256",
          "name": "_toTokenId",
          "type": "uint256"
        }
      ],
      "name": "BatchMetadataUpdate",
      "type": "event"
    },
    {
      "anonymous": false,
      "inputs": [
        {
          "indexed": false,
          "internalType": "uint256",
          "name": "_tokenId",
          "type": "uint256"
        }
      ],
      "name": "MetadataUpdate",
      "type": "event"
    },
    {
      "anonymous": false,
      "inputs": [
        {
          "indexed": true,
          "internalType": "address",
          "name": "previousOwner",
          "type": "address"
        },
        {
          "indexed": true,
          "internalType": "address",
          "name": "newOwner",
          "type": "address"
        }
      ],
      "name": "OwnershipTransferred",
      "type": "event"
    },
    {
      "anonymous": false,
      "inputs": [
        {
          "indexed": true,
          "internalType": "address",
          "name": "from",
          "type": "address"
        },
        {
          "indexed": true,
          "internalType": "address",
          "name": "to",
          "type": "address"
        },
        {
          "indexed": true,
          "internalType": "uint256",
          "name": "tokenId",
          "type": "uint256"
        }
      ],
      "name": "Transfer",
      "type": "event"
    },
    {
      "inputs": [
        {
          "internalType": "address",
          "name": "to",
          "type": "address"
        },
        {
          "internalType": "uint256",
          "name": "tokenId",
          "type": "uint256"
        }
      ],
      "name": "approve",
      "outputs": [],
      "stateMutability": "nonpayable",
      "type": "function"
    },
    {
      "inputs": [
        {
          "internalType": "address",
          "name": "owner",
          "type": "address"
        }
      ],
      "name": "balanceOf",
      "outputs": [
        {
          "internalType": "uint256",
          "name": "",
          "type": "uint256"
        }
      ],
      "stateMutability": "view",
      "type": "function"
    },
    {
      "inputs": [
        {
          "internalType": "uint256",
          "name": "tokenId",
          "type": "uint256"
        }
      ],
      "name": "getApproved",
      "outputs": [
        {
          "internalType": "address",
          "name": "",
          "type": "address"
        }
      ],
      "stateMutability": "view",
      "type": "function"
    },
    {
      "inputs": [
        {
          "internalType": "address",
          "name": "_owner",
          "type": "address"
        }
      ],
      "name": "getNFTCountByOwner",
      "outputs": [
        {
          "internalType": "uint256",
          "name": "",
          "type": "uint256"
        }
      ],
      "stateMutability": "view",
      "type": "function"
    },
    {
      "inputs": [
        {
          "internalType": "address",
          "name": "owner",
          "type": "address"
        },
        {
          "internalType": "address",
          "name": "operator",
          "type": "address"
        }
      ],
      "name": "isApprovedForAll",
      "outputs": [
        {
          "internalType": "bool",
          "name": "",
          "type": "bool"
        }
      ],
      "stateMutability": "view",
      "type": "function"
    },
    {
      "inputs": [
        {
          "internalType": "address",
          "name": "_to",
          "type": "address"
        },
        {
          "internalType": "uint256",
          "name": "_jobId",
          "type": "uint256"
        },
        {
          "internalType": "uint8",
          "name": "_rating",
          "type": "uint8"
        }
      ],
      "name": "mint",
      "outputs": [],
      "stateMutability": "nonpayable",
      "type": "function"
    },
    {
      "inputs": [],
      "name": "name",
      "outputs": [
        {
          "internalType": "string",
          "name": "",
          "type": "string"
        }
      ],
      "stateMutability": "view",
      "type": "function"
    },
    {
      "inputs": [],
      "name": "owner",
      "outputs": [
        {
          "internalType": "address",
          "name": "",
          "type": "address"
        }
      ],
      "stateMutability": "view",
      "type": "function"
    },
    {
      "inputs": [
        {
          "internalType": "uint256",
          "name": "tokenId",
          "type": "uint256"
        }
      ],
      "name": "ownerOf",
      "outputs": [
        {
          "internalType": "address",
          "name": "",
          "type": "address"
        }
      ],
      "stateMutability": "view",
      "type": "function"
    },
    {
      "inputs": [],
      "name": "renounceOwnership",
      "outputs": [],
      "stateMutability": "nonpayable",
      "type": "function"
    },
    {
      "inputs": [
        {
          "internalType": "address",
          "name": "from",
          "type": "address"
        },
        {
          "internalType": "address",
          "name": "to",
          "type": "address"
        },
        {
          "internalType": "uint256",
          "name": "tokenId",
          "type": "uint256"
        }
      ],
      "name": "safeTransferFrom",
      "outputs": [],
      "stateMutability": "nonpayable",
      "type": "function"
    },
    {
      "inputs": [
        {
          "internalType": "address",
          "name": "from",
          "type": "address"
        },
        {
          "internalType": "address",
          "name": "to",
          "type": "address"
        },
        {
          "internalType": "uint256",
          "name": "tokenId",
          "type": "uint256"
        },
        {
          "internalType": "bytes",
          "name": "data",
          "type": "bytes"
        }
      ],
      "name": "safeTransferFrom",
      "outputs": [],
      "stateMutability": "nonpayable",
      "type": "function"
    },
    {
      "inputs": [
        {
          "internalType": "address",
          "name": "operator",
          "type": "address"
        },
        {
          "internalType": "bool",
          "name": "approved",
          "type": "bool"
        }
      ],
      "name": "setApprovalForAll",
      "outputs": [],
      "stateMutability": "nonpayable",
      "type": "function"
    },
    {
      "inputs": [
        {
          "internalType": "bytes4",
          "name": "interfaceId",
          "type": "bytes4"
        }
      ],
      "name": "supportsInterface",
      "outputs": [
        {
          "internalType": "bool",
          "name": "",
          "type": "bool"
        }
      ],
      "stateMutability": "view",
      "type": "function"
    },
    {
      "inputs": [],
      "name": "symbol",
      "outputs": [
        {
          "internalType": "string",
          "name": "",
          "type": "string"
        }
      ],
      "stateMutability": "view",
      "type": "function"
    },
    {
      "inputs": [],
      "name": "tokenCounter",
      "outputs": [
        {
          "internalType": "uint256",
          "name": "",
          "type": "uint256"
        }
      ],
      "stateMutability": "view",
      "type": "function"
    },
    {
      "inputs": [
        {
          "internalType": "uint256",
          "name": "tokenId",
          "type": "uint256"
        }
      ],
      "name": "tokenURI",
      "outputs": [
        {
          "internalType": "string",
          "name": "",
          "type": "string"
        }
      ],
      "stateMutability": "view",
      "type": "function"
    },
    {
      "inputs": [
        {
          "internalType": "address",
          "name": "from",
          "type": "address"
        },
        {
          "internalType": "address",
          "name": "to",
          "type": "address"
        },
        {
          "internalType": "uint256",
          "name": "tokenId",
          "type": "uint256"
        }
      ],
      "name": "transferFrom",
      "outputs": [],
      "stateMutability": "nonpayable",
      "type": "function"
    },
    {
      "inputs": [
        {
          "internalType": "address",
          "name": "newOwner",
          "type": "address"
        }
      ],
      "name": "transferOwnership",
      "outputs": [],
      "stateMutability": "nonpayable",
      "type": "function"
    }
  ],
  "bytecode": "0x608060405234801561001057600080fd5b50336040518060400160405280600f81526020017f43617265676976657252657761726400000000000000000000000000000000008152506040518060400160405280600481526020017f4341524500000000000000000000000000000000000000000000000000000000815250816000908161008d9190610445565b50806001908161009d9190610445565b505050600073ffffffffffffffffffffffffffffffffffffffff168173ffffffffffffffffffffffffffffffffffffffff16036101125760006040517f1e4fbdf70000000000000000000000000000000000000000000000000000000081526004016101099190610558565b60405180910390fd5b6101218161012f60201b60201c565b506000600881905550610573565b6000600760009054906101000a900473ffffffffffffffffffffffffffffffffffffffff16905081600760006101000a81548173ffffffffffffffffffffffffffffffffffffffff021916908373ffffffffffffffffffffffffffffffffffffffff1602179055508173ffffffffffffffffffffffffffffffffffffffff168173ffffffffffffffffffffffffffffffffffffffff167f8be0079c531659141344cd1fd0a4f28419497f9722a3daafe3b4186f6b6457e060405160405180910390a35050565b600081519050919050565b7f4e487b7100000000000000000000000000000000000000000000000000000000600052604160045260246000fd5b7f4e487b7100000000000000000000000000000000000000000000000000000000600052602260045260246000fd5b6000600282049050600182168061027657607f821691505b6020821081036102895761028861022f565b5b50919050565b60008190508160005260206000209050919050565b60006020601f8301049050919050565b600082821b905092915050565b6000600883026102f17fffffffffffffffffffffffffffffffffffffffffffffffffffffffffffffffff826102b4565b6102fb86836102b4565b95508019841693508086168417925050509392505050565b6000819050919050565b6000819050919050565b600061034261033d61033884610313565b61031d565b610313565b9050919050565b6000819050919050565b61035c83610327565b61037061036882610349565b8484546102c1565b825550505050565b600090565b610385610378565b610390818484610353565b505050565b5b818110156103b4576103a960008261037d565b600181019050610396565b5050565b601f8211156103f9576103ca8161028f565b6103d3846102a4565b810160208510156103e2578190505b6103f66103ee856102a4565b830182610395565b50505b505050565b600082821c905092915050565b600061041c600019846008026103fe565b1980831691505092915050565b6000610435838361040b565b9150826002028217905092915050565b61044e826101f5565b67ffffffffffffffff81111561046757610466610200565b5b610471825461025e565b61047c8282856103b8565b600060209050601f8311600181146104af576000841561049d578287015190505b6104a78582610429565b86555061050f565b601f1984166104bd8661028f565b60005b828110156104e5578489015182556001820191506020850194506020810190506104c0565b8683101561050257848901516104fe601f89168261040b565b8355505b6001600288020188555050505b505050505050565b600073ffffffffffffffffffffffffffffffffffffffff82169050919050565b600061054282610517565b9050919050565b61055281610537565b82525050565b600060208201905061056d6000830184610549565b92915050565b6127cf806105826000396000f3fe608060405234801561001057600080fd5b50600436106101215760003560e01c8063715018a6116100ad578063b88d4fde11610071578063b88d4fde14610306578063c87b56dd14610322578063d082e38114610352578063e985e9c514610370578063f2fde38b146103a057610121565b8063715018a6146102745780638da5cb5b1461027e5780638e20d8601461029c57806395d89b41146102cc578063a22cb465146102ea57610121565b806323b872dd116100f457806323b872dd146101c057806342842e0e146101dc5780636112e8ac146101f85780636352211e1461021457806370a082311461024457610121565b806301ffc9a71461012657806306fdde0314610156578063081812fc14610174578063095ea7b3146101a4575b600080fd5b610140600480360381019061013b9190611c2c565b6103bc565b60405161014d9190611c74565b60405180910390f35b61015e61041d565b60405161016b9190611d1f565b60405180910390f35b61018e60048036038101906101899190611d77565b6104af565b60405161019b9190611de5565b60405180910390f35b6101be60048036038101906101b99190611e2c565b6104cb565b005b6101da60048036038101906101d59190611e6c565b6104e1565b005b6101f660048036038101906101f19190611e6c565b6105e3565b005b610212600480360381019061020d9190611ef8565b610603565b005b61022e60048036038101906102299190611d77565b6106a5565b60405161023b9190611de5565b60405180910390f35b61025e60048036038101906102599190611f4b565b6106b7565b60405161026b9190611f87565b60405180910390f35b61027c610771565b005b610286610785565b6040516102939190611de5565b60405180910390f35b6102b660048036038101906102b19190611f4b565b6107af565b6040516102c39190611f87565b60405180910390f35b6102d46107c1565b6040516102e19190611d1f565b60405180910390f35b61030460048036038101906102ff9190611fce565b610853565b005b610320600480360381019061031b9190612143565b610869565b005b61033c60048036038101906103379190611d77565b61088e565b6040516103499190611d1f565b60405180910390f35b61035a6109a1565b6040516103679190611f87565b60405180910390f35b61038a600480360381019061038591906121c6565b6109a7565b6040516103979190611c74565b60405180910390f35b6103ba60048036038101906103b59190611f4b565b610a3b565b005b6000634906490660e01b7bffffffffffffffffffffffffffffffffffffffffffffffffffffffff1916827bffffffffffffffffffffffffffffffffffffffffffffffffffffffff19161480610416575061041582610ac1565b5b9050919050565b60606000805461042c90612235565b80601f016020809104026020016040519081016040528092919081815260200182805461045890612235565b80156104a55780601f1061047a576101008083540402835291602001916104a5565b820191906000526020600020905b81548152906001019060200180831161048857829003601f168201915b5050505050905090565b60006104ba82610ba3565b506104c482610c2b565b9050919050565b6104dd82826104d8610c68565b610c70565b5050565b600073ffffffffffffffffffffffffffffffffffffffff168273ffffffffffffffffffffffffffffffffffffffff16036105535760006040517f64a0ae9200000000000000000000000000000000000000000000000000000000815260040161054a9190611de5565b60405180910390fd5b60006105678383610562610c68565b610c82565b90508373ffffffffffffffffffffffffffffffffffffffff168173ffffffffffffffffffffffffffffffffffffffff16146105dd578382826040517f64283d7b0000000000000000000000000000000000000000000000000000000081526004016105d493929190612266565b60405180910390fd5b50505050565b6105fe83838360405180602001604052806000815250610869565b505050565b61060b610e9c565b60018160ff1610158015610623575060058160ff1611155b610662576040517f08c379a0000000000000000000000000000000000000000000000000000000008152600401610659906122e9565b60405180910390fd5b600061066d82610f23565b905061067b84600854610ff3565b610687600854826110ec565b6008600081548092919061069a90612338565b919050555050505050565b60006106b082610ba3565b9050919050565b60008073ffffffffffffffffffffffffffffffffffffffff168273ffffffffffffffffffffffffffffffffffffffff160361072a5760006040517f89c62b640000000000000000000000000000000000000000000000000000000081526004016107219190611de5565b60405180910390fd5b600360008373ffffffffffffffffffffffffffffffffffffffff1673ffffffffffffffffffffffffffffffffffffffff168152602001908152602001600020549050919050565b610779610e9c565b6107836000611148565b565b6000600760009054906101000a900473ffffffffffffffffffffffffffffffffffffffff16905090565b60006107ba826106b7565b9050919050565b6060600180546107d090612235565b80601f01602080910402602001604051908101604052809291908181526020018280546107fc90612235565b80156108495780601f1061081e57610100808354040283529160200191610849565b820191906000526020600020905b81548152906001019060200180831161082c57829003601f168201915b5050505050905090565b61086561085e610c68565b838361120e565b5050565b6108748484846104e1565b61088861087f610c68565b8585858561137d565b50505050565b606061089982610ba3565b5060006006600084815260200190815260200160002080546108ba90612235565b80601f01602080910402602001604051908101604052809291908181526020018280546108e690612235565b80156109335780601f1061090857610100808354040283529160200191610933565b820191906000526020600020905b81548152906001019060200180831161091657829003601f168201915b50505050509050600061094461152e565b9050600081510361095957819250505061099c565b60008251111561098e5780826040516020016109769291906123bc565b6040516020818303038152906040529250505061099c565b61099784611545565b925050505b919050565b60085481565b6000600560008473ffffffffffffffffffffffffffffffffffffffff1673ffffffffffffffffffffffffffffffffffffffff16815260200190815260200160002060008373ffffffffffffffffffffffffffffffffffffffff1673ffffffffffffffffffffffffffffffffffffffff16815260200190815260200160002060009054906101000a900460ff16905092915050565b610a43610e9c565b600073ffffffffffffffffffffffffffffffffffffffff168173ffffffffffffffffffffffffffffffffffffffff1603610ab55760006040517f1e4fbdf7000000000000000000000000000000000000000000000000000000008152600401610aac9190611de5565b60405180910390fd5b610abe81611148565b50565b60007f80ac58cd000000000000000000000000000000000000000000000000000000007bffffffffffffffffffffffffffffffffffffffffffffffffffffffff1916827bffffffffffffffffffffffffffffffffffffffffffffffffffffffff19161480610b8c57507f5b5e139f000000000000000000000000000000000000000000000000000000007bffffffffffffffffffffffffffffffffffffffffffffffffffffffff1916827bffffffffffffffffffffffffffffffffffffffffffffffffffffffff1916145b80610b9c5750610b9b826115ae565b5b9050919050565b600080610baf83611618565b9050600073ffffffffffffffffffffffffffffffffffffffff168173ffffffffffffffffffffffffffffffffffffffff1603610c2257826040517f7e273289000000000000000000000000000000000000000000000000000000008152600401610c199190611f87565b60405180910390fd5b80915050919050565b60006004600083815260200190815260200160002060009054906101000a900473ffffffffffffffffffffffffffffffffffffffff169050919050565b600033905090565b610c7d8383836001611655565b505050565b600080610c8e84611618565b9050600073ffffffffffffffffffffffffffffffffffffffff168373ffffffffffffffffffffffffffffffffffffffff1614610cd057610ccf81848661181a565b5b600073ffffffffffffffffffffffffffffffffffffffff168173ffffffffffffffffffffffffffffffffffffffff1614610d6157610d12600085600080611655565b6001600360008373ffffffffffffffffffffffffffffffffffffffff1673ffffffffffffffffffffffffffffffffffffffff168152602001908152602001600020600082825403925050819055505b600073ffffffffffffffffffffffffffffffffffffffff168573ffffffffffffffffffffffffffffffffffffffff1614610de4576001600360008773ffffffffffffffffffffffffffffffffffffffff1673ffffffffffffffffffffffffffffffffffffffff168152602001908152602001600020600082825401925050819055505b846002600086815260200190815260200160002060006101000a81548173ffffffffffffffffffffffffffffffffffffffff021916908373ffffffffffffffffffffffffffffffffffffffff160217905550838573ffffffffffffffffffffffffffffffffffffffff168273ffffffffffffffffffffffffffffffffffffffff167fddf252ad1be2c89b69c2b068fc378daa952ba7f163c4a11628f55a4df523b3ef60405160405180910390a4809150509392505050565b610ea4610c68565b73ffffffffffffffffffffffffffffffffffffffff16610ec2610785565b73ffffffffffffffffffffffffffffffffffffffff1614610f2157610ee5610c68565b6040517f118cdaa7000000000000000000000000000000000000000000000000000000008152600401610f189190611de5565b60405180910390fd5b565b606060058260ff1603610f6d576040518060400160405280601881526020017f68747470733a2f2f6e66742d7572692d676f6c642e636f6d00000000000000008152509050610fee565b60038260ff1610610fb5576040518060400160405280601a81526020017f68747470733a2f2f6e66742d7572692d73696c7665722e636f6d0000000000008152509050610fee565b6040518060400160405280601a81526020017f68747470733a2f2f6e66742d7572692d62726f6e7a652e636f6d00000000000081525090505b919050565b600073ffffffffffffffffffffffffffffffffffffffff168273ffffffffffffffffffffffffffffffffffffffff16036110655760006040517f64a0ae9200000000000000000000000000000000000000000000000000000000815260040161105c9190611de5565b60405180910390fd5b600061107383836000610c82565b9050600073ffffffffffffffffffffffffffffffffffffffff168173ffffffffffffffffffffffffffffffffffffffff16146110e75760006040517f73c6ac6e0000000000000000000000000000000000000000000000000000000081526004016110de9190611de5565b60405180910390fd5b505050565b8060066000848152602001908152602001600020908161110c919061258c565b507ff8e1a15aba9398e019f0b49df1a4fde98ee17ae345cb5f6b5e2c27f5033e8ce78260405161113c9190611f87565b60405180910390a15050565b6000600760009054906101000a900473ffffffffffffffffffffffffffffffffffffffff16905081600760006101000a81548173ffffffffffffffffffffffffffffffffffffffff021916908373ffffffffffffffffffffffffffffffffffffffff1602179055508173ffffffffffffffffffffffffffffffffffffffff168173ffffffffffffffffffffffffffffffffffffffff167f8be0079c531659141344cd1fd0a4f28419497f9722a3daafe3b4186f6b6457e060405160405180910390a35050565b600073ffffffffffffffffffffffffffffffffffffffff168273ffffffffffffffffffffffffffffffffffffffff160361127f57816040517f5b08ba180000000000000000000000000000000000000000000000000000000081526004016112769190611de5565b60405180910390fd5b80600560008573ffffffffffffffffffffffffffffffffffffffff1673ffffffffffffffffffffffffffffffffffffffff16815260200190815260200160002060008473ffffffffffffffffffffffffffffffffffffffff1673ffffffffffffffffffffffffffffffffffffffff16815260200190815260200160002060006101000a81548160ff0219169083151502179055508173ffffffffffffffffffffffffffffffffffffffff168373ffffffffffffffffffffffffffffffffffffffff167f17307eab39ab6107e8899845ad3d59bd9653f200f220920489ca2b5937696c31836040516113709190611c74565b60405180910390a3505050565b60008373ffffffffffffffffffffffffffffffffffffffff163b1115611527578273ffffffffffffffffffffffffffffffffffffffff1663150b7a02868685856040518563ffffffff1660e01b81526004016113dc94939291906126b3565b6020604051808303816000875af192505050801561141857506040513d601f19601f820116820180604052508101906114159190612714565b60015b61149c573d8060008114611448576040519150601f19603f3d011682016040523d82523d6000602084013e61144d565b606091505b50600081510361149457836040517f64a0ae9200000000000000000000000000000000000000000000000000000000815260040161148b9190611de5565b60405180910390fd5b805181602001fd5b63150b7a0260e01b7bffffffffffffffffffffffffffffffffffffffffffffffffffffffff1916817bffffffffffffffffffffffffffffffffffffffffffffffffffffffff19161461152557836040517f64a0ae9200000000000000000000000000000000000000000000000000000000815260040161151c9190611de5565b60405180910390fd5b505b5050505050565b606060405180602001604052806000815250905090565b606061155082610ba3565b50600061155b61152e565b9050600081511161157b57604051806020016040528060008152506115a6565b80611585846118de565b6040516020016115969291906123bc565b6040516020818303038152906040525b915050919050565b60007f01ffc9a7000000000000000000000000000000000000000000000000000000007bffffffffffffffffffffffffffffffffffffffffffffffffffffffff1916827bffffffffffffffffffffffffffffffffffffffffffffffffffffffff1916149050919050565b60006002600083815260200190815260200160002060009054906101000a900473ffffffffffffffffffffffffffffffffffffffff169050919050565b808061168e5750600073ffffffffffffffffffffffffffffffffffffffff168273ffffffffffffffffffffffffffffffffffffffff1614155b156117c257600061169e84610ba3565b9050600073ffffffffffffffffffffffffffffffffffffffff168373ffffffffffffffffffffffffffffffffffffffff161415801561170957508273ffffffffffffffffffffffffffffffffffffffff168173ffffffffffffffffffffffffffffffffffffffff1614155b801561171c575061171a81846109a7565b155b1561175e57826040517fa9fbf51f0000000000000000000000000000000000000000000000000000000081526004016117559190611de5565b60405180910390fd5b81156117c057838573ffffffffffffffffffffffffffffffffffffffff168273ffffffffffffffffffffffffffffffffffffffff167f8c5be1e5ebec7d5bd14f71427d1e84f3dd0314c0f7b2291e5b200ac8c7c3b92560405160405180910390a45b505b836004600085815260200190815260200160002060006101000a81548173ffffffffffffffffffffffffffffffffffffffff021916908373ffffffffffffffffffffffffffffffffffffffff16021790555050505050565b6118258383836119ac565b6118d957600073ffffffffffffffffffffffffffffffffffffffff168373ffffffffffffffffffffffffffffffffffffffff160361189a57806040517f7e2732890000000000000000000000000000000000000000000000000000000081526004016118919190611f87565b60405180910390fd5b81816040517f177e802f0000000000000000000000000000000000000000000000000000000081526004016118d0929190612741565b60405180910390fd5b505050565b6060600060016118ed84611a6d565b01905060008167ffffffffffffffff81111561190c5761190b612018565b5b6040519080825280601f01601f19166020018201604052801561193e5781602001600182028036833780820191505090505b509050600082602001820190505b6001156119a1578080600190039150507f3031323334353637383961626364656600000000000000000000000000000000600a86061a8153600a85816119955761199461276a565b5b0494506000850361194c575b819350505050919050565b60008073ffffffffffffffffffffffffffffffffffffffff168373ffffffffffffffffffffffffffffffffffffffff1614158015611a6457508273ffffffffffffffffffffffffffffffffffffffff168473ffffffffffffffffffffffffffffffffffffffff161480611a255750611a2484846109a7565b5b80611a6357508273ffffffffffffffffffffffffffffffffffffffff16611a4b83610c2b565b73ffffffffffffffffffffffffffffffffffffffff16145b5b90509392505050565b600080600090507a184f03e93ff9f4daa797ed6e38ed64bf6a1f0100000000000000008310611acb577a184f03e93ff9f4daa797ed6e38ed64bf6a1f0100000000000000008381611ac157611ac061276a565b5b0492506040810190505b6d04ee2d6d415b85acef81000000008310611b08576d04ee2d6d415b85acef81000000008381611afe57611afd61276a565b5b0492506020810190505b662386f26fc100008310611b3757662386f26fc100008381611b2d57611b2c61276a565b5b0492506010810190505b6305f5e1008310611b60576305f5e1008381611b5657611b5561276a565b5b0492506008810190505b6127108310611b85576127108381611b7b57611b7a61276a565b5b0492506004810190505b60648310611ba85760648381611b9e57611b9d61276a565b5b0492506002810190505b600a8310611bb7576001810190505b80915050919050565b6000604051905090565b600080fd5b600080fd5b60007fffffffff0000000000000000000000000000000000000000000000000000000082169050919050565b611c0981611bd4565b8114611c1457600080fd5b50565b600081359050611c2681611c00565b92915050565b600060208284031215611c4257611c41611bca565b5b6000611c5084828501611c17565b91505092915050565b60008115159050919050565b611c6e81611c59565b82525050565b6000602082019050611c896000830184611c65565b92915050565b600081519050919050565b600082825260208201905092915050565b60005b83811015611cc9578082015181840152602081019050611cae565b60008484015250505050565b6000601f19601f8301169050919050565b6000611cf182611c8f565b611cfb8185611c9a565b9350611d0b818560208601611cab565b611d1481611cd5565b840191505092915050565b60006020820190508181036000830152611d398184611ce6565b905092915050565b6000819050919050565b611d5481611d41565b8114611d5f57600080fd5b50565b600081359050611d7181611d4b565b92915050565b600060208284031215611d8d57611d8c611bca565b5b6000611d9b84828501611d62565b91505092915050565b600073ffffffffffffffffffffffffffffffffffffffff82169050919050565b6000611dcf82611da4565b9050919050565b611ddf81611dc4565b82525050565b6000602082019050611dfa6000830184611dd6565b92915050565b611e0981611dc4565b8114611e1457600080fd5b50565b600081359050611e2681611e00565b92915050565b60008060408385031215611e4357611e42611bca565b5b6000611e5185828601611e17565b9250506020611e6285828601611d62565b9150509250929050565b600080600060608486031215611e8557611e84611bca565b5b6000611e9386828701611e17565b9350506020611ea486828701611e17565b9250506040611eb586828701611d62565b9150509250925092565b600060ff82169050919050565b611ed581611ebf565b8114611ee057600080fd5b50565b600081359050611ef281611ecc565b92915050565b600080600060608486031215611f1157611f10611bca565b5b6000611f1f86828701611e17565b9350506020611f3086828701611d62565b9250506040611f4186828701611ee3565b9150509250925092565b600060208284031215611f6157611f60611bca565b5b6000611f6f84828501611e17565b91505092915050565b611f8181611d41565b82525050565b6000602082019050611f9c6000830184611f78565b92915050565b611fab81611c59565b8114611fb657600080fd5b50565b600081359050611fc881611fa2565b92915050565b60008060408385031215611fe557611fe4611bca565b5b6000611ff385828601611e17565b925050602061200485828601611fb9565b9150509250929050565b600080fd5b600080fd5b7f4e487b7100000000000000000000000000000000000000000000000000000000600052604160045260246000fd5b61205082611cd5565b810181811067ffffffffffffffff8211171561206f5761206e612018565b5b80604052505050565b6000612082611bc0565b905061208e8282612047565b919050565b600067ffffffffffffffff8211156120ae576120ad612018565b5b6120b782611cd5565b9050602081019050919050565b82818337600083830152505050565b60006120e66120e184612093565b612078565b90508281526020810184848401111561210257612101612013565b5b61210d8482856120c4565b509392505050565b600082601f83011261212a5761212961200e565b5b813561213a8482602086016120d3565b91505092915050565b6000806000806080858703121561215d5761215c611bca565b5b600061216b87828801611e17565b945050602061217c87828801611e17565b935050604061218d87828801611d62565b925050606085013567ffffffffffffffff8111156121ae576121ad611bcf565b5b6121ba87828801612115565b91505092959194509250565b600080604083850312156121dd576121dc611bca565b5b60006121eb85828601611e17565b92505060206121fc85828601611e17565b9150509250929050565b7f4e487b7100000000000000000000000000000000000000000000000000000000600052602260045260246000fd5b6000600282049050600182168061224d57607f821691505b6020821081036122605761225f612206565b5b50919050565b600060608201905061227b6000830186611dd6565b6122886020830185611f78565b6122956040830184611dd6565b949350505050565b7f526174696e67206f7574206f662072616e676500000000000000000000000000600082015250565b60006122d3601383611c9a565b91506122de8261229d565b602082019050919050565b60006020820190508181036000830152612302816122c6565b9050919050565b7f4e487b7100000000000000000000000000000000000000000000000000000000600052601160045260246000fd5b600061234382611d41565b91507fffffffffffffffffffffffffffffffffffffffffffffffffffffffffffffffff820361237557612374612309565b5b600182019050919050565b600081905092915050565b600061239682611c8f565b6123a08185612380565b93506123b0818560208601611cab565b80840191505092915050565b60006123c8828561238b565b91506123d4828461238b565b91508190509392505050565b60008190508160005260206000209050919050565b60006020601f8301049050919050565b600082821b905092915050565b6000600883026124427fffffffffffffffffffffffffffffffffffffffffffffffffffffffffffffffff82612405565b61244c8683612405565b95508019841693508086168417925050509392505050565b6000819050919050565b600061248961248461247f84611d41565b612464565b611d41565b9050919050565b6000819050919050565b6124a38361246e565b6124b76124af82612490565b848454612412565b825550505050565b600090565b6124cc6124bf565b6124d781848461249a565b505050565b5b818110156124fb576124f06000826124c4565b6001810190506124dd565b5050565b601f82111561254057612511816123e0565b61251a846123f5565b81016020851015612529578190505b61253d612535856123f5565b8301826124dc565b50505b505050565b600082821c905092915050565b600061256360001984600802612545565b1980831691505092915050565b600061257c8383612552565b9150826002028217905092915050565b61259582611c8f565b67ffffffffffffffff8111156125ae576125ad612018565b5b6125b88254612235565b6125c38282856124ff565b600060209050601f8311600181146125f657600084156125e4578287015190505b6125ee8582612570565b865550612656565b601f198416612604866123e0565b60005b8281101561262c57848901518255600182019150602085019450602081019050612607565b868310156126495784890151612645601f891682612552565b8355505b6001600288020188555050505b505050505050565b600081519050919050565b600082825260208201905092915050565b60006126858261265e565b61268f8185612669565b935061269f818560208601611cab565b6126a881611cd5565b840191505092915050565b60006080820190506126c86000830187611dd6565b6126d56020830186611dd6565b6126e26040830185611f78565b81810360608301526126f4818461267a565b905095945050505050565b60008151905061270e81611c00565b92915050565b60006020828403121561272a57612729611bca565b5b6000612738848285016126ff565b91505092915050565b60006040820190506127566000830185611dd6565b6127636020830184611f78565b9392505050565b7f4e487b7100000000000000000000000000000000000000000000000000000000600052601260045260246000fdfea2646970667358221220a05a0ad9fe53fff53234e34ea60bf1b5de84b2a93ba6ea1ca0364f074a5a005364736f6c634300081b0033",
  "linkReferences": {},
  "deployedLinkReferences": {}
}