{
  "_format": "hh-sol-artifact-1",
  "contractName": "JobListing",
  "sourceName": "contracts/JobListing.sol",
  "abi": [
    {
      "inputs": [],
      "stateMutability": "nonpayable",
      "type": "constructor"
    },
    {
      "inputs": [],
      "name": "EnforcedPause",
      "type": "error"
    },
    {
      "inputs": [],
      "name": "ExpectedPause",
      "type": "error"
    },
    {
      "inputs": [
        {
          "internalType": "address",
          "name": "owner",
          "type": "address"
        }
      ],
      "name": "OwnableInvalidOwner",
      "type": "error"
    },
    {
      "inputs": [
        {
          "internalType": "address",
          "name": "account",
          "type": "address"
        }
      ],
      "name": "OwnableUnauthorizedAccount",
      "type": "error"
    },
    {
      "anonymous": false,
      "inputs": [
        {
          "indexed": true,
          "internalType": "uint256",
          "name": "jobId",
          "type": "uint256"
        },
        {
          "indexed": true,
          "internalType": "address",
          "name": "caregiver",
          "type": "address"
        }
      ],
      "name": "CaregiverAssigned",
      "type": "event"
    },
    {
      "anonymous": false,
      "inputs": [
        {
          "indexed": true,
          "internalType": "uint256",
          "name": "jobId",
          "type": "uint256"
        },
        {
          "indexed": true,
          "internalType": "address",
          "name": "client",
          "type": "address"
        }
      ],
      "name": "JobCanceled",
      "type": "event"
    },
    {
      "anonymous": false,
      "inputs": [
        {
          "indexed": true,
          "internalType": "uint256",
          "name": "jobId",
          "type": "uint256"
        },
        {
          "indexed": true,
          "internalType": "address",
          "name": "caregiver",
          "type": "address"
        },
        {
          "indexed": false,
          "internalType": "uint8",
          "name": "rating",
          "type": "uint8"
        },
        {
          "indexed": false,
          "internalType": "uint256",
          "name": "endDate",
          "type": "uint256"
        }
      ],
      "name": "JobCompleted",
      "type": "event"
    },
    {
      "anonymous": false,
      "inputs": [
        {
          "indexed": true,
          "internalType": "uint256",
          "name": "jobId",
          "type": "uint256"
        },
        {
          "indexed": true,
          "internalType": "address",
          "name": "client",
          "type": "address"
        },
        {
          "indexed": false,
          "internalType": "uint256",
          "name": "startDate",
          "type": "uint256"
        },
        {
          "indexed": false,
          "internalType": "string",
          "name": "title",
          "type": "string"
        },
        {
          "indexed": false,
          "internalType": "string",
          "name": "description",
          "type": "string"
        },
        {
          "indexed": false,
          "internalType": "uint256",
          "name": "salaryOffer",
          "type": "uint256"
        }
      ],
      "name": "JobCreated",
      "type": "event"
    },
    {
      "anonymous": false,
      "inputs": [
        {
          "indexed": true,
          "internalType": "uint256",
          "name": "jobId",
          "type": "uint256"
        },
        {
          "indexed": false,
          "internalType": "uint256",
          "name": "startDate",
          "type": "uint256"
        },
        {
          "indexed": false,
          "internalType": "string",
          "name": "title",
          "type": "string"
        },
        {
          "indexed": false,
          "internalType": "string",
          "name": "description",
          "type": "string"
        },
        {
          "indexed": false,
          "internalType": "uint256",
          "name": "salaryOffer",
          "type": "uint256"
        }
      ],
      "name": "JobUpdated",
      "type": "event"
    },
    {
      "anonymous": false,
      "inputs": [
        {
          "indexed": true,
          "internalType": "address",
          "name": "previousOwner",
          "type": "address"
        },
        {
          "indexed": true,
          "internalType": "address",
          "name": "newOwner",
          "type": "address"
        }
      ],
      "name": "OwnershipTransferred",
      "type": "event"
    },
    {
      "anonymous": false,
      "inputs": [
        {
          "indexed": false,
          "internalType": "address",
          "name": "account",
          "type": "address"
        }
      ],
      "name": "Paused",
      "type": "event"
    },
    {
      "anonymous": false,
      "inputs": [
        {
          "indexed": false,
          "internalType": "address",
          "name": "account",
          "type": "address"
        }
      ],
      "name": "Unpaused",
      "type": "event"
    },
    {
      "inputs": [
        {
          "internalType": "uint256",
          "name": "_jobId",
          "type": "uint256"
        },
        {
          "internalType": "address",
          "name": "_caregiver",
          "type": "address"
        }
      ],
      "name": "assignCaregiver",
      "outputs": [],
      "stateMutability": "nonpayable",
      "type": "function"
    },
    {
      "inputs": [
        {
          "internalType": "uint256",
          "name": "_jobId",
          "type": "uint256"
        }
      ],
      "name": "cancelJob",
      "outputs": [],
      "stateMutability": "nonpayable",
      "type": "function"
    },
    {
      "inputs": [
        {
          "internalType": "address",
          "name": "",
          "type": "address"
        },
        {
          "internalType": "uint256",
          "name": "",
          "type": "uint256"
        }
      ],
      "name": "caregiverJobHistory",
      "outputs": [
        {
          "internalType": "uint256",
          "name": "",
          "type": "uint256"
        }
      ],
      "stateMutability": "view",
      "type": "function"
    },
    {
      "inputs": [
        {
          "internalType": "address",
          "name": "",
          "type": "address"
        },
        {
          "internalType": "uint256",
          "name": "",
          "type": "uint256"
        }
      ],
      "name": "clientJobHistory",
      "outputs": [
        {
          "internalType": "uint256",
          "name": "",
          "type": "uint256"
        }
      ],
      "stateMutability": "view",
      "type": "function"
    },
    {
      "inputs": [
        {
          "internalType": "uint256",
          "name": "_jobId",
          "type": "uint256"
        },
        {
          "internalType": "uint8",
          "name": "_rating",
          "type": "uint8"
        }
      ],
      "name": "completeJobListing",
      "outputs": [],
      "stateMutability": "nonpayable",
      "type": "function"
    },
    {
      "inputs": [
        {
          "internalType": "uint256",
          "name": "_startDate",
          "type": "uint256"
        },
        {
          "internalType": "uint256",
          "name": "_salaryOffer",
          "type": "uint256"
        },
        {
          "internalType": "string",
          "name": "_title",
          "type": "string"
        },
        {
          "internalType": "string",
          "name": "_description",
          "type": "string"
        }
      ],
      "name": "createJob",
      "outputs": [],
      "stateMutability": "nonpayable",
      "type": "function"
    },
    {
      "inputs": [
        {
          "internalType": "address",
          "name": "_caregiver",
          "type": "address"
        }
      ],
      "name": "getCaregiverJobHistory",
      "outputs": [
        {
          "internalType": "uint256[]",
          "name": "",
          "type": "uint256[]"
        }
      ],
      "stateMutability": "view",
      "type": "function"
    },
    {
      "inputs": [
        {
          "internalType": "address",
          "name": "_client",
          "type": "address"
        }
      ],
      "name": "getClientJobHistory",
      "outputs": [
        {
          "internalType": "uint256[]",
          "name": "",
          "type": "uint256[]"
        }
      ],
      "stateMutability": "view",
      "type": "function"
    },
    {
      "inputs": [
        {
          "internalType": "uint256",
          "name": "jobId",
          "type": "uint256"
        }
      ],
      "name": "getJobDetails",
      "outputs": [
        {
          "internalType": "address",
          "name": "client",
          "type": "address"
        },
        {
          "internalType": "address",
          "name": "caregiver",
          "type": "address"
        },
        {
          "internalType": "uint256",
          "name": "startDate",
          "type": "uint256"
        },
        {
          "internalType": "uint256",
          "name": "endDate",
          "type": "uint256"
        },
        {
          "internalType": "uint256",
          "name": "salaryOffer",
          "type": "uint256"
        },
        {
          "internalType": "string",
          "name": "title",
          "type": "string"
        },
        {
          "internalType": "string",
          "name": "description",
          "type": "string"
        },
        {
          "internalType": "bool",
          "name": "completed",
          "type": "bool"
        },
        {
          "internalType": "bool",
          "name": "canceled",
          "type": "bool"
        },
        {
          "internalType": "uint8",
          "name": "rating",
          "type": "uint8"
        }
      ],
      "stateMutability": "view",
      "type": "function"
    },
    {
      "inputs": [],
      "name": "jobCounter",
      "outputs": [
        {
          "internalType": "uint256",
          "name": "",
          "type": "uint256"
        }
      ],
      "stateMutability": "view",
      "type": "function"
    },
    {
      "inputs": [
        {
          "internalType": "uint256",
          "name": "",
          "type": "uint256"
        }
      ],
      "name": "jobs",
      "outputs": [
        {
          "internalType": "address",
          "name": "client",
          "type": "address"
        },
        {
          "internalType": "address",
          "name": "caregiver",
          "type": "address"
        },
        {
          "internalType": "uint256",
          "name": "startDate",
          "type": "uint256"
        },
        {
          "internalType": "uint256",
          "name": "endDate",
          "type": "uint256"
        },
        {
          "internalType": "uint256",
          "name": "salaryOffer",
          "type": "uint256"
        },
        {
          "internalType": "string",
          "name": "title",
          "type": "string"
        },
        {
          "internalType": "string",
          "name": "description",
          "type": "string"
        },
        {
          "internalType": "bool",
          "name": "completed",
          "type": "bool"
        },
        {
          "internalType": "bool",
          "name": "canceled",
          "type": "bool"
        },
        {
          "internalType": "uint8",
          "name": "rating",
          "type": "uint8"
        }
      ],
      "stateMutability": "view",
      "type": "function"
    },
    {
      "inputs": [],
      "name": "owner",
      "outputs": [
        {
          "internalType": "address",
          "name": "",
          "type": "address"
        }
      ],
      "stateMutability": "view",
      "type": "function"
    },
    {
      "inputs": [],
      "name": "paused",
      "outputs": [
        {
          "internalType": "bool",
          "name": "",
          "type": "bool"
        }
      ],
      "stateMutability": "view",
      "type": "function"
    },
    {
      "inputs": [],
      "name": "renounceOwnership",
      "outputs": [],
      "stateMutability": "nonpayable",
      "type": "function"
    },
    {
      "inputs": [
        {
          "internalType": "address",
          "name": "newOwner",
          "type": "address"
        }
      ],
      "name": "transferOwnership",
      "outputs": [],
      "stateMutability": "nonpayable",
      "type": "function"
    }
  ],
  "bytecode": "0x608060405234801561001057600080fd5b5033600073ffffffffffffffffffffffffffffffffffffffff168173ffffffffffffffffffffffffffffffffffffffff16036100845760006040517f1e4fbdf700000000000000000000000000000000000000000000000000000000815260040161007b91906101b8565b60405180910390fd5b610093816100b360201b60201c565b5060008060146101000a81548160ff0219169083151502179055506101d3565b60008060009054906101000a900473ffffffffffffffffffffffffffffffffffffffff169050816000806101000a81548173ffffffffffffffffffffffffffffffffffffffff021916908373ffffffffffffffffffffffffffffffffffffffff1602179055508173ffffffffffffffffffffffffffffffffffffffff168173ffffffffffffffffffffffffffffffffffffffff167f8be0079c531659141344cd1fd0a4f28419497f9722a3daafe3b4186f6b6457e060405160405180910390a35050565b600073ffffffffffffffffffffffffffffffffffffffff82169050919050565b60006101a282610177565b9050919050565b6101b281610197565b82525050565b60006020820190506101cd60008301846101a9565b92915050565b6124c5806101e26000396000f3fe608060405234801561001057600080fd5b50600436106100f55760003560e01c80635c975abb116100975780638da5cb5b116100665780638da5cb5b14610296578063986b609d146102b4578063f053b6fe146102e4578063f2fde38b14610300576100f5565b80635c975abb14610222578063715018a614610240578063800a9a381461024a5780638221dcff14610266576100f5565b80634cac35c6116100d35780634cac35c61461016b5780634f0aa5b8146101a457806350355d76146101d457806354170d1b146101f2576100f5565b8063180aedf3146100fa5780631b11eace146101335780631dffa3dc1461014f575b600080fd5b610114600480360381019061010f91906115dc565b61031c565b60405161012a9a99989796959493929190611720565b60405180910390f35b61014d600480360381019061014891906117f6565b6104e7565b005b610169600480360381019061016491906115dc565b61078a565b005b610185600480360381019061018091906115dc565b610944565b60405161019b9a99989796959493929190611720565b60405180910390f35b6101be60048036038101906101b99190611836565b610b3b565b6040516101cb9190611921565b60405180910390f35b6101dc610bd2565b6040516101e99190611943565b60405180910390f35b61020c6004803603810190610207919061195e565b610bd8565b6040516102199190611943565b60405180910390f35b61022a610c09565b604051610237919061199e565b60405180910390f35b610248610c1f565b005b610264600480360381019061025f91906119e5565b610c33565b005b610280600480360381019061027b919061195e565b610fd1565b60405161028d9190611943565b60405180910390f35b61029e611002565b6040516102ab9190611a25565b60405180910390f35b6102ce60048036038101906102c99190611836565b61102b565b6040516102db9190611921565b60405180910390f35b6102fe60048036038101906102f99190611b75565b6110c2565b005b61031a60048036038101906103159190611836565b611378565b005b60026020528060005260406000206000915090508060000160009054906101000a900473ffffffffffffffffffffffffffffffffffffffff16908060010160009054906101000a900473ffffffffffffffffffffffffffffffffffffffff169080600201549080600301549080600401549080600501805461039d90611c43565b80601f01602080910402602001604051908101604052809291908181526020018280546103c990611c43565b80156104165780601f106103eb57610100808354040283529160200191610416565b820191906000526020600020905b8154815290600101906020018083116103f957829003601f168201915b50505050509080600601805461042b90611c43565b80601f016020809104026020016040519081016040528092919081815260200182805461045790611c43565b80156104a45780601f10610479576101008083540402835291602001916104a4565b820191906000526020600020905b81548152906001019060200180831161048757829003601f168201915b5050505050908060070160009054906101000a900460ff16908060070160019054906101000a900460ff16908060070160029054906101000a900460ff1690508a565b6104ef6113fe565b60006002600084815260200190815260200160002090508060000160009054906101000a900473ffffffffffffffffffffffffffffffffffffffff1673ffffffffffffffffffffffffffffffffffffffff163373ffffffffffffffffffffffffffffffffffffffff1614610598576040517f08c379a000000000000000000000000000000000000000000000000000000000815260040161058f90611ce6565b60405180910390fd5b600073ffffffffffffffffffffffffffffffffffffffff168160010160009054906101000a900473ffffffffffffffffffffffffffffffffffffffff1673ffffffffffffffffffffffffffffffffffffffff161461062b576040517f08c379a000000000000000000000000000000000000000000000000000000000815260040161062290611d52565b60405180910390fd5b8060070160009054906101000a900460ff1615801561065957508060070160019054906101000a900460ff16155b610698576040517f08c379a000000000000000000000000000000000000000000000000000000000815260040161068f90611de4565b60405180910390fd5b818160010160006101000a81548173ffffffffffffffffffffffffffffffffffffffff021916908373ffffffffffffffffffffffffffffffffffffffff160217905550600460008373ffffffffffffffffffffffffffffffffffffffff1673ffffffffffffffffffffffffffffffffffffffff1681526020019081526020016000208390806001815401808255809150506001900390600052602060002001600090919091909150558173ffffffffffffffffffffffffffffffffffffffff16837f8db9ad01cbb120209826aa27b38390c8369fc6443ba4f4ddec94efdcd80779bd60405160405180910390a3505050565b6107926113fe565b60006002600083815260200190815260200160002090508060000160009054906101000a900473ffffffffffffffffffffffffffffffffffffffff1673ffffffffffffffffffffffffffffffffffffffff163373ffffffffffffffffffffffffffffffffffffffff161461083b576040517f08c379a000000000000000000000000000000000000000000000000000000000815260040161083290611e76565b60405180910390fd5b8060070160009054906101000a900460ff161561088d576040517f08c379a000000000000000000000000000000000000000000000000000000000815260040161088490611ee2565b60405180910390fd5b8060070160019054906101000a900460ff16156108df576040517f08c379a00000000000000000000000000000000000000000000000000000000081526004016108d690611f4e565b60405180910390fd5b60018160070160016101000a81548160ff0219169083151502179055503373ffffffffffffffffffffffffffffffffffffffff16827f6cdb347cb8db871a2a6cfcfa4b771af8b8ea102b60aa317ecaaed726ded1056960405160405180910390a35050565b6000806000806000606080600080600080600260008d815260200190815260200160002090508060000160009054906101000a900473ffffffffffffffffffffffffffffffffffffffff168160010160009054906101000a900473ffffffffffffffffffffffffffffffffffffffff1682600201548360030154846004015485600501866006018760070160009054906101000a900460ff168860070160019054906101000a900460ff168960070160029054906101000a900460ff16848054610a0d90611c43565b80601f0160208091040260200160405190810160405280929190818152602001828054610a3990611c43565b8015610a865780601f10610a5b57610100808354040283529160200191610a86565b820191906000526020600020905b815481529060010190602001808311610a6957829003601f168201915b50505050509450838054610a9990611c43565b80601f0160208091040260200160405190810160405280929190818152602001828054610ac590611c43565b8015610b125780601f10610ae757610100808354040283529160200191610b12565b820191906000526020600020905b815481529060010190602001808311610af557829003601f168201915b505050505093509a509a509a509a509a509a509a509a509a509a50509193959799509193959799565b6060600460008373ffffffffffffffffffffffffffffffffffffffff1673ffffffffffffffffffffffffffffffffffffffff168152602001908152602001600020805480602002602001604051908101604052809291908181526020018280548015610bc657602002820191906000526020600020905b815481526020019060010190808311610bb2575b50505050509050919050565b60015481565b60036020528160005260406000208181548110610bf457600080fd5b90600052602060002001600091509150505481565b60008060149054906101000a900460ff16905090565b610c2761143f565b610c3160006114c6565b565b610c3b6113fe565b816002600082815260200190815260200160002060000160009054906101000a900473ffffffffffffffffffffffffffffffffffffffff1673ffffffffffffffffffffffffffffffffffffffff163373ffffffffffffffffffffffffffffffffffffffff1614610ce0576040517f08c379a0000000000000000000000000000000000000000000000000000000008152600401610cd790611fba565b60405180910390fd5b6000600260008581526020019081526020016000209050600073ffffffffffffffffffffffffffffffffffffffff168160010160009054906101000a900473ffffffffffffffffffffffffffffffffffffffff1673ffffffffffffffffffffffffffffffffffffffff1603610d8a576040517f08c379a0000000000000000000000000000000000000000000000000000000008152600401610d8190612026565b60405180910390fd5b8060070160009054906101000a900460ff1615610ddc576040517f08c379a0000000000000000000000000000000000000000000000000000000008152600401610dd390611ee2565b60405180910390fd5b8060070160019054906101000a900460ff1615610e2e576040517f08c379a0000000000000000000000000000000000000000000000000000000008152600401610e2590612092565b60405180910390fd5b60018360ff1610158015610e46575060058360ff1611155b610e85576040517f08c379a0000000000000000000000000000000000000000000000000000000008152600401610e7c906120fe565b60405180910390fd5b60018160070160006101000a81548160ff021916908315150217905550828160070160026101000a81548160ff021916908360ff160217905550428160030181905550600460008260010160009054906101000a900473ffffffffffffffffffffffffffffffffffffffff1673ffffffffffffffffffffffffffffffffffffffff1673ffffffffffffffffffffffffffffffffffffffff1681526020019081526020016000208490806001815401808255809150506001900390600052602060002001600090919091909150558060010160009054906101000a900473ffffffffffffffffffffffffffffffffffffffff1673ffffffffffffffffffffffffffffffffffffffff16847ff4d1a6763bb86cfa0bbbb94f65a32a50c8ed79089e678bfe8506a5b1c9c7f471858460030154604051610fc392919061211e565b60405180910390a350505050565b60046020528160005260406000208181548110610fed57600080fd5b90600052602060002001600091509150505481565b60008060009054906101000a900473ffffffffffffffffffffffffffffffffffffffff16905090565b6060600360008373ffffffffffffffffffffffffffffffffffffffff1673ffffffffffffffffffffffffffffffffffffffff1681526020019081526020016000208054806020026020016040519081016040528092919081815260200182805480156110b657602002820191906000526020600020905b8154815260200190600101908083116110a2575b50505050509050919050565b6110ca6113fe565b6040518061014001604052803373ffffffffffffffffffffffffffffffffffffffff168152602001600073ffffffffffffffffffffffffffffffffffffffff16815260200185815260200160008152602001848152602001838152602001828152602001600015158152602001600015158152602001600060ff1681525060026000600154815260200190815260200160002060008201518160000160006101000a81548173ffffffffffffffffffffffffffffffffffffffff021916908373ffffffffffffffffffffffffffffffffffffffff16021790555060208201518160010160006101000a81548173ffffffffffffffffffffffffffffffffffffffff021916908373ffffffffffffffffffffffffffffffffffffffff16021790555060408201518160020155606082015181600301556080820151816004015560a082015181600501908161121e91906122f3565b5060c082015181600601908161123491906122f3565b5060e08201518160070160006101000a81548160ff0219169083151502179055506101008201518160070160016101000a81548160ff0219169083151502179055506101208201518160070160026101000a81548160ff021916908360ff160217905550905050600360003373ffffffffffffffffffffffffffffffffffffffff1673ffffffffffffffffffffffffffffffffffffffff16815260200190815260200160002060015490806001815401808255809150506001900390600052602060002001600090919091909150553373ffffffffffffffffffffffffffffffffffffffff166001547faf8bdbfb95804659d4dbce8093b4be24937215248c8cf07eae72ece23b4554168685858860405161135294939291906123c5565b60405180910390a36001600081548092919061136d90612447565b919050555050505050565b61138061143f565b600073ffffffffffffffffffffffffffffffffffffffff168173ffffffffffffffffffffffffffffffffffffffff16036113f25760006040517f1e4fbdf70000000000000000000000000000000000000000000000000000000081526004016113e99190611a25565b60405180910390fd5b6113fb816114c6565b50565b611406610c09565b1561143d576040517fd93c066500000000000000000000000000000000000000000000000000000000815260040160405180910390fd5b565b61144761158a565b73ffffffffffffffffffffffffffffffffffffffff16611465611002565b73ffffffffffffffffffffffffffffffffffffffff16146114c45761148861158a565b6040517f118cdaa70000000000000000000000000000000000000000000000000000000081526004016114bb9190611a25565b60405180910390fd5b565b60008060009054906101000a900473ffffffffffffffffffffffffffffffffffffffff169050816000806101000a81548173ffffffffffffffffffffffffffffffffffffffff021916908373ffffffffffffffffffffffffffffffffffffffff1602179055508173ffffffffffffffffffffffffffffffffffffffff168173ffffffffffffffffffffffffffffffffffffffff167f8be0079c531659141344cd1fd0a4f28419497f9722a3daafe3b4186f6b6457e060405160405180910390a35050565b600033905090565b6000604051905090565b600080fd5b600080fd5b6000819050919050565b6115b9816115a6565b81146115c457600080fd5b50565b6000813590506115d6816115b0565b92915050565b6000602082840312156115f2576115f161159c565b5b6000611600848285016115c7565b91505092915050565b600073ffffffffffffffffffffffffffffffffffffffff82169050919050565b600061163482611609565b9050919050565b61164481611629565b82525050565b611653816115a6565b82525050565b600081519050919050565b600082825260208201905092915050565b60005b83811015611693578082015181840152602081019050611678565b60008484015250505050565b6000601f19601f8301169050919050565b60006116bb82611659565b6116c58185611664565b93506116d5818560208601611675565b6116de8161169f565b840191505092915050565b60008115159050919050565b6116fe816116e9565b82525050565b600060ff82169050919050565b61171a81611704565b82525050565b600061014082019050611736600083018d61163b565b611743602083018c61163b565b611750604083018b61164a565b61175d606083018a61164a565b61176a608083018961164a565b81810360a083015261177c81886116b0565b905081810360c083015261179081876116b0565b905061179f60e08301866116f5565b6117ad6101008301856116f5565b6117bb610120830184611711565b9b9a5050505050505050505050565b6117d381611629565b81146117de57600080fd5b50565b6000813590506117f0816117ca565b92915050565b6000806040838503121561180d5761180c61159c565b5b600061181b858286016115c7565b925050602061182c858286016117e1565b9150509250929050565b60006020828403121561184c5761184b61159c565b5b600061185a848285016117e1565b91505092915050565b600081519050919050565b600082825260208201905092915050565b6000819050602082019050919050565b611898816115a6565b82525050565b60006118aa838361188f565b60208301905092915050565b6000602082019050919050565b60006118ce82611863565b6118d8818561186e565b93506118e38361187f565b8060005b838110156119145781516118fb888261189e565b9750611906836118b6565b9250506001810190506118e7565b5085935050505092915050565b6000602082019050818103600083015261193b81846118c3565b905092915050565b6000602082019050611958600083018461164a565b92915050565b600080604083850312156119755761197461159c565b5b6000611983858286016117e1565b9250506020611994858286016115c7565b9150509250929050565b60006020820190506119b360008301846116f5565b92915050565b6119c281611704565b81146119cd57600080fd5b50565b6000813590506119df816119b9565b92915050565b600080604083850312156119fc576119fb61159c565b5b6000611a0a858286016115c7565b9250506020611a1b858286016119d0565b9150509250929050565b6000602082019050611a3a600083018461163b565b92915050565b600080fd5b600080fd5b7f4e487b7100000000000000000000000000000000000000000000000000000000600052604160045260246000fd5b611a828261169f565b810181811067ffffffffffffffff82111715611aa157611aa0611a4a565b5b80604052505050565b6000611ab4611592565b9050611ac08282611a79565b919050565b600067ffffffffffffffff821115611ae057611adf611a4a565b5b611ae98261169f565b9050602081019050919050565b82818337600083830152505050565b6000611b18611b1384611ac5565b611aaa565b905082815260208101848484011115611b3457611b33611a45565b5b611b3f848285611af6565b509392505050565b600082601f830112611b5c57611b5b611a40565b5b8135611b6c848260208601611b05565b91505092915050565b60008060008060808587031215611b8f57611b8e61159c565b5b6000611b9d878288016115c7565b9450506020611bae878288016115c7565b935050604085013567ffffffffffffffff811115611bcf57611bce6115a1565b5b611bdb87828801611b47565b925050606085013567ffffffffffffffff811115611bfc57611bfb6115a1565b5b611c0887828801611b47565b91505092959194509250565b7f4e487b7100000000000000000000000000000000000000000000000000000000600052602260045260246000fd5b60006002820490506001821680611c5b57607f821691505b602082108103611c6e57611c6d611c14565b5b50919050565b7f4f6e6c792074686520636c69656e742063616e2061737369676e20612063617260008201527f6567697665720000000000000000000000000000000000000000000000000000602082015250565b6000611cd0602683611664565b9150611cdb82611c74565b604082019050919050565b60006020820190508181036000830152611cff81611cc3565b9050919050565b7f43617265676976657220616c72656164792061737369676e6564000000000000600082015250565b6000611d3c601a83611664565b9150611d4782611d06565b602082019050919050565b60006020820190508181036000830152611d6b81611d2f565b9050919050565b7f4a6f6220697320616c726561647920636f6d706c65746564206f722063616e6360008201527f656c656400000000000000000000000000000000000000000000000000000000602082015250565b6000611dce602483611664565b9150611dd982611d72565b604082019050919050565b60006020820190508181036000830152611dfd81611dc1565b9050919050565b7f4f6e6c792074686520636c69656e742063616e2063616e63656c20746865206a60008201527f6f62000000000000000000000000000000000000000000000000000000000000602082015250565b6000611e60602283611664565b9150611e6b82611e04565b604082019050919050565b60006020820190508181036000830152611e8f81611e53565b9050919050565b7f4a6f6220616c726561647920636f6d706c657465640000000000000000000000600082015250565b6000611ecc601583611664565b9150611ed782611e96565b602082019050919050565b60006020820190508181036000830152611efb81611ebf565b9050919050565b7f4a6f6220616c72656164792063616e63656c6564000000000000000000000000600082015250565b6000611f38601483611664565b9150611f4382611f02565b602082019050919050565b60006020820190508181036000830152611f6781611f2b565b9050919050565b7f4e6f7420617574686f72697a6564000000000000000000000000000000000000600082015250565b6000611fa4600e83611664565b9150611faf82611f6e565b602082019050919050565b60006020820190508181036000830152611fd381611f97565b9050919050565b7f4e6f206361726567697665722061737369676e65640000000000000000000000600082015250565b6000612010601583611664565b915061201b82611fda565b602082019050919050565b6000602082019050818103600083015261203f81612003565b9050919050565b7f4a6f6220686173206265656e2063616e63656c65640000000000000000000000600082015250565b600061207c601583611664565b915061208782612046565b602082019050919050565b600060208201905081810360008301526120ab8161206f565b9050919050565b7f526174696e67206d757374206265206265747765656e203120616e6420350000600082015250565b60006120e8601e83611664565b91506120f3826120b2565b602082019050919050565b60006020820190508181036000830152612117816120db565b9050919050565b60006040820190506121336000830185611711565b612140602083018461164a565b9392505050565b60008190508160005260206000209050919050565b60006020601f8301049050919050565b600082821b905092915050565b6000600883026121a97fffffffffffffffffffffffffffffffffffffffffffffffffffffffffffffffff8261216c565b6121b3868361216c565b95508019841693508086168417925050509392505050565b6000819050919050565b60006121f06121eb6121e6846115a6565b6121cb565b6115a6565b9050919050565b6000819050919050565b61220a836121d5565b61221e612216826121f7565b848454612179565b825550505050565b600090565b612233612226565b61223e818484612201565b505050565b5b818110156122625761225760008261222b565b600181019050612244565b5050565b601f8211156122a75761227881612147565b6122818461215c565b81016020851015612290578190505b6122a461229c8561215c565b830182612243565b50505b505050565b600082821c905092915050565b60006122ca600019846008026122ac565b1980831691505092915050565b60006122e383836122b9565b9150826002028217905092915050565b6122fc82611659565b67ffffffffffffffff81111561231557612314611a4a565b5b61231f8254611c43565b61232a828285612266565b600060209050601f83116001811461235d576000841561234b578287015190505b61235585826122d7565b8655506123bd565b601f19841661236b86612147565b60005b828110156123935784890151825560018201915060208501945060208101905061236e565b868310156123b057848901516123ac601f8916826122b9565b8355505b6001600288020188555050505b505050505050565b60006080820190506123da600083018761164a565b81810360208301526123ec81866116b0565b9050818103604083015261240081856116b0565b905061240f606083018461164a565b95945050505050565b7f4e487b7100000000000000000000000000000000000000000000000000000000600052601160045260246000fd5b6000612452826115a6565b91507fffffffffffffffffffffffffffffffffffffffffffffffffffffffffffffffff820361248457612483612418565b5b60018201905091905056fea264697066735822122099df764f43269fdc73dd57ed374ebe143975c51bc8e1286a2e64c7369e36e60f64736f6c634300081b0033",
  "linkReferences": {},
  "deployedLinkReferences": {}
}