{
  "_format": "hh-sol-artifact-1",
  "contractName": "ReputationNFT",
  "sourceName": "contracts/ReputationNFT.sol",
  "abi": [
    {
      "inputs": [],
      "stateMutability": "nonpayable",
      "type": "constructor"
    },
    {
      "inputs": [
        {
          "internalType": "address",
          "name": "sender",
          "type": "address"
        },
        {
          "internalType": "uint256",
          "name": "tokenId",
          "type": "uint256"
        },
        {
          "internalType": "address",
          "name": "owner",
          "type": "address"
        }
      ],
      "name": "ERC721IncorrectOwner",
      "type": "error"
    },
    {
      "inputs": [
        {
          "internalType": "address",
          "name": "operator",
          "type": "address"
        },
        {
          "internalType": "uint256",
          "name": "tokenId",
          "type": "uint256"
        }
      ],
      "name": "ERC721InsufficientApproval",
      "type": "error"
    },
    {
      "inputs": [
        {
          "internalType": "address",
          "name": "approver",
          "type": "address"
        }
      ],
      "name": "ERC721InvalidApprover",
      "type": "error"
    },
    {
      "inputs": [
        {
          "internalType": "address",
          "name": "operator",
          "type": "address"
        }
      ],
      "name": "ERC721InvalidOperator",
      "type": "error"
    },
    {
      "inputs": [
        {
          "internalType": "address",
          "name": "owner",
          "type": "address"
        }
      ],
      "name": "ERC721InvalidOwner",
      "type": "error"
    },
    {
      "inputs": [
        {
          "internalType": "address",
          "name": "receiver",
          "type": "address"
        }
      ],
      "name": "ERC721InvalidReceiver",
      "type": "error"
    },
    {
      "inputs": [
        {
          "internalType": "address",
          "name": "sender",
          "type": "address"
        }
      ],
      "name": "ERC721InvalidSender",
      "type": "error"
    },
    {
      "inputs": [
        {
          "internalType": "uint256",
          "name": "tokenId",
          "type": "uint256"
        }
      ],
      "name": "ERC721NonexistentToken",
      "type": "error"
    },
    {
      "inputs": [
        {
          "internalType": "address",
          "name": "owner",
          "type": "address"
        }
      ],
      "name": "OwnableInvalidOwner",
      "type": "error"
    },
    {
      "inputs": [
        {
          "internalType": "address",
          "name": "account",
          "type": "address"
        }
      ],
      "name": "OwnableUnauthorizedAccount",
      "type": "error"
    },
    {
      "anonymous": false,
      "inputs": [
        {
          "indexed": true,
          "internalType": "address",
          "name": "owner",
          "type": "address"
        },
        {
          "indexed": true,
          "internalType": "address",
          "name": "approved",
          "type": "address"
        },
        {
          "indexed": true,
          "internalType": "uint256",
          "name": "tokenId",
          "type": "uint256"
        }
      ],
      "name": "Approval",
      "type": "event"
    },
    {
      "anonymous": false,
      "inputs": [
        {
          "indexed": true,
          "internalType": "address",
          "name": "owner",
          "type": "address"
        },
        {
          "indexed": true,
          "internalType": "address",
          "name": "operator",
          "type": "address"
        },
        {
          "indexed": false,
          "internalType": "bool",
          "name": "approved",
          "type": "bool"
        }
      ],
      "name": "ApprovalForAll",
      "type": "event"
    },
    {
      "anonymous": false,
      "inputs": [
        {
          "indexed": false,
          "internalType": "uint256",
          "name": "_fromTokenId",
          "type": "uint256"
        },
        {
          "indexed": false,
          "internalType": "uint256",
          "name": "_toTokenId",
          "type": "uint256"
        }
      ],
      "name": "BatchMetadataUpdate",
      "type": "event"
    },
    {
      "anonymous": false,
      "inputs": [
        {
          "indexed": false,
          "internalType": "uint256",
          "name": "_tokenId",
          "type": "uint256"
        }
      ],
      "name": "MetadataUpdate",
      "type": "event"
    },
    {
      "anonymous": false,
      "inputs": [
        {
          "indexed": true,
          "internalType": "address",
          "name": "previousOwner",
          "type": "address"
        },
        {
          "indexed": true,
          "internalType": "address",
          "name": "newOwner",
          "type": "address"
        }
      ],
      "name": "OwnershipTransferred",
      "type": "event"
    },
    {
      "anonymous": false,
      "inputs": [
        {
          "indexed": true,
          "internalType": "address",
          "name": "from",
          "type": "address"
        },
        {
          "indexed": true,
          "internalType": "address",
          "name": "to",
          "type": "address"
        },
        {
          "indexed": true,
          "internalType": "uint256",
          "name": "tokenId",
          "type": "uint256"
        }
      ],
      "name": "Transfer",
      "type": "event"
    },
    {
      "inputs": [
        {
          "internalType": "address",
          "name": "to",
          "type": "address"
        },
        {
          "internalType": "uint256",
          "name": "tokenId",
          "type": "uint256"
        }
      ],
      "name": "approve",
      "outputs": [],
      "stateMutability": "nonpayable",
      "type": "function"
    },
    {
      "inputs": [
        {
          "internalType": "address",
          "name": "owner",
          "type": "address"
        }
      ],
      "name": "balanceOf",
      "outputs": [
        {
          "internalType": "uint256",
          "name": "",
          "type": "uint256"
        }
      ],
      "stateMutability": "view",
      "type": "function"
    },
    {
      "inputs": [
        {
          "internalType": "uint256",
          "name": "tokenId",
          "type": "uint256"
        }
      ],
      "name": "getApproved",
      "outputs": [
        {
          "internalType": "address",
          "name": "",
          "type": "address"
        }
      ],
      "stateMutability": "view",
      "type": "function"
    },
    {
      "inputs": [
        {
          "internalType": "address",
          "name": "_owner",
          "type": "address"
        }
      ],
      "name": "getTokenURIsOfOwner",
      "outputs": [
        {
          "internalType": "string[]",
          "name": "",
          "type": "string[]"
        }
      ],
      "stateMutability": "view",
      "type": "function"
    },
    {
      "inputs": [
        {
          "internalType": "address",
          "name": "_owner",
          "type": "address"
        }
      ],
      "name": "getTokensOfOwner",
      "outputs": [
        {
          "internalType": "uint256[]",
          "name": "",
          "type": "uint256[]"
        }
      ],
      "stateMutability": "view",
      "type": "function"
    },
    {
      "inputs": [
        {
          "internalType": "address",
          "name": "owner",
          "type": "address"
        },
        {
          "internalType": "address",
          "name": "operator",
          "type": "address"
        }
      ],
      "name": "isApprovedForAll",
      "outputs": [
        {
          "internalType": "bool",
          "name": "",
          "type": "bool"
        }
      ],
      "stateMutability": "view",
      "type": "function"
    },
    {
      "inputs": [
        {
          "internalType": "address",
          "name": "_user",
          "type": "address"
        },
        {
          "internalType": "uint8",
          "name": "_score",
          "type": "uint8"
        }
      ],
      "name": "mint",
      "outputs": [],
      "stateMutability": "nonpayable",
      "type": "function"
    },
    {
      "inputs": [],
      "name": "name",
      "outputs": [
        {
          "internalType": "string",
          "name": "",
          "type": "string"
        }
      ],
      "stateMutability": "view",
      "type": "function"
    },
    {
      "inputs": [],
      "name": "owner",
      "outputs": [
        {
          "internalType": "address",
          "name": "",
          "type": "address"
        }
      ],
      "stateMutability": "view",
      "type": "function"
    },
    {
      "inputs": [
        {
          "internalType": "uint256",
          "name": "tokenId",
          "type": "uint256"
        }
      ],
      "name": "ownerOf",
      "outputs": [
        {
          "internalType": "address",
          "name": "",
          "type": "address"
        }
      ],
      "stateMutability": "view",
      "type": "function"
    },
    {
      "inputs": [
        {
          "internalType": "address",
          "name": "",
          "type": "address"
        },
        {
          "internalType": "uint256",
          "name": "",
          "type": "uint256"
        }
      ],
      "name": "ownerToTokenIds",
      "outputs": [
        {
          "internalType": "uint256",
          "name": "",
          "type": "uint256"
        }
      ],
      "stateMutability": "view",
      "type": "function"
    },
    {
      "inputs": [],
      "name": "renounceOwnership",
      "outputs": [],
      "stateMutability": "nonpayable",
      "type": "function"
    },
    {
      "inputs": [
        {
          "internalType": "address",
          "name": "from",
          "type": "address"
        },
        {
          "internalType": "address",
          "name": "to",
          "type": "address"
        },
        {
          "internalType": "uint256",
          "name": "tokenId",
          "type": "uint256"
        }
      ],
      "name": "safeTransferFrom",
      "outputs": [],
      "stateMutability": "nonpayable",
      "type": "function"
    },
    {
      "inputs": [
        {
          "internalType": "address",
          "name": "from",
          "type": "address"
        },
        {
          "internalType": "address",
          "name": "to",
          "type": "address"
        },
        {
          "internalType": "uint256",
          "name": "tokenId",
          "type": "uint256"
        },
        {
          "internalType": "bytes",
          "name": "data",
          "type": "bytes"
        }
      ],
      "name": "safeTransferFrom",
      "outputs": [],
      "stateMutability": "nonpayable",
      "type": "function"
    },
    {
      "inputs": [
        {
          "internalType": "uint8",
          "name": "",
          "type": "uint8"
        }
      ],
      "name": "scoreToTokenURI",
      "outputs": [
        {
          "internalType": "string",
          "name": "",
          "type": "string"
        }
      ],
      "stateMutability": "view",
      "type": "function"
    },
    {
      "inputs": [
        {
          "internalType": "address",
          "name": "operator",
          "type": "address"
        },
        {
          "internalType": "bool",
          "name": "approved",
          "type": "bool"
        }
      ],
      "name": "setApprovalForAll",
      "outputs": [],
      "stateMutability": "nonpayable",
      "type": "function"
    },
    {
      "inputs": [
        {
          "internalType": "bytes4",
          "name": "interfaceId",
          "type": "bytes4"
        }
      ],
      "name": "supportsInterface",
      "outputs": [
        {
          "internalType": "bool",
          "name": "",
          "type": "bool"
        }
      ],
      "stateMutability": "view",
      "type": "function"
    },
    {
      "inputs": [],
      "name": "symbol",
      "outputs": [
        {
          "internalType": "string",
          "name": "",
          "type": "string"
        }
      ],
      "stateMutability": "view",
      "type": "function"
    },
    {
      "inputs": [],
      "name": "tokenCount",
      "outputs": [
        {
          "internalType": "uint256",
          "name": "",
          "type": "uint256"
        }
      ],
      "stateMutability": "view",
      "type": "function"
    },
    {
      "inputs": [
        {
          "internalType": "uint256",
          "name": "tokenId",
          "type": "uint256"
        }
      ],
      "name": "tokenURI",
      "outputs": [
        {
          "internalType": "string",
          "name": "",
          "type": "string"
        }
      ],
      "stateMutability": "view",
      "type": "function"
    },
    {
      "inputs": [
        {
          "internalType": "address",
          "name": "from",
          "type": "address"
        },
        {
          "internalType": "address",
          "name": "to",
          "type": "address"
        },
        {
          "internalType": "uint256",
          "name": "tokenId",
          "type": "uint256"
        }
      ],
      "name": "transferFrom",
      "outputs": [],
      "stateMutability": "nonpayable",
      "type": "function"
    },
    {
      "inputs": [
        {
          "internalType": "address",
          "name": "newOwner",
          "type": "address"
        }
      ],
      "name": "transferOwnership",
      "outputs": [],
      "stateMutability": "nonpayable",
      "type": "function"
    }
  ],
  "bytecode": "0x608060405234801561001057600080fd5b50336040518060400160405280600d81526020017f52657075746174696f6e4e4654000000000000000000000000000000000000008152506040518060400160405280600481526020017f524e465400000000000000000000000000000000000000000000000000000000815250816000908161008d91906104f4565b50806001908161009d91906104f4565b505050600073ffffffffffffffffffffffffffffffffffffffff168173ffffffffffffffffffffffffffffffffffffffff16036101125760006040517f1e4fbdf70000000000000000000000000000000000000000000000000000000081526004016101099190610607565b60405180910390fd5b610121816101de60201b60201c565b5060405180608001604052806043815260200161341f6043913960096000600160ff168152602001908152602001600020908161015e91906104f4565b506040518060800160405280604381526020016133996043913960096000600260ff168152602001908152602001600020908161019b91906104f4565b506040518060800160405280604381526020016133dc6043913960096000600360ff16815260200190815260200160002090816101d891906104f4565b50610622565b6000600760009054906101000a900473ffffffffffffffffffffffffffffffffffffffff16905081600760006101000a81548173ffffffffffffffffffffffffffffffffffffffff021916908373ffffffffffffffffffffffffffffffffffffffff1602179055508173ffffffffffffffffffffffffffffffffffffffff168173ffffffffffffffffffffffffffffffffffffffff167f8be0079c531659141344cd1fd0a4f28419497f9722a3daafe3b4186f6b6457e060405160405180910390a35050565b600081519050919050565b7f4e487b7100000000000000000000000000000000000000000000000000000000600052604160045260246000fd5b7f4e487b7100000000000000000000000000000000000000000000000000000000600052602260045260246000fd5b6000600282049050600182168061032557607f821691505b602082108103610338576103376102de565b5b50919050565b60008190508160005260206000209050919050565b60006020601f8301049050919050565b600082821b905092915050565b6000600883026103a07fffffffffffffffffffffffffffffffffffffffffffffffffffffffffffffffff82610363565b6103aa8683610363565b95508019841693508086168417925050509392505050565b6000819050919050565b6000819050919050565b60006103f16103ec6103e7846103c2565b6103cc565b6103c2565b9050919050565b6000819050919050565b61040b836103d6565b61041f610417826103f8565b848454610370565b825550505050565b600090565b610434610427565b61043f818484610402565b505050565b5b818110156104635761045860008261042c565b600181019050610445565b5050565b601f8211156104a8576104798161033e565b61048284610353565b81016020851015610491578190505b6104a561049d85610353565b830182610444565b50505b505050565b600082821c905092915050565b60006104cb600019846008026104ad565b1980831691505092915050565b60006104e483836104ba565b9150826002028217905092915050565b6104fd826102a4565b67ffffffffffffffff811115610516576105156102af565b5b610520825461030d565b61052b828285610467565b600060209050601f83116001811461055e576000841561054c578287015190505b61055685826104d8565b8655506105be565b601f19841661056c8661033e565b60005b828110156105945784890151825560018201915060208501945060208101905061056f565b868310156105b157848901516105ad601f8916826104ba565b8355505b6001600288020188555050505b505050505050565b600073ffffffffffffffffffffffffffffffffffffffff82169050919050565b60006105f1826105c6565b9050919050565b610601816105e6565b82525050565b600060208201905061061c60008301846105f8565b92915050565b612d68806106316000396000f3fe608060405234801561001057600080fd5b50600436106101425760003560e01c806370a08231116100b85780639f181b5e1161007c5780639f181b5e1461039b578063a22cb465146103b9578063b88d4fde146103d5578063c87b56dd146103f1578063e985e9c514610421578063f2fde38b1461045157610142565b806370a08231146102f5578063715018a6146103255780637bd6a2041461032f5780638da5cb5b1461035f57806395d89b411461037d57610142565b806342842e0e1161010a57806342842e0e146101fd5780635b85ce53146102195780635de6dc55146102495780636352211e1461027957806368a596c7146102a9578063691562a0146102d957610142565b806301ffc9a71461014757806306fdde0314610177578063081812fc14610195578063095ea7b3146101c557806323b872dd146101e1575b600080fd5b610161600480360381019061015c9190611f6e565b61046d565b60405161016e9190611fb6565b60405180910390f35b61017f6104ce565b60405161018c9190612061565b60405180910390f35b6101af60048036038101906101aa91906120b9565b610560565b6040516101bc9190612127565b60405180910390f35b6101df60048036038101906101da919061216e565b61057c565b005b6101fb60048036038101906101f691906121ae565b610592565b005b610217600480360381019061021291906121ae565b610694565b005b610233600480360381019061022e9190612201565b6106b4565b604051610240919061233a565b60405180910390f35b610263600480360381019061025e9190612201565b61077b565b604051610270919061241a565b60405180910390f35b610293600480360381019061028e91906120b9565b610812565b6040516102a09190612127565b60405180910390f35b6102c360048036038101906102be919061216e565b610824565b6040516102d0919061244b565b60405180910390f35b6102f360048036038101906102ee919061249f565b610855565b005b61030f600480360381019061030a9190612201565b6109f9565b60405161031c919061244b565b60405180910390f35b61032d610ab3565b005b610349600480360381019061034491906124df565b610ac7565b6040516103569190612061565b60405180910390f35b610367610b67565b6040516103749190612127565b60405180910390f35b610385610b91565b6040516103929190612061565b60405180910390f35b6103a3610c23565b6040516103b0919061244b565b60405180910390f35b6103d360048036038101906103ce9190612538565b610c29565b005b6103ef60048036038101906103ea91906126ad565b610c3f565b005b61040b600480360381019061040691906120b9565b610c64565b6040516104189190612061565b60405180910390f35b61043b60048036038101906104369190612730565b610d77565b6040516104489190611fb6565b60405180910390f35b61046b60048036038101906104669190612201565b610e0b565b005b6000634906490660e01b7bffffffffffffffffffffffffffffffffffffffffffffffffffffffff1916827bffffffffffffffffffffffffffffffffffffffffffffffffffffffff191614806104c757506104c682610e91565b5b9050919050565b6060600080546104dd9061279f565b80601f01602080910402602001604051908101604052809291908181526020018280546105099061279f565b80156105565780601f1061052b57610100808354040283529160200191610556565b820191906000526020600020905b81548152906001019060200180831161053957829003601f168201915b5050505050905090565b600061056b82610f73565b5061057582610ffb565b9050919050565b61058e8282610589611038565b611040565b5050565b600073ffffffffffffffffffffffffffffffffffffffff168273ffffffffffffffffffffffffffffffffffffffff16036106045760006040517f64a0ae920000000000000000000000000000000000000000000000000000000081526004016105fb9190612127565b60405180910390fd5b60006106188383610613611038565b611052565b90508373ffffffffffffffffffffffffffffffffffffffff168173ffffffffffffffffffffffffffffffffffffffff161461068e578382826040517f64283d7b000000000000000000000000000000000000000000000000000000008152600401610685939291906127d0565b60405180910390fd5b50505050565b6106af83838360405180602001604052806000815250610c3f565b505050565b606060006106c18361077b565b90506000815167ffffffffffffffff8111156106e0576106df612582565b5b60405190808252806020026020018201604052801561071357816020015b60608152602001906001900390816106fe5790505b50905060005b82518110156107705761074583828151811061073857610737612807565b5b6020026020010151610c64565b82828151811061075857610757612807565b5b60200260200101819052508080600101915050610719565b508092505050919050565b6060600a60008373ffffffffffffffffffffffffffffffffffffffff1673ffffffffffffffffffffffffffffffffffffffff16815260200190815260200160002080548060200260200160405190810160405280929190818152602001828054801561080657602002820191906000526020600020905b8154815260200190600101908083116107f2575b50505050509050919050565b600061081d82610f73565b9050919050565b600a602052816000526040600020818154811061084057600080fd5b90600052602060002001600091509150505481565b61085d61126c565b60018160ff1610158015610875575060038160ff1611155b6108b4576040517f08c379a00000000000000000000000000000000000000000000000000000000081526004016108ab90612882565b60405180910390fd5b600860008154809291906108c7906128d1565b9190505550600060085490506000600960008460ff1660ff16815260200190815260200160002080546108f99061279f565b80601f01602080910402602001604051908101604052809291908181526020018280546109259061279f565b80156109725780601f1061094757610100808354040283529160200191610972565b820191906000526020600020905b81548152906001019060200180831161095557829003601f168201915b5050505050905061098384836112f3565b61098d8282611311565b600a60008573ffffffffffffffffffffffffffffffffffffffff1673ffffffffffffffffffffffffffffffffffffffff16815260200190815260200160002082908060018154018082558091505060019003906000526020600020016000909190919091505550505050565b60008073ffffffffffffffffffffffffffffffffffffffff168273ffffffffffffffffffffffffffffffffffffffff1603610a6c5760006040517f89c62b64000000000000000000000000000000000000000000000000000000008152600401610a639190612127565b60405180910390fd5b600360008373ffffffffffffffffffffffffffffffffffffffff1673ffffffffffffffffffffffffffffffffffffffff168152602001908152602001600020549050919050565b610abb61126c565b610ac5600061136d565b565b60096020528060005260406000206000915090508054610ae69061279f565b80601f0160208091040260200160405190810160405280929190818152602001828054610b129061279f565b8015610b5f5780601f10610b3457610100808354040283529160200191610b5f565b820191906000526020600020905b815481529060010190602001808311610b4257829003601f168201915b505050505081565b6000600760009054906101000a900473ffffffffffffffffffffffffffffffffffffffff16905090565b606060018054610ba09061279f565b80601f0160208091040260200160405190810160405280929190818152602001828054610bcc9061279f565b8015610c195780601f10610bee57610100808354040283529160200191610c19565b820191906000526020600020905b815481529060010190602001808311610bfc57829003601f168201915b5050505050905090565b60085481565b610c3b610c34611038565b8383611433565b5050565b610c4a848484610592565b610c5e610c55611038565b858585856115a2565b50505050565b6060610c6f82610f73565b506000600660008481526020019081526020016000208054610c909061279f565b80601f0160208091040260200160405190810160405280929190818152602001828054610cbc9061279f565b8015610d095780601f10610cde57610100808354040283529160200191610d09565b820191906000526020600020905b815481529060010190602001808311610cec57829003601f168201915b505050505090506000610d1a611753565b90506000815103610d2f578192505050610d72565b600082511115610d64578082604051602001610d4c929190612955565b60405160208183030381529060405292505050610d72565b610d6d8461176a565b925050505b919050565b6000600560008473ffffffffffffffffffffffffffffffffffffffff1673ffffffffffffffffffffffffffffffffffffffff16815260200190815260200160002060008373ffffffffffffffffffffffffffffffffffffffff1673ffffffffffffffffffffffffffffffffffffffff16815260200190815260200160002060009054906101000a900460ff16905092915050565b610e1361126c565b600073ffffffffffffffffffffffffffffffffffffffff168173ffffffffffffffffffffffffffffffffffffffff1603610e855760006040517f1e4fbdf7000000000000000000000000000000000000000000000000000000008152600401610e7c9190612127565b60405180910390fd5b610e8e8161136d565b50565b60007f80ac58cd000000000000000000000000000000000000000000000000000000007bffffffffffffffffffffffffffffffffffffffffffffffffffffffff1916827bffffffffffffffffffffffffffffffffffffffffffffffffffffffff19161480610f5c57507f5b5e139f000000000000000000000000000000000000000000000000000000007bffffffffffffffffffffffffffffffffffffffffffffffffffffffff1916827bffffffffffffffffffffffffffffffffffffffffffffffffffffffff1916145b80610f6c5750610f6b826117d3565b5b9050919050565b600080610f7f8361183d565b9050600073ffffffffffffffffffffffffffffffffffffffff168173ffffffffffffffffffffffffffffffffffffffff1603610ff257826040517f7e273289000000000000000000000000000000000000000000000000000000008152600401610fe9919061244b565b60405180910390fd5b80915050919050565b60006004600083815260200190815260200160002060009054906101000a900473ffffffffffffffffffffffffffffffffffffffff169050919050565b600033905090565b61104d838383600161187a565b505050565b60008061105e8461183d565b9050600073ffffffffffffffffffffffffffffffffffffffff168373ffffffffffffffffffffffffffffffffffffffff16146110a05761109f818486611a3f565b5b600073ffffffffffffffffffffffffffffffffffffffff168173ffffffffffffffffffffffffffffffffffffffff1614611131576110e260008560008061187a565b6001600360008373ffffffffffffffffffffffffffffffffffffffff1673ffffffffffffffffffffffffffffffffffffffff168152602001908152602001600020600082825403925050819055505b600073ffffffffffffffffffffffffffffffffffffffff168573ffffffffffffffffffffffffffffffffffffffff16146111b4576001600360008773ffffffffffffffffffffffffffffffffffffffff1673ffffffffffffffffffffffffffffffffffffffff168152602001908152602001600020600082825401925050819055505b846002600086815260200190815260200160002060006101000a81548173ffffffffffffffffffffffffffffffffffffffff021916908373ffffffffffffffffffffffffffffffffffffffff160217905550838573ffffffffffffffffffffffffffffffffffffffff168273ffffffffffffffffffffffffffffffffffffffff167fddf252ad1be2c89b69c2b068fc378daa952ba7f163c4a11628f55a4df523b3ef60405160405180910390a4809150509392505050565b611274611038565b73ffffffffffffffffffffffffffffffffffffffff16611292610b67565b73ffffffffffffffffffffffffffffffffffffffff16146112f1576112b5611038565b6040517f118cdaa70000000000000000000000000000000000000000000000000000000081526004016112e89190612127565b60405180910390fd5b565b61130d828260405180602001604052806000815250611b03565b5050565b806006600084815260200190815260200160002090816113319190612b25565b507ff8e1a15aba9398e019f0b49df1a4fde98ee17ae345cb5f6b5e2c27f5033e8ce782604051611361919061244b565b60405180910390a15050565b6000600760009054906101000a900473ffffffffffffffffffffffffffffffffffffffff16905081600760006101000a81548173ffffffffffffffffffffffffffffffffffffffff021916908373ffffffffffffffffffffffffffffffffffffffff1602179055508173ffffffffffffffffffffffffffffffffffffffff168173ffffffffffffffffffffffffffffffffffffffff167f8be0079c531659141344cd1fd0a4f28419497f9722a3daafe3b4186f6b6457e060405160405180910390a35050565b600073ffffffffffffffffffffffffffffffffffffffff168273ffffffffffffffffffffffffffffffffffffffff16036114a457816040517f5b08ba1800000000000000000000000000000000000000000000000000000000815260040161149b9190612127565b60405180910390fd5b80600560008573ffffffffffffffffffffffffffffffffffffffff1673ffffffffffffffffffffffffffffffffffffffff16815260200190815260200160002060008473ffffffffffffffffffffffffffffffffffffffff1673ffffffffffffffffffffffffffffffffffffffff16815260200190815260200160002060006101000a81548160ff0219169083151502179055508173ffffffffffffffffffffffffffffffffffffffff168373ffffffffffffffffffffffffffffffffffffffff167f17307eab39ab6107e8899845ad3d59bd9653f200f220920489ca2b5937696c31836040516115959190611fb6565b60405180910390a3505050565b60008373ffffffffffffffffffffffffffffffffffffffff163b111561174c578273ffffffffffffffffffffffffffffffffffffffff1663150b7a02868685856040518563ffffffff1660e01b81526004016116019493929190612c4c565b6020604051808303816000875af192505050801561163d57506040513d601f19601f8201168201806040525081019061163a9190612cad565b60015b6116c1573d806000811461166d576040519150601f19603f3d011682016040523d82523d6000602084013e611672565b606091505b5060008151036116b957836040517f64a0ae920000000000000000000000000000000000000000000000000000000081526004016116b09190612127565b60405180910390fd5b805181602001fd5b63150b7a0260e01b7bffffffffffffffffffffffffffffffffffffffffffffffffffffffff1916817bffffffffffffffffffffffffffffffffffffffffffffffffffffffff19161461174a57836040517f64a0ae920000000000000000000000000000000000000000000000000000000081526004016117419190612127565b60405180910390fd5b505b5050505050565b606060405180602001604052806000815250905090565b606061177582610f73565b506000611780611753565b905060008151116117a057604051806020016040528060008152506117cb565b806117aa84611b27565b6040516020016117bb929190612955565b6040516020818303038152906040525b915050919050565b60007f01ffc9a7000000000000000000000000000000000000000000000000000000007bffffffffffffffffffffffffffffffffffffffffffffffffffffffff1916827bffffffffffffffffffffffffffffffffffffffffffffffffffffffff1916149050919050565b60006002600083815260200190815260200160002060009054906101000a900473ffffffffffffffffffffffffffffffffffffffff169050919050565b80806118b35750600073ffffffffffffffffffffffffffffffffffffffff168273ffffffffffffffffffffffffffffffffffffffff1614155b156119e75760006118c384610f73565b9050600073ffffffffffffffffffffffffffffffffffffffff168373ffffffffffffffffffffffffffffffffffffffff161415801561192e57508273ffffffffffffffffffffffffffffffffffffffff168173ffffffffffffffffffffffffffffffffffffffff1614155b8015611941575061193f8184610d77565b155b1561198357826040517fa9fbf51f00000000000000000000000000000000000000000000000000000000815260040161197a9190612127565b60405180910390fd5b81156119e557838573ffffffffffffffffffffffffffffffffffffffff168273ffffffffffffffffffffffffffffffffffffffff167f8c5be1e5ebec7d5bd14f71427d1e84f3dd0314c0f7b2291e5b200ac8c7c3b92560405160405180910390a45b505b836004600085815260200190815260200160002060006101000a81548173ffffffffffffffffffffffffffffffffffffffff021916908373ffffffffffffffffffffffffffffffffffffffff16021790555050505050565b611a4a838383611bf5565b611afe57600073ffffffffffffffffffffffffffffffffffffffff168373ffffffffffffffffffffffffffffffffffffffff1603611abf57806040517f7e273289000000000000000000000000000000000000000000000000000000008152600401611ab6919061244b565b60405180910390fd5b81816040517f177e802f000000000000000000000000000000000000000000000000000000008152600401611af5929190612cda565b60405180910390fd5b505050565b611b0d8383611cb6565b611b22611b18611038565b60008585856115a2565b505050565b606060006001611b3684611daf565b01905060008167ffffffffffffffff811115611b5557611b54612582565b5b6040519080825280601f01601f191660200182016040528015611b875781602001600182028036833780820191505090505b509050600082602001820190505b600115611bea578080600190039150507f3031323334353637383961626364656600000000000000000000000000000000600a86061a8153600a8581611bde57611bdd612d03565b5b04945060008503611b95575b819350505050919050565b60008073ffffffffffffffffffffffffffffffffffffffff168373ffffffffffffffffffffffffffffffffffffffff1614158015611cad57508273ffffffffffffffffffffffffffffffffffffffff168473ffffffffffffffffffffffffffffffffffffffff161480611c6e5750611c6d8484610d77565b5b80611cac57508273ffffffffffffffffffffffffffffffffffffffff16611c9483610ffb565b73ffffffffffffffffffffffffffffffffffffffff16145b5b90509392505050565b600073ffffffffffffffffffffffffffffffffffffffff168273ffffffffffffffffffffffffffffffffffffffff1603611d285760006040517f64a0ae92000000000000000000000000000000000000000000000000000000008152600401611d1f9190612127565b60405180910390fd5b6000611d3683836000611052565b9050600073ffffffffffffffffffffffffffffffffffffffff168173ffffffffffffffffffffffffffffffffffffffff1614611daa5760006040517f73c6ac6e000000000000000000000000000000000000000000000000000000008152600401611da19190612127565b60405180910390fd5b505050565b600080600090507a184f03e93ff9f4daa797ed6e38ed64bf6a1f0100000000000000008310611e0d577a184f03e93ff9f4daa797ed6e38ed64bf6a1f0100000000000000008381611e0357611e02612d03565b5b0492506040810190505b6d04ee2d6d415b85acef81000000008310611e4a576d04ee2d6d415b85acef81000000008381611e4057611e3f612d03565b5b0492506020810190505b662386f26fc100008310611e7957662386f26fc100008381611e6f57611e6e612d03565b5b0492506010810190505b6305f5e1008310611ea2576305f5e1008381611e9857611e97612d03565b5b0492506008810190505b6127108310611ec7576127108381611ebd57611ebc612d03565b5b0492506004810190505b60648310611eea5760648381611ee057611edf612d03565b5b0492506002810190505b600a8310611ef9576001810190505b80915050919050565b6000604051905090565b600080fd5b600080fd5b60007fffffffff0000000000000000000000000000000000000000000000000000000082169050919050565b611f4b81611f16565b8114611f5657600080fd5b50565b600081359050611f6881611f42565b92915050565b600060208284031215611f8457611f83611f0c565b5b6000611f9284828501611f59565b91505092915050565b60008115159050919050565b611fb081611f9b565b82525050565b6000602082019050611fcb6000830184611fa7565b92915050565b600081519050919050565b600082825260208201905092915050565b60005b8381101561200b578082015181840152602081019050611ff0565b60008484015250505050565b6000601f19601f8301169050919050565b600061203382611fd1565b61203d8185611fdc565b935061204d818560208601611fed565b61205681612017565b840191505092915050565b6000602082019050818103600083015261207b8184612028565b905092915050565b6000819050919050565b61209681612083565b81146120a157600080fd5b50565b6000813590506120b38161208d565b92915050565b6000602082840312156120cf576120ce611f0c565b5b60006120dd848285016120a4565b91505092915050565b600073ffffffffffffffffffffffffffffffffffffffff82169050919050565b6000612111826120e6565b9050919050565b61212181612106565b82525050565b600060208201905061213c6000830184612118565b92915050565b61214b81612106565b811461215657600080fd5b50565b60008135905061216881612142565b92915050565b6000806040838503121561218557612184611f0c565b5b600061219385828601612159565b92505060206121a4858286016120a4565b9150509250929050565b6000806000606084860312156121c7576121c6611f0c565b5b60006121d586828701612159565b93505060206121e686828701612159565b92505060406121f7868287016120a4565b9150509250925092565b60006020828403121561221757612216611f0c565b5b600061222584828501612159565b91505092915050565b600081519050919050565b600082825260208201905092915050565b6000819050602082019050919050565b600082825260208201905092915050565b600061227682611fd1565b612280818561225a565b9350612290818560208601611fed565b61229981612017565b840191505092915050565b60006122b0838361226b565b905092915050565b6000602082019050919050565b60006122d08261222e565b6122da8185612239565b9350836020820285016122ec8561224a565b8060005b85811015612328578484038952815161230985826122a4565b9450612314836122b8565b925060208a019950506001810190506122f0565b50829750879550505050505092915050565b6000602082019050818103600083015261235481846122c5565b905092915050565b600081519050919050565b600082825260208201905092915050565b6000819050602082019050919050565b61239181612083565b82525050565b60006123a38383612388565b60208301905092915050565b6000602082019050919050565b60006123c78261235c565b6123d18185612367565b93506123dc83612378565b8060005b8381101561240d5781516123f48882612397565b97506123ff836123af565b9250506001810190506123e0565b5085935050505092915050565b6000602082019050818103600083015261243481846123bc565b905092915050565b61244581612083565b82525050565b6000602082019050612460600083018461243c565b92915050565b600060ff82169050919050565b61247c81612466565b811461248757600080fd5b50565b60008135905061249981612473565b92915050565b600080604083850312156124b6576124b5611f0c565b5b60006124c485828601612159565b92505060206124d58582860161248a565b9150509250929050565b6000602082840312156124f5576124f4611f0c565b5b60006125038482850161248a565b91505092915050565b61251581611f9b565b811461252057600080fd5b50565b6000813590506125328161250c565b92915050565b6000806040838503121561254f5761254e611f0c565b5b600061255d85828601612159565b925050602061256e85828601612523565b9150509250929050565b600080fd5b600080fd5b7f4e487b7100000000000000000000000000000000000000000000000000000000600052604160045260246000fd5b6125ba82612017565b810181811067ffffffffffffffff821117156125d9576125d8612582565b5b80604052505050565b60006125ec611f02565b90506125f882826125b1565b919050565b600067ffffffffffffffff82111561261857612617612582565b5b61262182612017565b9050602081019050919050565b82818337600083830152505050565b600061265061264b846125fd565b6125e2565b90508281526020810184848401111561266c5761266b61257d565b5b61267784828561262e565b509392505050565b600082601f83011261269457612693612578565b5b81356126a484826020860161263d565b91505092915050565b600080600080608085870312156126c7576126c6611f0c565b5b60006126d587828801612159565b94505060206126e687828801612159565b93505060406126f7878288016120a4565b925050606085013567ffffffffffffffff81111561271857612717611f11565b5b6127248782880161267f565b91505092959194509250565b6000806040838503121561274757612746611f0c565b5b600061275585828601612159565b925050602061276685828601612159565b9150509250929050565b7f4e487b7100000000000000000000000000000000000000000000000000000000600052602260045260246000fd5b600060028204905060018216806127b757607f821691505b6020821081036127ca576127c9612770565b5b50919050565b60006060820190506127e56000830186612118565b6127f2602083018561243c565b6127ff6040830184612118565b949350505050565b7f4e487b7100000000000000000000000000000000000000000000000000000000600052603260045260246000fd5b7f53636f7265206d757374206265206265747765656e203120616e642033000000600082015250565b600061286c601d83611fdc565b915061287782612836565b602082019050919050565b6000602082019050818103600083015261289b8161285f565b9050919050565b7f4e487b7100000000000000000000000000000000000000000000000000000000600052601160045260246000fd5b60006128dc82612083565b91507fffffffffffffffffffffffffffffffffffffffffffffffffffffffffffffffff820361290e5761290d6128a2565b5b600182019050919050565b600081905092915050565b600061292f82611fd1565b6129398185612919565b9350612949818560208601611fed565b80840191505092915050565b60006129618285612924565b915061296d8284612924565b91508190509392505050565b60008190508160005260206000209050919050565b60006020601f8301049050919050565b600082821b905092915050565b6000600883026129db7fffffffffffffffffffffffffffffffffffffffffffffffffffffffffffffffff8261299e565b6129e5868361299e565b95508019841693508086168417925050509392505050565b6000819050919050565b6000612a22612a1d612a1884612083565b6129fd565b612083565b9050919050565b6000819050919050565b612a3c83612a07565b612a50612a4882612a29565b8484546129ab565b825550505050565b600090565b612a65612a58565b612a70818484612a33565b505050565b5b81811015612a9457612a89600082612a5d565b600181019050612a76565b5050565b601f821115612ad957612aaa81612979565b612ab38461298e565b81016020851015612ac2578190505b612ad6612ace8561298e565b830182612a75565b50505b505050565b600082821c905092915050565b6000612afc60001984600802612ade565b1980831691505092915050565b6000612b158383612aeb565b9150826002028217905092915050565b612b2e82611fd1565b67ffffffffffffffff811115612b4757612b46612582565b5b612b51825461279f565b612b5c828285612a98565b600060209050601f831160018114612b8f5760008415612b7d578287015190505b612b878582612b09565b865550612bef565b601f198416612b9d86612979565b60005b82811015612bc557848901518255600182019150602085019450602081019050612ba0565b86831015612be25784890151612bde601f891682612aeb565b8355505b6001600288020188555050505b505050505050565b600081519050919050565b600082825260208201905092915050565b6000612c1e82612bf7565b612c288185612c02565b9350612c38818560208601611fed565b612c4181612017565b840191505092915050565b6000608082019050612c616000830187612118565b612c6e6020830186612118565b612c7b604083018561243c565b8181036060830152612c8d8184612c13565b905095945050505050565b600081519050612ca781611f42565b92915050565b600060208284031215612cc357612cc2611f0c565b5b6000612cd184828501612c98565b91505092915050565b6000604082019050612cef6000830185612118565b612cfc602083018461243c565b9392505050565b7f4e487b7100000000000000000000000000000000000000000000000000000000600052601260045260246000fdfea2646970667358221220f9689ef954fb99cc41d677c5192d6f46cbf221d554c98d79a6b9501a8085542864736f6c634300081b003368747470733a2f2f697066732e696f2f697066732f516d5a756456435a435771467932384e4235554267464154614b764a426b593533783537486a554744437973785a68747470733a2f2f697066732e696f2f697066732f516d50784d4476765532354d4b366d7a78526857707664547a56563845366d64616f45336d6336636a5a4772415a68747470733a2f2f697066732e696f2f697066732f516d5a37526d5673653653515354336677546879434d544d43354b633446446d7845615444576473437145474c58",
  "linkReferences": {},
  "deployedLinkReferences": {}
}