{
  "_format": "hh-sol-artifact-1",
  "contractName": "HiringContract",
  "sourceName": "contracts/HiringContract.sol",
  "abi": [
    {
      "inputs": [
        {
          "internalType": "address",
          "name": "_userRegistryAddress",
          "type": "address"
        },
        {
          "internalType": "address",
          "name": "_jobListingAddress",
          "type": "address"
        },
        {
          "internalType": "address",
          "name": "_reputationNFTAddress",
          "type": "address"
        }
      ],
      "stateMutability": "nonpayable",
      "type": "constructor"
    },
    {
      "inputs": [
        {
          "internalType": "address",
          "name": "owner",
          "type": "address"
        }
      ],
      "name": "OwnableInvalidOwner",
      "type": "error"
    },
    {
      "inputs": [
        {
          "internalType": "address",
          "name": "account",
          "type": "address"
        }
      ],
      "name": "OwnableUnauthorizedAccount",
      "type": "error"
    },
    {
      "inputs": [],
      "name": "ReentrancyGuardReentrantCall",
      "type": "error"
    },
    {
      "anonymous": false,
      "inputs": [
        {
          "indexed": true,
          "internalType": "uint256",
          "name": "agreementId",
          "type": "uint256"
        },
        {
          "indexed": false,
          "internalType": "address",
          "name": "approver",
          "type": "address"
        }
      ],
      "name": "AgreementApproved",
      "type": "event"
    },
    {
      "anonymous": false,
      "inputs": [
        {
          "indexed": true,
          "internalType": "uint256",
          "name": "agreementId",
          "type": "uint256"
        }
      ],
      "name": "AgreementCancelled",
      "type": "event"
    },
    {
      "anonymous": false,
      "inputs": [
        {
          "indexed": true,
          "internalType": "uint256",
          "name": "agreementId",
          "type": "uint256"
        },
        {
          "indexed": false,
          "internalType": "uint256",
          "name": "endDate",
          "type": "uint256"
        }
      ],
      "name": "AgreementCompleted",
      "type": "event"
    },
    {
      "anonymous": false,
      "inputs": [
        {
          "indexed": true,
          "internalType": "uint256",
          "name": "agreementId",
          "type": "uint256"
        },
        {
          "indexed": true,
          "internalType": "uint256",
          "name": "jobId",
          "type": "uint256"
        },
        {
          "indexed": false,
          "internalType": "address",
          "name": "employer",
          "type": "address"
        },
        {
          "indexed": false,
          "internalType": "address",
          "name": "caregiver",
          "type": "address"
        }
      ],
      "name": "AgreementCreated",
      "type": "event"
    },
    {
      "anonymous": false,
      "inputs": [
        {
          "indexed": true,
          "internalType": "uint256",
          "name": "agreementId",
          "type": "uint256"
        }
      ],
      "name": "AgreementDisputed",
      "type": "event"
    },
    {
      "anonymous": false,
      "inputs": [
        {
          "indexed": true,
          "internalType": "uint256",
          "name": "agreementId",
          "type": "uint256"
        },
        {
          "indexed": false,
          "internalType": "uint256",
          "name": "startDate",
          "type": "uint256"
        }
      ],
      "name": "AgreementStarted",
      "type": "event"
    },
    {
      "anonymous": false,
      "inputs": [
        {
          "indexed": true,
          "internalType": "address",
          "name": "previousOwner",
          "type": "address"
        },
        {
          "indexed": true,
          "internalType": "address",
          "name": "newOwner",
          "type": "address"
        }
      ],
      "name": "OwnershipTransferred",
      "type": "event"
    },
    {
      "inputs": [],
      "name": "agreementCounter",
      "outputs": [
        {
          "internalType": "uint256",
          "name": "",
          "type": "uint256"
        }
      ],
      "stateMutability": "view",
      "type": "function"
    },
    {
      "inputs": [
        {
          "internalType": "uint256",
          "name": "",
          "type": "uint256"
        }
      ],
      "name": "agreements",
      "outputs": [
        {
          "internalType": "uint256",
          "name": "jobId",
          "type": "uint256"
        },
        {
          "internalType": "address",
          "name": "employer",
          "type": "address"
        },
        {
          "internalType": "address",
          "name": "caregiver",
          "type": "address"
        },
        {
          "internalType": "uint256",
          "name": "salary",
          "type": "uint256"
        },
        {
          "internalType": "uint256",
          "name": "startDate",
          "type": "uint256"
        },
        {
          "internalType": "uint256",
          "name": "endDate",
          "type": "uint256"
        },
        {
          "internalType": "enum HiringContract.ContractStatus",
          "name": "status",
          "type": "uint8"
        },
        {
          "internalType": "bool",
          "name": "employerApproved",
          "type": "bool"
        },
        {
          "internalType": "bool",
          "name": "caregiverApproved",
          "type": "bool"
        }
      ],
      "stateMutability": "view",
      "type": "function"
    },
    {
      "inputs": [
        {
          "internalType": "uint256",
          "name": "_agreementId",
          "type": "uint256"
        }
      ],
      "name": "approveCaregiverAgreement",
      "outputs": [],
      "stateMutability": "nonpayable",
      "type": "function"
    },
    {
      "inputs": [
        {
          "internalType": "uint256",
          "name": "_agreementId",
          "type": "uint256"
        }
      ],
      "name": "cancelAgreement",
      "outputs": [],
      "stateMutability": "nonpayable",
      "type": "function"
    },
    {
      "inputs": [
        {
          "internalType": "uint256",
          "name": "_agreementId",
          "type": "uint256"
        },
        {
          "internalType": "uint8",
          "name": "_score",
          "type": "uint8"
        }
      ],
      "name": "completeAgreement",
      "outputs": [],
      "stateMutability": "nonpayable",
      "type": "function"
    },
    {
      "inputs": [
        {
          "internalType": "uint256",
          "name": "_jobId",
          "type": "uint256"
        },
        {
          "internalType": "address",
          "name": "_caregiver",
          "type": "address"
        }
      ],
      "name": "createAgreement",
      "outputs": [],
      "stateMutability": "nonpayable",
      "type": "function"
    },
    {
      "inputs": [
        {
          "internalType": "uint256",
          "name": "_agreementId",
          "type": "uint256"
        }
      ],
      "name": "disputeAgreement",
      "outputs": [],
      "stateMutability": "nonpayable",
      "type": "function"
    },
    {
      "inputs": [
        {
          "internalType": "uint256",
          "name": "_agreementId",
          "type": "uint256"
        }
      ],
      "name": "getAgreementDetails",
      "outputs": [
        {
          "internalType": "uint256",
          "name": "jobId",
          "type": "uint256"
        },
        {
          "internalType": "address",
          "name": "employer",
          "type": "address"
        },
        {
          "internalType": "address",
          "name": "caregiver",
          "type": "address"
        },
        {
          "internalType": "uint256",
          "name": "salary",
          "type": "uint256"
        },
        {
          "internalType": "uint256",
          "name": "startDate",
          "type": "uint256"
        },
        {
          "internalType": "uint256",
          "name": "endDate",
          "type": "uint256"
        },
        {
          "internalType": "enum HiringContract.ContractStatus",
          "name": "status",
          "type": "uint8"
        },
        {
          "internalType": "bool",
          "name": "employerApproved",
          "type": "bool"
        },
        {
          "internalType": "bool",
          "name": "caregiverApproved",
          "type": "bool"
        }
      ],
      "stateMutability": "view",
      "type": "function"
    },
    {
      "inputs": [],
      "name": "jobListing",
      "outputs": [
        {
          "internalType": "contract JobListing",
          "name": "",
          "type": "address"
        }
      ],
      "stateMutability": "view",
      "type": "function"
    },
    {
      "inputs": [],
      "name": "owner",
      "outputs": [
        {
          "internalType": "address",
          "name": "",
          "type": "address"
        }
      ],
      "stateMutability": "view",
      "type": "function"
    },
    {
      "inputs": [],
      "name": "renounceOwnership",
      "outputs": [],
      "stateMutability": "nonpayable",
      "type": "function"
    },
    {
      "inputs": [],
      "name": "reputationNFT",
      "outputs": [
        {
          "internalType": "contract ReputationNFT",
          "name": "",
          "type": "address"
        }
      ],
      "stateMutability": "view",
      "type": "function"
    },
    {
      "inputs": [
        {
          "internalType": "address",
          "name": "newOwner",
          "type": "address"
        }
      ],
      "name": "transferOwnership",
      "outputs": [],
      "stateMutability": "nonpayable",
      "type": "function"
    },
    {
      "inputs": [],
      "name": "userRegistry",
      "outputs": [
        {
          "internalType": "contract UserRegistry",
          "name": "",
          "type": "address"
        }
      ],
      "stateMutability": "view",
      "type": "function"
    }
  ],
  "bytecode": "0x608060405234801561001057600080fd5b50604051612736380380612736833981810160405281019061003291906102ae565b33600073ffffffffffffffffffffffffffffffffffffffff168173ffffffffffffffffffffffffffffffffffffffff16036100a55760006040517f1e4fbdf700000000000000000000000000000000000000000000000000000000815260040161009c9190610310565b60405180910390fd5b6100b48161018760201b60201c565b506001808190555082600260006101000a81548173ffffffffffffffffffffffffffffffffffffffff021916908373ffffffffffffffffffffffffffffffffffffffff16021790555081600360006101000a81548173ffffffffffffffffffffffffffffffffffffffff021916908373ffffffffffffffffffffffffffffffffffffffff16021790555080600460006101000a81548173ffffffffffffffffffffffffffffffffffffffff021916908373ffffffffffffffffffffffffffffffffffffffff16021790555050505061032b565b60008060009054906101000a900473ffffffffffffffffffffffffffffffffffffffff169050816000806101000a81548173ffffffffffffffffffffffffffffffffffffffff021916908373ffffffffffffffffffffffffffffffffffffffff1602179055508173ffffffffffffffffffffffffffffffffffffffff168173ffffffffffffffffffffffffffffffffffffffff167f8be0079c531659141344cd1fd0a4f28419497f9722a3daafe3b4186f6b6457e060405160405180910390a35050565b600080fd5b600073ffffffffffffffffffffffffffffffffffffffff82169050919050565b600061027b82610250565b9050919050565b61028b81610270565b811461029657600080fd5b50565b6000815190506102a881610282565b92915050565b6000806000606084860312156102c7576102c661024b565b5b60006102d586828701610299565b93505060206102e686828701610299565b92505060406102f786828701610299565b9150509250925092565b61030a81610270565b82525050565b60006020820190506103256000830184610301565b92915050565b6123fc8061033a6000396000f3fe608060405234801561001057600080fd5b50600436106100ea5760003560e01c8063b36f77531161008c578063cd0e7c7b11610066578063cd0e7c7b14610235578063f2fde38b14610251578063f797f96d1461026d578063fa48864914610289576100ea565b8063b36f7753146101a9578063b4d77da8146101e1578063bd14de96146101fd576100ea565b80635686b54b116100c85780635686b54b146101475780635c7460d614610163578063715018a6146101815780638da5cb5b1461018b576100ea565b8063138cc149146100ef57806314f79af71461010b578063268e172b14610129575b600080fd5b610109600480360381019061010491906116ed565b6102a7565b005b610113610593565b604051610120919061173c565b60405180910390f35b610131610599565b60405161013e91906117d6565b60405180910390f35b610161600480360381019061015c91906117f1565b6105bf565b005b61016b6107a8565b604051610178919061183f565b60405180910390f35b6101896107ce565b005b6101936107e2565b6040516101a0919061187b565b60405180910390f35b6101c360048036038101906101be91906117f1565b61080b565b6040516101d899989796959493929190611928565b60405180910390f35b6101fb60048036038101906101f691906117f1565b6108e3565b005b610217600480360381019061021291906117f1565b610acc565b60405161022c99989796959493929190611928565b60405180910390f35b61024f600480360381019061024a91906119e1565b610b81565b005b61026b60048036038101906102669190611a21565b611088565b005b610287600480360381019061028291906117f1565b61110e565b005b6102916112d3565b60405161029e9190611a6f565b60405180910390f35b6102af6112f9565b60018160ff16101580156102c7575060038160ff1611155b610306576040517f08c379a00000000000000000000000000000000000000000000000000000000081526004016102fd90611ae7565b60405180910390fd5b60006005600084815260200190815260200160002090503373ffffffffffffffffffffffffffffffffffffffff168160010160009054906101000a900473ffffffffffffffffffffffffffffffffffffffff1673ffffffffffffffffffffffffffffffffffffffff16146103af576040517f08c379a00000000000000000000000000000000000000000000000000000000081526004016103a690611b53565b60405180910390fd5b600160048111156103c3576103c2611896565b5b8160060160009054906101000a900460ff1660048111156103e7576103e6611896565b5b14610427576040517f08c379a000000000000000000000000000000000000000000000000000000000815260040161041e90611bbf565b60405180910390fd5b806005015442101561046e576040517f08c379a000000000000000000000000000000000000000000000000000000000815260040161046590611c2b565b60405180910390fd5b60028160060160006101000a81548160ff0219169083600481111561049657610495611896565b5b0217905550827f119fdec9845240669344b53de133f30643dcc182d75d04b3de2703a8e4845f2e426040516104cb919061173c565b60405180910390a2600460009054906101000a900473ffffffffffffffffffffffffffffffffffffffff1673ffffffffffffffffffffffffffffffffffffffff1663691562a08260020160009054906101000a900473ffffffffffffffffffffffffffffffffffffffff16846040518363ffffffff1660e01b8152600401610554929190611c5a565b600060405180830381600087803b15801561056e57600080fd5b505af1158015610582573d6000803e3d6000fd5b505050505061058f61133f565b5050565b60065481565b600360009054906101000a900473ffffffffffffffffffffffffffffffffffffffff1681565b6105c76112f9565b60006005600083815260200190815260200160002090503373ffffffffffffffffffffffffffffffffffffffff168160010160009054906101000a900473ffffffffffffffffffffffffffffffffffffffff1673ffffffffffffffffffffffffffffffffffffffff16148061068b57503373ffffffffffffffffffffffffffffffffffffffff168160020160009054906101000a900473ffffffffffffffffffffffffffffffffffffffff1673ffffffffffffffffffffffffffffffffffffffff16145b6106ca576040517f08c379a00000000000000000000000000000000000000000000000000000000081526004016106c190611ccf565b60405180910390fd5b600060048111156106de576106dd611896565b5b8160060160009054906101000a900460ff16600481111561070257610701611896565b5b14610742576040517f08c379a000000000000000000000000000000000000000000000000000000000815260040161073990611d3b565b60405180910390fd5b60048160060160006101000a81548160ff0219169083600481111561076a57610769611896565b5b0217905550817f0cae0523c4d6568388c55dcaeb921d927527a60000ca46adffedddf87225f0ec60405160405180910390a2506107a561133f565b50565b600260009054906101000a900473ffffffffffffffffffffffffffffffffffffffff1681565b6107d6611348565b6107e060006113cf565b565b60008060009054906101000a900473ffffffffffffffffffffffffffffffffffffffff16905090565b600080600080600080600080600080600560008c8152602001908152602001600020905080600001548160010160009054906101000a900473ffffffffffffffffffffffffffffffffffffffff168260020160009054906101000a900473ffffffffffffffffffffffffffffffffffffffff168360030154846004015485600501548660060160009054906101000a900460ff168760060160019054906101000a900460ff168860060160029054906101000a900460ff16995099509950995099509950995099509950509193959799909294969850565b6108eb6112f9565b60006005600083815260200190815260200160002090503373ffffffffffffffffffffffffffffffffffffffff168160010160009054906101000a900473ffffffffffffffffffffffffffffffffffffffff1673ffffffffffffffffffffffffffffffffffffffff1614806109af57503373ffffffffffffffffffffffffffffffffffffffff168160020160009054906101000a900473ffffffffffffffffffffffffffffffffffffffff1673ffffffffffffffffffffffffffffffffffffffff16145b6109ee576040517f08c379a00000000000000000000000000000000000000000000000000000000081526004016109e590611ccf565b60405180910390fd5b60016004811115610a0257610a01611896565b5b8160060160009054906101000a900460ff166004811115610a2657610a25611896565b5b14610a66576040517f08c379a0000000000000000000000000000000000000000000000000000000008152600401610a5d90611bbf565b60405180910390fd5b60038160060160006101000a81548160ff02191690836004811115610a8e57610a8d611896565b5b0217905550817fd06273dd3edad1b7b1f897e12f6a2eda5abf03347c0d222b7c7d2a4afff592b160405160405180910390a250610ac961133f565b50565b60056020528060005260406000206000915090508060000154908060010160009054906101000a900473ffffffffffffffffffffffffffffffffffffffff16908060020160009054906101000a900473ffffffffffffffffffffffffffffffffffffffff16908060030154908060040154908060050154908060060160009054906101000a900460ff16908060060160019054906101000a900460ff16908060060160029054906101000a900460ff16905089565b610b896112f9565b600260009054906101000a900473ffffffffffffffffffffffffffffffffffffffff1673ffffffffffffffffffffffffffffffffffffffff1663163f7522336040518263ffffffff1660e01b8152600401610be4919061187b565b602060405180830381865afa158015610c01573d6000803e3d6000fd5b505050506040513d601f19601f82011682018060405250810190610c259190611d87565b610c64576040517f08c379a0000000000000000000000000000000000000000000000000000000008152600401610c5b90611e00565b60405180910390fd5b600260009054906101000a900473ffffffffffffffffffffffffffffffffffffffff1673ffffffffffffffffffffffffffffffffffffffff1663163f7522826040518263ffffffff1660e01b8152600401610cbf919061187b565b602060405180830381865afa158015610cdc573d6000803e3d6000fd5b505050506040513d601f19601f82011682018060405250810190610d009190611d87565b610d3f576040517f08c379a0000000000000000000000000000000000000000000000000000000008152600401610d3690611e6c565b60405180910390fd5b6000806000600360009054906101000a900473ffffffffffffffffffffffffffffffffffffffff1673ffffffffffffffffffffffffffffffffffffffff16634cac35c6866040518263ffffffff1660e01b8152600401610d9f919061173c565b600060405180830381865afa158015610dbc573d6000803e3d6000fd5b505050506040513d6000823e3d601f19601f82011682018060405250810190610de5919061203c565b50505094509450505092503373ffffffffffffffffffffffffffffffffffffffff168373ffffffffffffffffffffffffffffffffffffffff1614610e5e576040517f08c379a0000000000000000000000000000000000000000000000000000000008152600401610e5590612192565b60405180910390fd5b600060066000815480929190610e73906121e1565b9190505590506040518061012001604052808781526020013373ffffffffffffffffffffffffffffffffffffffff1681526020018673ffffffffffffffffffffffffffffffffffffffff168152602001838152602001600081526020016000815260200160006004811115610eeb57610eea611896565b5b815260200160011515815260200160001515815250600560008381526020019081526020016000206000820151816000015560208201518160010160006101000a81548173ffffffffffffffffffffffffffffffffffffffff021916908373ffffffffffffffffffffffffffffffffffffffff16021790555060408201518160020160006101000a81548173ffffffffffffffffffffffffffffffffffffffff021916908373ffffffffffffffffffffffffffffffffffffffff160217905550606082015181600301556080820151816004015560a0820151816005015560c08201518160060160006101000a81548160ff02191690836004811115610ff457610ff3611896565b5b021790555060e08201518160060160016101000a81548160ff0219169083151502179055506101008201518160060160026101000a81548160ff02191690831515021790555090505085817fbccc93ea525c74213effe313cf29be12baa866b0a54b80532bfa465876a177453388604051611070929190612229565b60405180910390a35050505061108461133f565b5050565b611090611348565b600073ffffffffffffffffffffffffffffffffffffffff168173ffffffffffffffffffffffffffffffffffffffff16036111025760006040517f1e4fbdf70000000000000000000000000000000000000000000000000000000081526004016110f9919061187b565b60405180910390fd5b61110b816113cf565b50565b6111166112f9565b60006005600083815260200190815260200160002090503373ffffffffffffffffffffffffffffffffffffffff168160020160009054906101000a900473ffffffffffffffffffffffffffffffffffffffff1673ffffffffffffffffffffffffffffffffffffffff16146111bf576040517f08c379a00000000000000000000000000000000000000000000000000000000081526004016111b69061229e565b60405180910390fd5b600060048111156111d3576111d2611896565b5b8160060160009054906101000a900460ff1660048111156111f7576111f6611896565b5b14611237576040517f08c379a000000000000000000000000000000000000000000000000000000000815260040161122e90611bbf565b60405180910390fd5b60018160060160026101000a81548160ff021916908315150217905550817f2353c9223da0323aa10e0911bb4a410728f9096aeb150a064cc2a93d923dbd6c33604051611284919061187b565b60405180910390a28060060160019054906101000a900460ff1680156112b857508060060160029054906101000a900460ff165b156112c7576112c682611493565b5b506112d061133f565b50565b600460009054906101000a900473ffffffffffffffffffffffffffffffffffffffff1681565b600260015403611335576040517f3ee5aeb500000000000000000000000000000000000000000000000000000000815260040160405180910390fd5b6002600181905550565b60018081905550565b611350611662565b73ffffffffffffffffffffffffffffffffffffffff1661136e6107e2565b73ffffffffffffffffffffffffffffffffffffffff16146113cd57611391611662565b6040517f118cdaa70000000000000000000000000000000000000000000000000000000081526004016113c4919061187b565b60405180910390fd5b565b60008060009054906101000a900473ffffffffffffffffffffffffffffffffffffffff169050816000806101000a81548173ffffffffffffffffffffffffffffffffffffffff021916908373ffffffffffffffffffffffffffffffffffffffff1602179055508173ffffffffffffffffffffffffffffffffffffffff168173ffffffffffffffffffffffffffffffffffffffff167f8be0079c531659141344cd1fd0a4f28419497f9722a3daafe3b4186f6b6457e060405160405180910390a35050565b60006005600083815260200190815260200160002090508060060160019054906101000a900460ff1680156114d657508060060160029054906101000a900460ff165b611515576040517f08c379a000000000000000000000000000000000000000000000000000000000815260040161150c90612330565b60405180910390fd5b4281600401819055506000600360009054906101000a900473ffffffffffffffffffffffffffffffffffffffff1673ffffffffffffffffffffffffffffffffffffffff16634cac35c683600001546040518263ffffffff1660e01b815260040161157f919061173c565b600060405180830381865afa15801561159c573d6000803e3d6000fd5b505050506040513d6000823e3d601f19601f820116820180604052508101906115c5919061203c565b50505050935050505062015180816115dd9190612350565b82600401546115ec9190612392565b826005018190555060018260060160006101000a81548160ff0219169083600481111561161c5761161b611896565b5b0217905550827f80bd74b6851dc3d4178e0d0fe27c2e3a2c8e34e2a369bfc2406776e79239ad8b8360040154604051611655919061173c565b60405180910390a2505050565b600033905090565b6000604051905090565b600080fd5b600080fd5b6000819050919050565b6116918161167e565b811461169c57600080fd5b50565b6000813590506116ae81611688565b92915050565b600060ff82169050919050565b6116ca816116b4565b81146116d557600080fd5b50565b6000813590506116e7816116c1565b92915050565b6000806040838503121561170457611703611674565b5b60006117128582860161169f565b9250506020611723858286016116d8565b9150509250929050565b6117368161167e565b82525050565b6000602082019050611751600083018461172d565b92915050565b600073ffffffffffffffffffffffffffffffffffffffff82169050919050565b6000819050919050565b600061179c61179761179284611757565b611777565b611757565b9050919050565b60006117ae82611781565b9050919050565b60006117c0826117a3565b9050919050565b6117d0816117b5565b82525050565b60006020820190506117eb60008301846117c7565b92915050565b60006020828403121561180757611806611674565b5b60006118158482850161169f565b91505092915050565b6000611829826117a3565b9050919050565b6118398161181e565b82525050565b60006020820190506118546000830184611830565b92915050565b600061186582611757565b9050919050565b6118758161185a565b82525050565b6000602082019050611890600083018461186c565b92915050565b7f4e487b7100000000000000000000000000000000000000000000000000000000600052602160045260246000fd5b600581106118d6576118d5611896565b5b50565b60008190506118e7826118c5565b919050565b60006118f7826118d9565b9050919050565b611907816118ec565b82525050565b60008115159050919050565b6119228161190d565b82525050565b60006101208201905061193e600083018c61172d565b61194b602083018b61186c565b611958604083018a61186c565b611965606083018961172d565b611972608083018861172d565b61197f60a083018761172d565b61198c60c08301866118fe565b61199960e0830185611919565b6119a7610100830184611919565b9a9950505050505050505050565b6119be8161185a565b81146119c957600080fd5b50565b6000813590506119db816119b5565b92915050565b600080604083850312156119f8576119f7611674565b5b6000611a068582860161169f565b9250506020611a17858286016119cc565b9150509250929050565b600060208284031215611a3757611a36611674565b5b6000611a45848285016119cc565b91505092915050565b6000611a59826117a3565b9050919050565b611a6981611a4e565b82525050565b6000602082019050611a846000830184611a60565b92915050565b600082825260208201905092915050565b7f53636f7265206d757374206265206265747765656e203120616e642033000000600082015250565b6000611ad1601d83611a8a565b9150611adc82611a9b565b602082019050919050565b60006020820190508181036000830152611b0081611ac4565b9050919050565b7f4e6f742074686520656d706c6f79657200000000000000000000000000000000600082015250565b6000611b3d601083611a8a565b9150611b4882611b07565b602082019050919050565b60006020820190508181036000830152611b6c81611b30565b9050919050565b7f496e76616c69642061677265656d656e74207374617475730000000000000000600082015250565b6000611ba9601883611a8a565b9150611bb482611b73565b602082019050919050565b60006020820190508181036000830152611bd881611b9c565b9050919050565b7f41677265656d656e74206e6f742079657420656e646564000000000000000000600082015250565b6000611c15601783611a8a565b9150611c2082611bdf565b602082019050919050565b60006020820190508181036000830152611c4481611c08565b9050919050565b611c54816116b4565b82525050565b6000604082019050611c6f600083018561186c565b611c7c6020830184611c4b565b9392505050565b7f4e6f74206120706172747920746f207468652061677265656d656e7400000000600082015250565b6000611cb9601c83611a8a565b9150611cc482611c83565b602082019050919050565b60006020820190508181036000830152611ce881611cac565b9050919050565b7f43616e6e6f742063616e63656c206163746976652061677265656d656e740000600082015250565b6000611d25601e83611a8a565b9150611d3082611cef565b602082019050919050565b60006020820190508181036000830152611d5481611d18565b9050919050565b611d648161190d565b8114611d6f57600080fd5b50565b600081519050611d8181611d5b565b92915050565b600060208284031215611d9d57611d9c611674565b5b6000611dab84828501611d72565b91505092915050565b7f456d706c6f796572206e6f742072656769737465726564000000000000000000600082015250565b6000611dea601783611a8a565b9150611df582611db4565b602082019050919050565b60006020820190508181036000830152611e1981611ddd565b9050919050565b7f436172656769766572206e6f7420726567697374657265640000000000000000600082015250565b6000611e56601883611a8a565b9150611e6182611e20565b602082019050919050565b60006020820190508181036000830152611e8581611e49565b9050919050565b600081519050611e9b816119b5565b92915050565b600080fd5b600080fd5b6000601f19601f8301169050919050565b7f4e487b7100000000000000000000000000000000000000000000000000000000600052604160045260246000fd5b611ef482611eab565b810181811067ffffffffffffffff82111715611f1357611f12611ebc565b5b80604052505050565b6000611f2661166a565b9050611f328282611eeb565b919050565b600067ffffffffffffffff821115611f5257611f51611ebc565b5b611f5b82611eab565b9050602081019050919050565b60005b83811015611f86578082015181840152602081019050611f6b565b60008484015250505050565b6000611fa5611fa084611f37565b611f1c565b905082815260208101848484011115611fc157611fc0611ea6565b5b611fcc848285611f68565b509392505050565b600082601f830112611fe957611fe8611ea1565b5b8151611ff9848260208601611f92565b91505092915050565b60008151905061201181611688565b92915050565b6003811061202457600080fd5b50565b60008151905061203681612017565b92915050565b600080600080600080600080610100898b03121561205d5761205c611674565b5b600061206b8b828c01611e8c565b985050602089015167ffffffffffffffff81111561208c5761208b611679565b5b6120988b828c01611fd4565b975050604089015167ffffffffffffffff8111156120b9576120b8611679565b5b6120c58b828c01611fd4565b96505060606120d68b828c01612002565b95505060806120e78b828c01612002565b94505060a089015167ffffffffffffffff81111561210857612107611679565b5b6121148b828c01611fd4565b93505060c06121258b828c01612027565b92505060e06121368b828c01612002565b9150509295985092959890939650565b7f4e6f7420746865206a6f62206f776e6572000000000000000000000000000000600082015250565b600061217c601183611a8a565b915061218782612146565b602082019050919050565b600060208201905081810360008301526121ab8161216f565b9050919050565b7f4e487b7100000000000000000000000000000000000000000000000000000000600052601160045260246000fd5b60006121ec8261167e565b91507fffffffffffffffffffffffffffffffffffffffffffffffffffffffffffffffff820361221e5761221d6121b2565b5b600182019050919050565b600060408201905061223e600083018561186c565b61224b602083018461186c565b9392505050565b7f4e6f742074686520636172656769766572000000000000000000000000000000600082015250565b6000612288601183611a8a565b915061229382612252565b602082019050919050565b600060208201905081810360008301526122b78161227b565b9050919050565b7f41677265656d656e74206e6f7420617070726f76656420627920626f7468207060008201527f6172746965730000000000000000000000000000000000000000000000000000602082015250565b600061231a602683611a8a565b9150612325826122be565b604082019050919050565b600060208201905081810360008301526123498161230d565b9050919050565b600061235b8261167e565b91506123668361167e565b92508282026123748161167e565b9150828204841483151761238b5761238a6121b2565b5b5092915050565b600061239d8261167e565b91506123a88361167e565b92508282019050808211156123c0576123bf6121b2565b5b9291505056fea2646970667358221220c4d3d2e4cbd0ed6ce28085dabbb79dda29e71dacc90d6db4edc3c1ef18e9309a64736f6c634300081b0033",
  "linkReferences": {},
  "deployedLinkReferences": {}
}