{
  "_format": "hh-sol-artifact-1",
  "contractName": "UserRegistry",
  "sourceName": "contracts/UserRegistry.sol",
  "abi": [
    {
      "inputs": [],
      "stateMutability": "nonpayable",
      "type": "constructor"
    },
    {
      "inputs": [],
      "name": "EnforcedPause",
      "type": "error"
    },
    {
      "inputs": [],
      "name": "ExpectedPause",
      "type": "error"
    },
    {
      "inputs": [
        {
          "internalType": "address",
          "name": "owner",
          "type": "address"
        }
      ],
      "name": "OwnableInvalidOwner",
      "type": "error"
    },
    {
      "inputs": [
        {
          "internalType": "address",
          "name": "account",
          "type": "address"
        }
      ],
      "name": "OwnableUnauthorizedAccount",
      "type": "error"
    },
    {
      "anonymous": false,
      "inputs": [
        {
          "indexed": true,
          "internalType": "address",
          "name": "previousOwner",
          "type": "address"
        },
        {
          "indexed": true,
          "internalType": "address",
          "name": "newOwner",
          "type": "address"
        }
      ],
      "name": "OwnershipTransferred",
      "type": "event"
    },
    {
      "anonymous": false,
      "inputs": [
        {
          "indexed": false,
          "internalType": "address",
          "name": "account",
          "type": "address"
        }
      ],
      "name": "Paused",
      "type": "event"
    },
    {
      "anonymous": false,
      "inputs": [
        {
          "indexed": false,
          "internalType": "address",
          "name": "account",
          "type": "address"
        }
      ],
      "name": "Unpaused",
      "type": "event"
    },
    {
      "anonymous": false,
      "inputs": [
        {
          "indexed": true,
          "internalType": "address",
          "name": "user",
          "type": "address"
        },
        {
          "indexed": false,
          "internalType": "string",
          "name": "name",
          "type": "string"
        },
        {
          "indexed": false,
          "internalType": "string",
          "name": "surname",
          "type": "string"
        },
        {
          "indexed": false,
          "internalType": "string",
          "name": "country",
          "type": "string"
        },
        {
          "indexed": false,
          "internalType": "string",
          "name": "city",
          "type": "string"
        },
        {
          "indexed": false,
          "internalType": "string",
          "name": "nationality",
          "type": "string"
        },
        {
          "indexed": false,
          "internalType": "uint256",
          "name": "birthdate",
          "type": "uint256"
        },
        {
          "indexed": false,
          "internalType": "string",
          "name": "email",
          "type": "string"
        },
        {
          "indexed": false,
          "internalType": "string",
          "name": "phone",
          "type": "string"
        },
        {
          "indexed": false,
          "internalType": "string",
          "name": "description",
          "type": "string"
        },
        {
          "indexed": false,
          "internalType": "address",
          "name": "walletAddress",
          "type": "address"
        },
        {
          "indexed": false,
          "internalType": "bytes32",
          "name": "passwordHash",
          "type": "bytes32"
        }
      ],
      "name": "UserProfileCreated",
      "type": "event"
    },
    {
      "anonymous": false,
      "inputs": [
        {
          "indexed": true,
          "internalType": "address",
          "name": "user",
          "type": "address"
        },
        {
          "indexed": false,
          "internalType": "string",
          "name": "name",
          "type": "string"
        },
        {
          "indexed": false,
          "internalType": "string",
          "name": "surname",
          "type": "string"
        },
        {
          "indexed": false,
          "internalType": "string",
          "name": "country",
          "type": "string"
        },
        {
          "indexed": false,
          "internalType": "string",
          "name": "city",
          "type": "string"
        },
        {
          "indexed": false,
          "internalType": "string",
          "name": "nationality",
          "type": "string"
        },
        {
          "indexed": false,
          "internalType": "uint256",
          "name": "birthdate",
          "type": "uint256"
        },
        {
          "indexed": false,
          "internalType": "string",
          "name": "email",
          "type": "string"
        },
        {
          "indexed": false,
          "internalType": "string",
          "name": "phone",
          "type": "string"
        },
        {
          "indexed": false,
          "internalType": "string",
          "name": "description",
          "type": "string"
        },
        {
          "indexed": false,
          "internalType": "address",
          "name": "walletAddress",
          "type": "address"
        }
      ],
      "name": "UserProfileUpdated",
      "type": "event"
    },
    {
      "inputs": [
        {
          "internalType": "string",
          "name": "email",
          "type": "string"
        }
      ],
      "name": "getAddressByEmail",
      "outputs": [
        {
          "internalType": "address",
          "name": "",
          "type": "address"
        }
      ],
      "stateMutability": "view",
      "type": "function"
    },
    {
      "inputs": [],
      "name": "getAllUsers",
      "outputs": [
        {
          "internalType": "address[]",
          "name": "",
          "type": "address[]"
        }
      ],
      "stateMutability": "view",
      "type": "function"
    },
    {
      "inputs": [
        {
          "internalType": "address",
          "name": "_user",
          "type": "address"
        }
      ],
      "name": "getUserProfile",
      "outputs": [
        {
          "internalType": "string",
          "name": "name",
          "type": "string"
        },
        {
          "internalType": "string",
          "name": "surname",
          "type": "string"
        },
        {
          "internalType": "string",
          "name": "country",
          "type": "string"
        },
        {
          "internalType": "string",
          "name": "city",
          "type": "string"
        },
        {
          "internalType": "string",
          "name": "nationality",
          "type": "string"
        },
        {
          "internalType": "uint256",
          "name": "birthdate",
          "type": "uint256"
        },
        {
          "internalType": "string",
          "name": "email",
          "type": "string"
        },
        {
          "internalType": "string",
          "name": "phone",
          "type": "string"
        },
        {
          "internalType": "string",
          "name": "description",
          "type": "string"
        },
        {
          "internalType": "address",
          "name": "walletAddress",
          "type": "address"
        }
      ],
      "stateMutability": "view",
      "type": "function"
    },
    {
      "inputs": [
        {
          "internalType": "address",
          "name": "_userAddress",
          "type": "address"
        }
      ],
      "name": "isUserRegistered",
      "outputs": [
        {
          "internalType": "bool",
          "name": "",
          "type": "bool"
        }
      ],
      "stateMutability": "view",
      "type": "function"
    },
    {
      "inputs": [],
      "name": "owner",
      "outputs": [
        {
          "internalType": "address",
          "name": "",
          "type": "address"
        }
      ],
      "stateMutability": "view",
      "type": "function"
    },
    {
      "inputs": [],
      "name": "pause",
      "outputs": [],
      "stateMutability": "nonpayable",
      "type": "function"
    },
    {
      "inputs": [],
      "name": "paused",
      "outputs": [
        {
          "internalType": "bool",
          "name": "",
          "type": "bool"
        }
      ],
      "stateMutability": "view",
      "type": "function"
    },
    {
      "inputs": [
        {
          "internalType": "string",
          "name": "_name",
          "type": "string"
        },
        {
          "internalType": "string",
          "name": "_surname",
          "type": "string"
        },
        {
          "internalType": "string",
          "name": "_country",
          "type": "string"
        },
        {
          "internalType": "string",
          "name": "_city",
          "type": "string"
        },
        {
          "internalType": "string",
          "name": "_nationality",
          "type": "string"
        },
        {
          "internalType": "uint256",
          "name": "_birthdate",
          "type": "uint256"
        },
        {
          "internalType": "string",
          "name": "_email",
          "type": "string"
        },
        {
          "internalType": "string",
          "name": "_phone",
          "type": "string"
        },
        {
          "internalType": "string",
          "name": "_description",
          "type": "string"
        },
        {
          "internalType": "address",
          "name": "_walletAddress",
          "type": "address"
        },
        {
          "internalType": "bytes32",
          "name": "_passwordHash",
          "type": "bytes32"
        }
      ],
      "name": "registerUser",
      "outputs": [],
      "stateMutability": "nonpayable",
      "type": "function"
    },
    {
      "inputs": [
        {
          "internalType": "uint256",
          "name": "",
          "type": "uint256"
        }
      ],
      "name": "registeredUsers",
      "outputs": [
        {
          "internalType": "address",
          "name": "",
          "type": "address"
        }
      ],
      "stateMutability": "view",
      "type": "function"
    },
    {
      "inputs": [],
      "name": "renounceOwnership",
      "outputs": [],
      "stateMutability": "nonpayable",
      "type": "function"
    },
    {
      "inputs": [
        {
          "internalType": "address",
          "name": "newOwner",
          "type": "address"
        }
      ],
      "name": "transferOwnership",
      "outputs": [],
      "stateMutability": "nonpayable",
      "type": "function"
    },
    {
      "inputs": [],
      "name": "unpause",
      "outputs": [],
      "stateMutability": "nonpayable",
      "type": "function"
    },
    {
      "inputs": [
        {
          "internalType": "address",
          "name": "",
          "type": "address"
        }
      ],
      "name": "userProfiles",
      "outputs": [
        {
          "internalType": "string",
          "name": "name",
          "type": "string"
        },
        {
          "internalType": "string",
          "name": "surname",
          "type": "string"
        },
        {
          "internalType": "string",
          "name": "country",
          "type": "string"
        },
        {
          "internalType": "string",
          "name": "city",
          "type": "string"
        },
        {
          "internalType": "string",
          "name": "nationality",
          "type": "string"
        },
        {
          "internalType": "uint256",
          "name": "birthdate",
          "type": "uint256"
        },
        {
          "internalType": "string",
          "name": "email",
          "type": "string"
        },
        {
          "internalType": "string",
          "name": "phone",
          "type": "string"
        },
        {
          "internalType": "string",
          "name": "description",
          "type": "string"
        },
        {
          "internalType": "address",
          "name": "walletAddress",
          "type": "address"
        },
        {
          "internalType": "bytes32",
          "name": "passwordHash",
          "type": "bytes32"
        },
        {
          "internalType": "bool",
          "name": "isRegistered",
          "type": "bool"
        }
      ],
      "stateMutability": "view",
      "type": "function"
    }
  ],
  "bytecode": "0x608060405234801561001057600080fd5b5033600073ffffffffffffffffffffffffffffffffffffffff168173ffffffffffffffffffffffffffffffffffffffff16036100845760006040517f1e4fbdf700000000000000000000000000000000000000000000000000000000815260040161007b91906101b8565b60405180910390fd5b610093816100b360201b60201c565b5060008060146101000a81548160ff0219169083151502179055506101d3565b60008060009054906101000a900473ffffffffffffffffffffffffffffffffffffffff169050816000806101000a81548173ffffffffffffffffffffffffffffffffffffffff021916908373ffffffffffffffffffffffffffffffffffffffff1602179055508173ffffffffffffffffffffffffffffffffffffffff168173ffffffffffffffffffffffffffffffffffffffff167f8be0079c531659141344cd1fd0a4f28419497f9722a3daafe3b4186f6b6457e060405160405180910390a35050565b600073ffffffffffffffffffffffffffffffffffffffff82169050919050565b60006101a282610177565b9050919050565b6101b281610197565b82525050565b60006020820190506101cd60008301846101a9565b92915050565b6123e5806101e26000396000f3fe608060405234801561001057600080fd5b50600436106100cf5760003560e01c80638456cb591161008c578063c5caea0111610066578063c5caea0114610202578063e2842d7914610232578063f2fde38b14610250578063ff4f3e831461026c576100cf565b80638456cb59146101a15780638da5cb5b146101ab578063987ee156146101c9576100cf565b8063163f7522146100d4578063332d56d7146101045780633f4ba83a1461013f5780635c975abb14610149578063715018a6146101675780637259e0f814610171575b600080fd5b6100ee60048036038101906100e9919061168b565b610288565b6040516100fb91906116d3565b60405180910390f35b61011e6004803603810190610119919061168b565b6102e1565b6040516101369c9b9a999897969594939291906117bf565b60405180910390f35b6101476107ae565b005b6101516107c0565b60405161015e91906116d3565b60405180910390f35b61016f6107d6565b005b61018b600480360381019061018691906118dd565b6107ea565b604051610198919061190a565b60405180910390f35b6101a9610829565b005b6101b361083b565b6040516101c0919061190a565b60405180910390f35b6101e360048036038101906101de919061168b565b610864565b6040516101f99a99989796959493929190611925565b60405180910390f35b61021c60048036038101906102179190611b2e565b610dd4565b604051610229919061190a565b60405180910390f35b61023a610e1c565b6040516102479190611c35565b60405180910390f35b61026a6004803603810190610265919061168b565b610eaa565b005b61028660048036038101906102819190611c83565b610f30565b005b6000600160008373ffffffffffffffffffffffffffffffffffffffff1673ffffffffffffffffffffffffffffffffffffffff168152602001908152602001600020600b0160009054906101000a900460ff169050919050565b600160205280600052604060002060009150905080600001805461030490611e86565b80601f016020809104026020016040519081016040528092919081815260200182805461033090611e86565b801561037d5780601f106103525761010080835404028352916020019161037d565b820191906000526020600020905b81548152906001019060200180831161036057829003601f168201915b50505050509080600101805461039290611e86565b80601f01602080910402602001604051908101604052809291908181526020018280546103be90611e86565b801561040b5780601f106103e05761010080835404028352916020019161040b565b820191906000526020600020905b8154815290600101906020018083116103ee57829003601f168201915b50505050509080600201805461042090611e86565b80601f016020809104026020016040519081016040528092919081815260200182805461044c90611e86565b80156104995780601f1061046e57610100808354040283529160200191610499565b820191906000526020600020905b81548152906001019060200180831161047c57829003601f168201915b5050505050908060030180546104ae90611e86565b80601f01602080910402602001604051908101604052809291908181526020018280546104da90611e86565b80156105275780601f106104fc57610100808354040283529160200191610527565b820191906000526020600020905b81548152906001019060200180831161050a57829003601f168201915b50505050509080600401805461053c90611e86565b80601f016020809104026020016040519081016040528092919081815260200182805461056890611e86565b80156105b55780601f1061058a576101008083540402835291602001916105b5565b820191906000526020600020905b81548152906001019060200180831161059857829003601f168201915b5050505050908060050154908060060180546105d090611e86565b80601f01602080910402602001604051908101604052809291908181526020018280546105fc90611e86565b80156106495780601f1061061e57610100808354040283529160200191610649565b820191906000526020600020905b81548152906001019060200180831161062c57829003601f168201915b50505050509080600701805461065e90611e86565b80601f016020809104026020016040519081016040528092919081815260200182805461068a90611e86565b80156106d75780601f106106ac576101008083540402835291602001916106d7565b820191906000526020600020905b8154815290600101906020018083116106ba57829003601f168201915b5050505050908060080180546106ec90611e86565b80601f016020809104026020016040519081016040528092919081815260200182805461071890611e86565b80156107655780601f1061073a57610100808354040283529160200191610765565b820191906000526020600020905b81548152906001019060200180831161074857829003601f168201915b5050505050908060090160009054906101000a900473ffffffffffffffffffffffffffffffffffffffff169080600a01549080600b0160009054906101000a900460ff1690508c565b6107b6611380565b6107be611407565b565b60008060149054906101000a900460ff16905090565b6107de611380565b6107e86000611469565b565b600281815481106107fa57600080fd5b906000526020600020016000915054906101000a900473ffffffffffffffffffffffffffffffffffffffff1681565b610831611380565b61083961152d565b565b60008060009054906101000a900473ffffffffffffffffffffffffffffffffffffffff16905090565b606080606080606060006060806060600080600160008d73ffffffffffffffffffffffffffffffffffffffff1673ffffffffffffffffffffffffffffffffffffffff168152602001908152602001600020905080600b0160009054906101000a900460ff16610908576040517f08c379a00000000000000000000000000000000000000000000000000000000081526004016108ff90611f03565b60405180910390fd5b806000018160010182600201836003018460040185600501548660060187600701886008018960090160009054906101000a900473ffffffffffffffffffffffffffffffffffffffff1689805461095e90611e86565b80601f016020809104026020016040519081016040528092919081815260200182805461098a90611e86565b80156109d75780601f106109ac576101008083540402835291602001916109d7565b820191906000526020600020905b8154815290600101906020018083116109ba57829003601f168201915b505050505099508880546109ea90611e86565b80601f0160208091040260200160405190810160405280929190818152602001828054610a1690611e86565b8015610a635780601f10610a3857610100808354040283529160200191610a63565b820191906000526020600020905b815481529060010190602001808311610a4657829003601f168201915b50505050509850878054610a7690611e86565b80601f0160208091040260200160405190810160405280929190818152602001828054610aa290611e86565b8015610aef5780601f10610ac457610100808354040283529160200191610aef565b820191906000526020600020905b815481529060010190602001808311610ad257829003601f168201915b50505050509750868054610b0290611e86565b80601f0160208091040260200160405190810160405280929190818152602001828054610b2e90611e86565b8015610b7b5780601f10610b5057610100808354040283529160200191610b7b565b820191906000526020600020905b815481529060010190602001808311610b5e57829003601f168201915b50505050509650858054610b8e90611e86565b80601f0160208091040260200160405190810160405280929190818152602001828054610bba90611e86565b8015610c075780601f10610bdc57610100808354040283529160200191610c07565b820191906000526020600020905b815481529060010190602001808311610bea57829003601f168201915b50505050509550838054610c1a90611e86565b80601f0160208091040260200160405190810160405280929190818152602001828054610c4690611e86565b8015610c935780601f10610c6857610100808354040283529160200191610c93565b820191906000526020600020905b815481529060010190602001808311610c7657829003601f168201915b50505050509350828054610ca690611e86565b80601f0160208091040260200160405190810160405280929190818152602001828054610cd290611e86565b8015610d1f5780601f10610cf457610100808354040283529160200191610d1f565b820191906000526020600020905b815481529060010190602001808311610d0257829003601f168201915b50505050509250818054610d3290611e86565b80601f0160208091040260200160405190810160405280929190818152602001828054610d5e90611e86565b8015610dab5780601f10610d8057610100808354040283529160200191610dab565b820191906000526020600020905b815481529060010190602001808311610d8e57829003601f168201915b505050505091509a509a509a509a509a509a509a509a509a509a50509193959799509193959799565b6000600382604051610de69190611f5f565b908152602001604051809103902060009054906101000a900473ffffffffffffffffffffffffffffffffffffffff169050919050565b60606002805480602002602001604051908101604052809291908181526020018280548015610ea057602002820191906000526020600020905b8160009054906101000a900473ffffffffffffffffffffffffffffffffffffffff1673ffffffffffffffffffffffffffffffffffffffff1681526020019060010190808311610e56575b5050505050905090565b610eb2611380565b600073ffffffffffffffffffffffffffffffffffffffff168173ffffffffffffffffffffffffffffffffffffffff1603610f245760006040517f1e4fbdf7000000000000000000000000000000000000000000000000000000008152600401610f1b919061190a565b60405180910390fd5b610f2d81611469565b50565b610f38611590565b600160008373ffffffffffffffffffffffffffffffffffffffff1673ffffffffffffffffffffffffffffffffffffffff168152602001908152602001600020600b0160009054906101000a900460ff1615610fc8576040517f08c379a0000000000000000000000000000000000000000000000000000000008152600401610fbf90611fc2565b60405180910390fd5b600073ffffffffffffffffffffffffffffffffffffffff16600386604051610ff09190611f5f565b908152602001604051809103902060009054906101000a900473ffffffffffffffffffffffffffffffffffffffff1673ffffffffffffffffffffffffffffffffffffffff1614611075576040517f08c379a000000000000000000000000000000000000000000000000000000000815260040161106c9061202e565b60405180910390fd5b6040518061018001604052808c81526020018b81526020018a81526020018981526020018881526020018781526020018681526020018581526020018481526020018373ffffffffffffffffffffffffffffffffffffffff16815260200182815260200160011515815250600160008473ffffffffffffffffffffffffffffffffffffffff1673ffffffffffffffffffffffffffffffffffffffff168152602001908152602001600020600082015181600001908161113491906121fa565b50602082015181600101908161114a91906121fa565b50604082015181600201908161116091906121fa565b50606082015181600301908161117691906121fa565b50608082015181600401908161118c91906121fa565b5060a0820151816005015560c08201518160060190816111ac91906121fa565b5060e08201518160070190816111c291906121fa565b506101008201518160080190816111d991906121fa565b506101208201518160090160006101000a81548173ffffffffffffffffffffffffffffffffffffffff021916908373ffffffffffffffffffffffffffffffffffffffff16021790555061014082015181600a015561016082015181600b0160006101000a81548160ff021916908315150217905550905050816003866040516112629190611f5f565b908152602001604051809103902060006101000a81548173ffffffffffffffffffffffffffffffffffffffff021916908373ffffffffffffffffffffffffffffffffffffffff1602179055506002829080600181540180825580915050600190039060005260206000200160009091909190916101000a81548173ffffffffffffffffffffffffffffffffffffffff021916908373ffffffffffffffffffffffffffffffffffffffff1602179055508173ffffffffffffffffffffffffffffffffffffffff167f9e6ff03212b2dc14fb246c203af8695a781b330294e94954c0cdb48fa832b56a8c8c8c8c8c8c8c8c8c8c8c60405161136b9b9a999897969594939291906122cc565b60405180910390a25050505050505050505050565b6113886115d1565b73ffffffffffffffffffffffffffffffffffffffff166113a661083b565b73ffffffffffffffffffffffffffffffffffffffff1614611405576113c96115d1565b6040517f118cdaa70000000000000000000000000000000000000000000000000000000081526004016113fc919061190a565b60405180910390fd5b565b61140f6115d9565b60008060146101000a81548160ff0219169083151502179055507f5db9ee0a495bf2e6ff9c91a7834c1ba4fdd244a5e8aa4e537bd38aeae4b073aa6114526115d1565b60405161145f919061190a565b60405180910390a1565b60008060009054906101000a900473ffffffffffffffffffffffffffffffffffffffff169050816000806101000a81548173ffffffffffffffffffffffffffffffffffffffff021916908373ffffffffffffffffffffffffffffffffffffffff1602179055508173ffffffffffffffffffffffffffffffffffffffff168173ffffffffffffffffffffffffffffffffffffffff167f8be0079c531659141344cd1fd0a4f28419497f9722a3daafe3b4186f6b6457e060405160405180910390a35050565b611535611590565b6001600060146101000a81548160ff0219169083151502179055507f62e78cea01bee320cd4e420270b5ea74000d11b0c9f74754ebdbfc544b05a2586115796115d1565b604051611586919061190a565b60405180910390a1565b6115986107c0565b156115cf576040517fd93c066500000000000000000000000000000000000000000000000000000000815260040160405180910390fd5b565b600033905090565b6115e16107c0565b611617576040517f8dfc202b00000000000000000000000000000000000000000000000000000000815260040160405180910390fd5b565b6000604051905090565b600080fd5b600080fd5b600073ffffffffffffffffffffffffffffffffffffffff82169050919050565b60006116588261162d565b9050919050565b6116688161164d565b811461167357600080fd5b50565b6000813590506116858161165f565b92915050565b6000602082840312156116a1576116a0611623565b5b60006116af84828501611676565b91505092915050565b60008115159050919050565b6116cd816116b8565b82525050565b60006020820190506116e860008301846116c4565b92915050565b600081519050919050565b600082825260208201905092915050565b60005b8381101561172857808201518184015260208101905061170d565b60008484015250505050565b6000601f19601f8301169050919050565b6000611750826116ee565b61175a81856116f9565b935061176a81856020860161170a565b61177381611734565b840191505092915050565b6000819050919050565b6117918161177e565b82525050565b6117a08161164d565b82525050565b6000819050919050565b6117b9816117a6565b82525050565b60006101808201905081810360008301526117da818f611745565b905081810360208301526117ee818e611745565b90508181036040830152611802818d611745565b90508181036060830152611816818c611745565b9050818103608083015261182a818b611745565b905061183960a083018a611788565b81810360c083015261184b8189611745565b905081810360e083015261185f8188611745565b90508181036101008301526118748187611745565b9050611884610120830186611797565b6118926101408301856117b0565b6118a06101608301846116c4565b9d9c50505050505050505050505050565b6118ba8161177e565b81146118c557600080fd5b50565b6000813590506118d7816118b1565b92915050565b6000602082840312156118f3576118f2611623565b5b6000611901848285016118c8565b91505092915050565b600060208201905061191f6000830184611797565b92915050565b6000610140820190508181036000830152611940818d611745565b90508181036020830152611954818c611745565b90508181036040830152611968818b611745565b9050818103606083015261197c818a611745565b905081810360808301526119908189611745565b905061199f60a0830188611788565b81810360c08301526119b18187611745565b905081810360e08301526119c58186611745565b90508181036101008301526119da8185611745565b90506119ea610120830184611797565b9b9a5050505050505050505050565b600080fd5b600080fd5b7f4e487b7100000000000000000000000000000000000000000000000000000000600052604160045260246000fd5b611a3b82611734565b810181811067ffffffffffffffff82111715611a5a57611a59611a03565b5b80604052505050565b6000611a6d611619565b9050611a798282611a32565b919050565b600067ffffffffffffffff821115611a9957611a98611a03565b5b611aa282611734565b9050602081019050919050565b82818337600083830152505050565b6000611ad1611acc84611a7e565b611a63565b905082815260208101848484011115611aed57611aec6119fe565b5b611af8848285611aaf565b509392505050565b600082601f830112611b1557611b146119f9565b5b8135611b25848260208601611abe565b91505092915050565b600060208284031215611b4457611b43611623565b5b600082013567ffffffffffffffff811115611b6257611b61611628565b5b611b6e84828501611b00565b91505092915050565b600081519050919050565b600082825260208201905092915050565b6000819050602082019050919050565b611bac8161164d565b82525050565b6000611bbe8383611ba3565b60208301905092915050565b6000602082019050919050565b6000611be282611b77565b611bec8185611b82565b9350611bf783611b93565b8060005b83811015611c28578151611c0f8882611bb2565b9750611c1a83611bca565b925050600181019050611bfb565b5085935050505092915050565b60006020820190508181036000830152611c4f8184611bd7565b905092915050565b611c60816117a6565b8114611c6b57600080fd5b50565b600081359050611c7d81611c57565b92915050565b60008060008060008060008060008060006101608c8e031215611ca957611ca8611623565b5b60008c013567ffffffffffffffff811115611cc757611cc6611628565b5b611cd38e828f01611b00565b9b505060208c013567ffffffffffffffff811115611cf457611cf3611628565b5b611d008e828f01611b00565b9a505060408c013567ffffffffffffffff811115611d2157611d20611628565b5b611d2d8e828f01611b00565b99505060608c013567ffffffffffffffff811115611d4e57611d4d611628565b5b611d5a8e828f01611b00565b98505060808c013567ffffffffffffffff811115611d7b57611d7a611628565b5b611d878e828f01611b00565b97505060a0611d988e828f016118c8565b96505060c08c013567ffffffffffffffff811115611db957611db8611628565b5b611dc58e828f01611b00565b95505060e08c013567ffffffffffffffff811115611de657611de5611628565b5b611df28e828f01611b00565b9450506101008c013567ffffffffffffffff811115611e1457611e13611628565b5b611e208e828f01611b00565b935050610120611e328e828f01611676565b925050610140611e448e828f01611c6e565b9150509295989b509295989b9093969950565b7f4e487b7100000000000000000000000000000000000000000000000000000000600052602260045260246000fd5b60006002820490506001821680611e9e57607f821691505b602082108103611eb157611eb0611e57565b5b50919050565b7f55736572206e6f74207265676973746572656400000000000000000000000000600082015250565b6000611eed6013836116f9565b9150611ef882611eb7565b602082019050919050565b60006020820190508181036000830152611f1c81611ee0565b9050919050565b600081905092915050565b6000611f39826116ee565b611f438185611f23565b9350611f5381856020860161170a565b80840191505092915050565b6000611f6b8284611f2e565b915081905092915050565b7f5573657220616c72656164792072656769737465726564000000000000000000600082015250565b6000611fac6017836116f9565b9150611fb782611f76565b602082019050919050565b60006020820190508181036000830152611fdb81611f9f565b9050919050565b7f456d61696c20616c726561647920696e20757365000000000000000000000000600082015250565b60006120186014836116f9565b915061202382611fe2565b602082019050919050565b600060208201905081810360008301526120478161200b565b9050919050565b60008190508160005260206000209050919050565b60006020601f8301049050919050565b600082821b905092915050565b6000600883026120b07fffffffffffffffffffffffffffffffffffffffffffffffffffffffffffffffff82612073565b6120ba8683612073565b95508019841693508086168417925050509392505050565b6000819050919050565b60006120f76120f26120ed8461177e565b6120d2565b61177e565b9050919050565b6000819050919050565b612111836120dc565b61212561211d826120fe565b848454612080565b825550505050565b600090565b61213a61212d565b612145818484612108565b505050565b5b818110156121695761215e600082612132565b60018101905061214b565b5050565b601f8211156121ae5761217f8161204e565b61218884612063565b81016020851015612197578190505b6121ab6121a385612063565b83018261214a565b50505b505050565b600082821c905092915050565b60006121d1600019846008026121b3565b1980831691505092915050565b60006121ea83836121c0565b9150826002028217905092915050565b612203826116ee565b67ffffffffffffffff81111561221c5761221b611a03565b5b6122268254611e86565b61223182828561216d565b600060209050601f8311600181146122645760008415612252578287015190505b61225c85826121de565b8655506122c4565b601f1984166122728661204e565b60005b8281101561229a57848901518255600182019150602085019450602081019050612275565b868310156122b757848901516122b3601f8916826121c0565b8355505b6001600288020188555050505b505050505050565b60006101608201905081810360008301526122e7818e611745565b905081810360208301526122fb818d611745565b9050818103604083015261230f818c611745565b90508181036060830152612323818b611745565b90508181036080830152612337818a611745565b905061234660a0830189611788565b81810360c08301526123588188611745565b905081810360e083015261236c8187611745565b90508181036101008301526123818186611745565b9050612391610120830185611797565b61239f6101408301846117b0565b9c9b50505050505050505050505056fea264697066735822122096018758a14f677afbdec895719c0d731ba2306024618d66d8e047546b9099ab64736f6c634300081b0033",
  "linkReferences": {},
  "deployedLinkReferences": {}
}