{
  "_format": "hh-sol-artifact-1",
  "contractName": "JobListing",
  "sourceName": "contracts/JobListing.sol",
  "abi": [
    {
      "inputs": [
        {
          "internalType": "address",
          "name": "_userRegistryAddress",
          "type": "address"
        }
      ],
      "stateMutability": "nonpayable",
      "type": "constructor"
    },
    {
      "inputs": [
        {
          "internalType": "address",
          "name": "owner",
          "type": "address"
        }
      ],
      "name": "OwnableInvalidOwner",
      "type": "error"
    },
    {
      "inputs": [
        {
          "internalType": "address",
          "name": "account",
          "type": "address"
        }
      ],
      "name": "OwnableUnauthorizedAccount",
      "type": "error"
    },
    {
      "inputs": [],
      "name": "ReentrancyGuardReentrantCall",
      "type": "error"
    },
    {
      "anonymous": false,
      "inputs": [
        {
          "indexed": true,
          "internalType": "uint256",
          "name": "jobId",
          "type": "uint256"
        },
        {
          "indexed": true,
          "internalType": "address",
          "name": "applicant",
          "type": "address"
        }
      ],
      "name": "JobApplicationSubmitted",
      "type": "event"
    },
    {
      "anonymous": false,
      "inputs": [
        {
          "indexed": true,
          "internalType": "uint256",
          "name": "jobId",
          "type": "uint256"
        },
        {
          "indexed": true,
          "internalType": "address",
          "name": "employer",
          "type": "address"
        }
      ],
      "name": "JobCreated",
      "type": "event"
    },
    {
      "anonymous": false,
      "inputs": [
        {
          "indexed": true,
          "internalType": "uint256",
          "name": "jobId",
          "type": "uint256"
        },
        {
          "indexed": false,
          "internalType": "enum JobListing.JobStatus",
          "name": "status",
          "type": "uint8"
        }
      ],
      "name": "JobUpdated",
      "type": "event"
    },
    {
      "anonymous": false,
      "inputs": [
        {
          "indexed": true,
          "internalType": "address",
          "name": "previousOwner",
          "type": "address"
        },
        {
          "indexed": true,
          "internalType": "address",
          "name": "newOwner",
          "type": "address"
        }
      ],
      "name": "OwnershipTransferred",
      "type": "event"
    },
    {
      "inputs": [
        {
          "internalType": "uint256",
          "name": "_jobId",
          "type": "uint256"
        }
      ],
      "name": "applyForJob",
      "outputs": [],
      "stateMutability": "nonpayable",
      "type": "function"
    },
    {
      "inputs": [
        {
          "internalType": "string",
          "name": "_title",
          "type": "string"
        },
        {
          "internalType": "string",
          "name": "_description",
          "type": "string"
        },
        {
          "internalType": "uint256",
          "name": "_duration",
          "type": "uint256"
        },
        {
          "internalType": "uint256",
          "name": "_salary",
          "type": "uint256"
        },
        {
          "internalType": "string",
          "name": "_paymentTerms",
          "type": "string"
        }
      ],
      "name": "createJob",
      "outputs": [],
      "stateMutability": "nonpayable",
      "type": "function"
    },
    {
      "inputs": [
        {
          "internalType": "uint256",
          "name": "_jobId",
          "type": "uint256"
        }
      ],
      "name": "getJobApplicants",
      "outputs": [
        {
          "internalType": "address[]",
          "name": "",
          "type": "address[]"
        }
      ],
      "stateMutability": "view",
      "type": "function"
    },
    {
      "inputs": [],
      "name": "getJobCount",
      "outputs": [
        {
          "internalType": "uint256",
          "name": "",
          "type": "uint256"
        }
      ],
      "stateMutability": "view",
      "type": "function"
    },
    {
      "inputs": [
        {
          "internalType": "uint256",
          "name": "_jobId",
          "type": "uint256"
        }
      ],
      "name": "getJobDetails",
      "outputs": [
        {
          "internalType": "address",
          "name": "employer",
          "type": "address"
        },
        {
          "internalType": "string",
          "name": "title",
          "type": "string"
        },
        {
          "internalType": "string",
          "name": "description",
          "type": "string"
        },
        {
          "internalType": "uint256",
          "name": "duration",
          "type": "uint256"
        },
        {
          "internalType": "uint256",
          "name": "salary",
          "type": "uint256"
        },
        {
          "internalType": "string",
          "name": "paymentTerms",
          "type": "string"
        },
        {
          "internalType": "enum JobListing.JobStatus",
          "name": "status",
          "type": "uint8"
        },
        {
          "internalType": "uint256",
          "name": "createdAt",
          "type": "uint256"
        }
      ],
      "stateMutability": "view",
      "type": "function"
    },
    {
      "inputs": [
        {
          "internalType": "uint256",
          "name": "",
          "type": "uint256"
        },
        {
          "internalType": "uint256",
          "name": "",
          "type": "uint256"
        }
      ],
      "name": "jobApplicants",
      "outputs": [
        {
          "internalType": "address",
          "name": "",
          "type": "address"
        }
      ],
      "stateMutability": "view",
      "type": "function"
    },
    {
      "inputs": [
        {
          "internalType": "uint256",
          "name": "",
          "type": "uint256"
        }
      ],
      "name": "jobs",
      "outputs": [
        {
          "internalType": "address",
          "name": "employer",
          "type": "address"
        },
        {
          "internalType": "string",
          "name": "title",
          "type": "string"
        },
        {
          "internalType": "string",
          "name": "description",
          "type": "string"
        },
        {
          "internalType": "uint256",
          "name": "duration",
          "type": "uint256"
        },
        {
          "internalType": "uint256",
          "name": "salary",
          "type": "uint256"
        },
        {
          "internalType": "string",
          "name": "paymentTerms",
          "type": "string"
        },
        {
          "internalType": "enum JobListing.JobStatus",
          "name": "status",
          "type": "uint8"
        },
        {
          "internalType": "uint256",
          "name": "createdAt",
          "type": "uint256"
        }
      ],
      "stateMutability": "view",
      "type": "function"
    },
    {
      "inputs": [],
      "name": "owner",
      "outputs": [
        {
          "internalType": "address",
          "name": "",
          "type": "address"
        }
      ],
      "stateMutability": "view",
      "type": "function"
    },
    {
      "inputs": [],
      "name": "renounceOwnership",
      "outputs": [],
      "stateMutability": "nonpayable",
      "type": "function"
    },
    {
      "inputs": [
        {
          "internalType": "address",
          "name": "newOwner",
          "type": "address"
        }
      ],
      "name": "transferOwnership",
      "outputs": [],
      "stateMutability": "nonpayable",
      "type": "function"
    },
    {
      "inputs": [
        {
          "internalType": "uint256",
          "name": "_jobId",
          "type": "uint256"
        },
        {
          "internalType": "enum JobListing.JobStatus",
          "name": "_status",
          "type": "uint8"
        }
      ],
      "name": "updateJobStatus",
      "outputs": [],
      "stateMutability": "nonpayable",
      "type": "function"
    },
    {
      "inputs": [],
      "name": "userRegistry",
      "outputs": [
        {
          "internalType": "contract UserRegistry",
          "name": "",
          "type": "address"
        }
      ],
      "stateMutability": "view",
      "type": "function"
    }
  ],
  "bytecode": "0x608060405234801561001057600080fd5b5060405161206f38038061206f8339818101604052810190610032919061022a565b33600073ffffffffffffffffffffffffffffffffffffffff168173ffffffffffffffffffffffffffffffffffffffff16036100a55760006040517f1e4fbdf700000000000000000000000000000000000000000000000000000000815260040161009c9190610266565b60405180910390fd5b6100b48161010360201b60201c565b506001808190555080600260006101000a81548173ffffffffffffffffffffffffffffffffffffffff021916908373ffffffffffffffffffffffffffffffffffffffff16021790555050610281565b60008060009054906101000a900473ffffffffffffffffffffffffffffffffffffffff169050816000806101000a81548173ffffffffffffffffffffffffffffffffffffffff021916908373ffffffffffffffffffffffffffffffffffffffff1602179055508173ffffffffffffffffffffffffffffffffffffffff168173ffffffffffffffffffffffffffffffffffffffff167f8be0079c531659141344cd1fd0a4f28419497f9722a3daafe3b4186f6b6457e060405160405180910390a35050565b600080fd5b600073ffffffffffffffffffffffffffffffffffffffff82169050919050565b60006101f7826101cc565b9050919050565b610207816101ec565b811461021257600080fd5b50565b600081519050610224816101fe565b92915050565b6000602082840312156102405761023f6101c7565b5b600061024e84828501610215565b91505092915050565b610260816101ec565b82525050565b600060208201905061027b6000830184610257565b92915050565b611ddf806102906000396000f3fe608060405234801561001057600080fd5b50600436106100b45760003560e01c8063b02b4a2f11610071578063b02b4a2f1461019d578063cbc368a8146101bb578063e0c94ae5146101d7578063e0d6a872146101f3578063f2b67e7d1461020f578063f2fde38b1461023f576100b4565b806304f801a0146100b9578063180aedf3146100e95780634cac35c6146101205780635c7460d614610157578063715018a6146101755780638da5cb5b1461017f575b600080fd5b6100d360048036038101906100ce91906111cd565b61025b565b6040516100e091906112ea565b60405180910390f35b61010360048036038101906100fe91906111cd565b610343565b604051610117989796959493929190611431565b60405180910390f35b61013a600480360381019061013591906111cd565b610560565b60405161014e989796959493929190611431565b60405180910390f35b61015f6107ec565b60405161016c9190611523565b60405180910390f35b61017d610812565b005b610187610826565b604051610194919061153e565b60405180910390f35b6101a561084f565b6040516101b29190611559565b60405180910390f35b6101d560048036038101906101d09190611599565b61085c565b005b6101f160048036038101906101ec91906111cd565b6109df565b005b61020d6004803603810190610208919061170e565b610c65565b005b610229600480360381019061022491906117dd565b610f0d565b604051610236919061153e565b60405180910390f35b61025960048036038101906102549190611849565b610f5b565b005b606060038054905082106102a4576040517f08c379a000000000000000000000000000000000000000000000000000000000815260040161029b906118c2565b60405180910390fd5b6004600083815260200190815260200160002080548060200260200160405190810160405280929190818152602001828054801561033757602002820191906000526020600020905b8160009054906101000a900473ffffffffffffffffffffffffffffffffffffffff1673ffffffffffffffffffffffffffffffffffffffff16815260200190600101908083116102ed575b50505050509050919050565b6003818154811061035357600080fd5b90600052602060002090600802016000915090508060000160009054906101000a900473ffffffffffffffffffffffffffffffffffffffff169080600101805461039c90611911565b80601f01602080910402602001604051908101604052809291908181526020018280546103c890611911565b80156104155780601f106103ea57610100808354040283529160200191610415565b820191906000526020600020905b8154815290600101906020018083116103f857829003601f168201915b50505050509080600201805461042a90611911565b80601f016020809104026020016040519081016040528092919081815260200182805461045690611911565b80156104a35780601f10610478576101008083540402835291602001916104a3565b820191906000526020600020905b81548152906001019060200180831161048657829003601f168201915b5050505050908060030154908060040154908060050180546104c490611911565b80601f01602080910402602001604051908101604052809291908181526020018280546104f090611911565b801561053d5780601f106105125761010080835404028352916020019161053d565b820191906000526020600020905b81548152906001019060200180831161052057829003601f168201915b5050505050908060060160009054906101000a900460ff16908060070154905088565b6000606080600080606060008060038054905089106105b4576040517f08c379a00000000000000000000000000000000000000000000000000000000081526004016105ab906118c2565b60405180910390fd5b600060038a815481106105ca576105c9611942565b5b906000526020600020906008020190508060000160009054906101000a900473ffffffffffffffffffffffffffffffffffffffff16816001018260020183600301548460040154856005018660060160009054906101000a900460ff16876007015486805461063890611911565b80601f016020809104026020016040519081016040528092919081815260200182805461066490611911565b80156106b15780601f10610686576101008083540402835291602001916106b1565b820191906000526020600020905b81548152906001019060200180831161069457829003601f168201915b505050505096508580546106c490611911565b80601f01602080910402602001604051908101604052809291908181526020018280546106f090611911565b801561073d5780601f106107125761010080835404028352916020019161073d565b820191906000526020600020905b81548152906001019060200180831161072057829003601f168201915b5050505050955082805461075090611911565b80601f016020809104026020016040519081016040528092919081815260200182805461077c90611911565b80156107c95780601f1061079e576101008083540402835291602001916107c9565b820191906000526020600020905b8154815290600101906020018083116107ac57829003601f168201915b505050505092509850985098509850985098509850985050919395975091939597565b600260009054906101000a900473ffffffffffffffffffffffffffffffffffffffff1681565b61081a610fe1565b6108246000611068565b565b60008060009054906101000a900473ffffffffffffffffffffffffffffffffffffffff16905090565b6000600380549050905090565b60038054905082106108a3576040517f08c379a000000000000000000000000000000000000000000000000000000000815260040161089a906118c2565b60405180910390fd5b3373ffffffffffffffffffffffffffffffffffffffff16600383815481106108ce576108cd611942565b5b906000526020600020906008020160000160009054906101000a900473ffffffffffffffffffffffffffffffffffffffff1673ffffffffffffffffffffffffffffffffffffffff1614610956576040517f08c379a000000000000000000000000000000000000000000000000000000000815260040161094d906119bd565b60405180910390fd5b806003838154811061096b5761096a611942565b5b906000526020600020906008020160060160006101000a81548160ff0219169083600281111561099e5761099d6113ba565b5b0217905550817fb17f281799264da36ce0121b71ef89948a9e0f0e7ee16a7a0eb2e0efec3565f0826040516109d391906119dd565b60405180910390a25050565b6109e761112c565b6003805490508110610a2e576040517f08c379a0000000000000000000000000000000000000000000000000000000008152600401610a25906118c2565b60405180910390fd5b60006002811115610a4257610a416113ba565b5b60038281548110610a5657610a55611942565b5b906000526020600020906008020160060160009054906101000a900460ff166002811115610a8757610a866113ba565b5b14610ac7576040517f08c379a0000000000000000000000000000000000000000000000000000000008152600401610abe90611a44565b60405180910390fd5b600260009054906101000a900473ffffffffffffffffffffffffffffffffffffffff1673ffffffffffffffffffffffffffffffffffffffff1663163f7522336040518263ffffffff1660e01b8152600401610b22919061153e565b602060405180830381865afa158015610b3f573d6000803e3d6000fd5b505050506040513d601f19601f82011682018060405250810190610b639190611a9c565b610ba2576040517f08c379a0000000000000000000000000000000000000000000000000000000008152600401610b9990611b15565b60405180910390fd5b60046000828152602001908152602001600020339080600181540180825580915050600190039060005260206000200160009091909190916101000a81548173ffffffffffffffffffffffffffffffffffffffff021916908373ffffffffffffffffffffffffffffffffffffffff1602179055503373ffffffffffffffffffffffffffffffffffffffff16817f7af8dab8f5b5481df3e0d9f1ac4bf4af4a4e76f28dba128d6e12201b992bebbe60405160405180910390a3610c62611172565b50565b610c6d61112c565b600260009054906101000a900473ffffffffffffffffffffffffffffffffffffffff1673ffffffffffffffffffffffffffffffffffffffff1663163f7522336040518263ffffffff1660e01b8152600401610cc8919061153e565b602060405180830381865afa158015610ce5573d6000803e3d6000fd5b505050506040513d601f19601f82011682018060405250810190610d099190611a9c565b610d48576040517f08c379a0000000000000000000000000000000000000000000000000000000008152600401610d3f90611b15565b60405180910390fd5b6000600380549050905060036040518061010001604052803373ffffffffffffffffffffffffffffffffffffffff16815260200188815260200187815260200186815260200185815260200184815260200160006002811115610dae57610dad6113ba565b5b815260200142815250908060018154018082558091505060019003906000526020600020906008020160009091909190915060008201518160000160006101000a81548173ffffffffffffffffffffffffffffffffffffffff021916908373ffffffffffffffffffffffffffffffffffffffff1602179055506020820151816001019081610e3c9190611cd7565b506040820151816002019081610e529190611cd7565b50606082015181600301556080820151816004015560a0820151816005019081610e7c9190611cd7565b5060c08201518160060160006101000a81548160ff02191690836002811115610ea857610ea76113ba565b5b021790555060e0820151816007015550503373ffffffffffffffffffffffffffffffffffffffff16817fa1614c481428bb94175e0a6935486d35e5bbd86c664a34ddaabc98a48465fb8c60405160405180910390a350610f06611172565b5050505050565b60046020528160005260406000208181548110610f2957600080fd5b906000526020600020016000915091509054906101000a900473ffffffffffffffffffffffffffffffffffffffff1681565b610f63610fe1565b600073ffffffffffffffffffffffffffffffffffffffff168173ffffffffffffffffffffffffffffffffffffffff1603610fd55760006040517f1e4fbdf7000000000000000000000000000000000000000000000000000000008152600401610fcc919061153e565b60405180910390fd5b610fde81611068565b50565b610fe961117b565b73ffffffffffffffffffffffffffffffffffffffff16611007610826565b73ffffffffffffffffffffffffffffffffffffffff16146110665761102a61117b565b6040517f118cdaa700000000000000000000000000000000000000000000000000000000815260040161105d919061153e565b60405180910390fd5b565b60008060009054906101000a900473ffffffffffffffffffffffffffffffffffffffff169050816000806101000a81548173ffffffffffffffffffffffffffffffffffffffff021916908373ffffffffffffffffffffffffffffffffffffffff1602179055508173ffffffffffffffffffffffffffffffffffffffff168173ffffffffffffffffffffffffffffffffffffffff167f8be0079c531659141344cd1fd0a4f28419497f9722a3daafe3b4186f6b6457e060405160405180910390a35050565b600260015403611168576040517f3ee5aeb500000000000000000000000000000000000000000000000000000000815260040160405180910390fd5b6002600181905550565b60018081905550565b600033905090565b6000604051905090565b600080fd5b600080fd5b6000819050919050565b6111aa81611197565b81146111b557600080fd5b50565b6000813590506111c7816111a1565b92915050565b6000602082840312156111e3576111e261118d565b5b60006111f1848285016111b8565b91505092915050565b600081519050919050565b600082825260208201905092915050565b6000819050602082019050919050565b600073ffffffffffffffffffffffffffffffffffffffff82169050919050565b600061125182611226565b9050919050565b61126181611246565b82525050565b60006112738383611258565b60208301905092915050565b6000602082019050919050565b6000611297826111fa565b6112a18185611205565b93506112ac83611216565b8060005b838110156112dd5781516112c48882611267565b97506112cf8361127f565b9250506001810190506112b0565b5085935050505092915050565b60006020820190508181036000830152611304818461128c565b905092915050565b61131581611246565b82525050565b600081519050919050565b600082825260208201905092915050565b60005b8381101561135557808201518184015260208101905061133a565b60008484015250505050565b6000601f19601f8301169050919050565b600061137d8261131b565b6113878185611326565b9350611397818560208601611337565b6113a081611361565b840191505092915050565b6113b481611197565b82525050565b7f4e487b7100000000000000000000000000000000000000000000000000000000600052602160045260246000fd5b600381106113fa576113f96113ba565b5b50565b600081905061140b826113e9565b919050565b600061141b826113fd565b9050919050565b61142b81611410565b82525050565b600061010082019050611447600083018b61130c565b8181036020830152611459818a611372565b9050818103604083015261146d8189611372565b905061147c60608301886113ab565b61148960808301876113ab565b81810360a083015261149b8186611372565b90506114aa60c0830185611422565b6114b760e08301846113ab565b9998505050505050505050565b6000819050919050565b60006114e96114e46114df84611226565b6114c4565b611226565b9050919050565b60006114fb826114ce565b9050919050565b600061150d826114f0565b9050919050565b61151d81611502565b82525050565b60006020820190506115386000830184611514565b92915050565b6000602082019050611553600083018461130c565b92915050565b600060208201905061156e60008301846113ab565b92915050565b6003811061158157600080fd5b50565b60008135905061159381611574565b92915050565b600080604083850312156115b0576115af61118d565b5b60006115be858286016111b8565b92505060206115cf85828601611584565b9150509250929050565b600080fd5b600080fd5b7f4e487b7100000000000000000000000000000000000000000000000000000000600052604160045260246000fd5b61161b82611361565b810181811067ffffffffffffffff8211171561163a576116396115e3565b5b80604052505050565b600061164d611183565b90506116598282611612565b919050565b600067ffffffffffffffff821115611679576116786115e3565b5b61168282611361565b9050602081019050919050565b82818337600083830152505050565b60006116b16116ac8461165e565b611643565b9050828152602081018484840111156116cd576116cc6115de565b5b6116d884828561168f565b509392505050565b600082601f8301126116f5576116f46115d9565b5b813561170584826020860161169e565b91505092915050565b600080600080600060a0868803121561172a5761172961118d565b5b600086013567ffffffffffffffff81111561174857611747611192565b5b611754888289016116e0565b955050602086013567ffffffffffffffff81111561177557611774611192565b5b611781888289016116e0565b9450506040611792888289016111b8565b93505060606117a3888289016111b8565b925050608086013567ffffffffffffffff8111156117c4576117c3611192565b5b6117d0888289016116e0565b9150509295509295909350565b600080604083850312156117f4576117f361118d565b5b6000611802858286016111b8565b9250506020611813858286016111b8565b9150509250929050565b61182681611246565b811461183157600080fd5b50565b6000813590506118438161181d565b92915050565b60006020828403121561185f5761185e61118d565b5b600061186d84828501611834565b91505092915050565b7f496e76616c6964206a6f62204944000000000000000000000000000000000000600082015250565b60006118ac600e83611326565b91506118b782611876565b602082019050919050565b600060208201905081810360008301526118db8161189f565b9050919050565b7f4e487b7100000000000000000000000000000000000000000000000000000000600052602260045260246000fd5b6000600282049050600182168061192957607f821691505b60208210810361193c5761193b6118e2565b5b50919050565b7f4e487b7100000000000000000000000000000000000000000000000000000000600052603260045260246000fd5b7f4e6f7420746865206a6f62206f776e6572000000000000000000000000000000600082015250565b60006119a7601183611326565b91506119b282611971565b602082019050919050565b600060208201905081810360008301526119d68161199a565b9050919050565b60006020820190506119f26000830184611422565b92915050565b7f4a6f62206e6f74206f70656e0000000000000000000000000000000000000000600082015250565b6000611a2e600c83611326565b9150611a39826119f8565b602082019050919050565b60006020820190508181036000830152611a5d81611a21565b9050919050565b60008115159050919050565b611a7981611a64565b8114611a8457600080fd5b50565b600081519050611a9681611a70565b92915050565b600060208284031215611ab257611ab161118d565b5b6000611ac084828501611a87565b91505092915050565b7f55736572206e6f74207265676973746572656400000000000000000000000000600082015250565b6000611aff601383611326565b9150611b0a82611ac9565b602082019050919050565b60006020820190508181036000830152611b2e81611af2565b9050919050565b60008190508160005260206000209050919050565b60006020601f8301049050919050565b600082821b905092915050565b600060088302611b977fffffffffffffffffffffffffffffffffffffffffffffffffffffffffffffffff82611b5a565b611ba18683611b5a565b95508019841693508086168417925050509392505050565b6000611bd4611bcf611bca84611197565b6114c4565b611197565b9050919050565b6000819050919050565b611bee83611bb9565b611c02611bfa82611bdb565b848454611b67565b825550505050565b600090565b611c17611c0a565b611c22818484611be5565b505050565b5b81811015611c4657611c3b600082611c0f565b600181019050611c28565b5050565b601f821115611c8b57611c5c81611b35565b611c6584611b4a565b81016020851015611c74578190505b611c88611c8085611b4a565b830182611c27565b50505b505050565b600082821c905092915050565b6000611cae60001984600802611c90565b1980831691505092915050565b6000611cc78383611c9d565b9150826002028217905092915050565b611ce08261131b565b67ffffffffffffffff811115611cf957611cf86115e3565b5b611d038254611911565b611d0e828285611c4a565b600060209050601f831160018114611d415760008415611d2f578287015190505b611d398582611cbb565b865550611da1565b601f198416611d4f86611b35565b60005b82811015611d7757848901518255600182019150602085019450602081019050611d52565b86831015611d945784890151611d90601f891682611c9d565b8355505b6001600288020188555050505b50505050505056fea2646970667358221220f1abe752abb385b7f6603c16b808bebda8e8216d039e7eac2ebf110c0811346564736f6c634300081b0033",
  "linkReferences": {},
  "deployedLinkReferences": {}
}