{
  "_format": "hh-sol-artifact-1",
  "contractName": "UserRegistry",
  "sourceName": "contracts/UserRegistry.sol",
  "abi": [
    {
      "inputs": [],
      "stateMutability": "nonpayable",
      "type": "constructor"
    },
    {
      "inputs": [],
      "name": "EnforcedPause",
      "type": "error"
    },
    {
      "inputs": [],
      "name": "ExpectedPause",
      "type": "error"
    },
    {
      "inputs": [
        {
          "internalType": "address",
          "name": "owner",
          "type": "address"
        }
      ],
      "name": "OwnableInvalidOwner",
      "type": "error"
    },
    {
      "inputs": [
        {
          "internalType": "address",
          "name": "account",
          "type": "address"
        }
      ],
      "name": "OwnableUnauthorizedAccount",
      "type": "error"
    },
    {
      "anonymous": false,
      "inputs": [
        {
          "indexed": true,
          "internalType": "address",
          "name": "previousOwner",
          "type": "address"
        },
        {
          "indexed": true,
          "internalType": "address",
          "name": "newOwner",
          "type": "address"
        }
      ],
      "name": "OwnershipTransferred",
      "type": "event"
    },
    {
      "anonymous": false,
      "inputs": [
        {
          "indexed": false,
          "internalType": "address",
          "name": "account",
          "type": "address"
        }
      ],
      "name": "Paused",
      "type": "event"
    },
    {
      "anonymous": false,
      "inputs": [
        {
          "indexed": false,
          "internalType": "address",
          "name": "account",
          "type": "address"
        }
      ],
      "name": "Unpaused",
      "type": "event"
    },
    {
      "anonymous": false,
      "inputs": [
        {
          "indexed": true,
          "internalType": "address",
          "name": "user",
          "type": "address"
        },
        {
          "indexed": false,
          "internalType": "string",
          "name": "name",
          "type": "string"
        },
        {
          "indexed": false,
          "internalType": "string",
          "name": "surname",
          "type": "string"
        },
        {
          "indexed": false,
          "internalType": "string",
          "name": "country",
          "type": "string"
        },
        {
          "indexed": false,
          "internalType": "string",
          "name": "city",
          "type": "string"
        },
        {
          "indexed": false,
          "internalType": "string",
          "name": "nationality",
          "type": "string"
        },
        {
          "indexed": false,
          "internalType": "uint256",
          "name": "birthdate",
          "type": "uint256"
        },
        {
          "indexed": false,
          "internalType": "string",
          "name": "email",
          "type": "string"
        },
        {
          "indexed": false,
          "internalType": "string",
          "name": "phone",
          "type": "string"
        },
        {
          "indexed": false,
          "internalType": "string",
          "name": "description",
          "type": "string"
        },
        {
          "indexed": false,
          "internalType": "address",
          "name": "walletAddress",
          "type": "address"
        }
      ],
      "name": "UserProfileCreated",
      "type": "event"
    },
    {
      "anonymous": false,
      "inputs": [
        {
          "indexed": true,
          "internalType": "address",
          "name": "user",
          "type": "address"
        },
        {
          "indexed": false,
          "internalType": "string",
          "name": "name",
          "type": "string"
        },
        {
          "indexed": false,
          "internalType": "string",
          "name": "surname",
          "type": "string"
        },
        {
          "indexed": false,
          "internalType": "string",
          "name": "country",
          "type": "string"
        },
        {
          "indexed": false,
          "internalType": "string",
          "name": "city",
          "type": "string"
        },
        {
          "indexed": false,
          "internalType": "string",
          "name": "nationality",
          "type": "string"
        },
        {
          "indexed": false,
          "internalType": "uint256",
          "name": "birthdate",
          "type": "uint256"
        },
        {
          "indexed": false,
          "internalType": "string",
          "name": "email",
          "type": "string"
        },
        {
          "indexed": false,
          "internalType": "string",
          "name": "phone",
          "type": "string"
        },
        {
          "indexed": false,
          "internalType": "string",
          "name": "description",
          "type": "string"
        },
        {
          "indexed": false,
          "internalType": "address",
          "name": "walletAddress",
          "type": "address"
        }
      ],
      "name": "UserProfileUpdated",
      "type": "event"
    },
    {
      "inputs": [],
      "name": "getAllUsers",
      "outputs": [
        {
          "internalType": "address[]",
          "name": "",
          "type": "address[]"
        }
      ],
      "stateMutability": "view",
      "type": "function"
    },
    {
      "inputs": [
        {
          "internalType": "address",
          "name": "_user",
          "type": "address"
        }
      ],
      "name": "getUserProfile",
      "outputs": [
        {
          "internalType": "string",
          "name": "name",
          "type": "string"
        },
        {
          "internalType": "string",
          "name": "surname",
          "type": "string"
        },
        {
          "internalType": "string",
          "name": "country",
          "type": "string"
        },
        {
          "internalType": "string",
          "name": "city",
          "type": "string"
        },
        {
          "internalType": "string",
          "name": "nationality",
          "type": "string"
        },
        {
          "internalType": "uint256",
          "name": "birthdate",
          "type": "uint256"
        },
        {
          "internalType": "string",
          "name": "email",
          "type": "string"
        },
        {
          "internalType": "string",
          "name": "phone",
          "type": "string"
        },
        {
          "internalType": "string",
          "name": "description",
          "type": "string"
        },
        {
          "internalType": "address",
          "name": "walletAddress",
          "type": "address"
        }
      ],
      "stateMutability": "view",
      "type": "function"
    },
    {
      "inputs": [],
      "name": "owner",
      "outputs": [
        {
          "internalType": "address",
          "name": "",
          "type": "address"
        }
      ],
      "stateMutability": "view",
      "type": "function"
    },
    {
      "inputs": [],
      "name": "pause",
      "outputs": [],
      "stateMutability": "nonpayable",
      "type": "function"
    },
    {
      "inputs": [],
      "name": "paused",
      "outputs": [
        {
          "internalType": "bool",
          "name": "",
          "type": "bool"
        }
      ],
      "stateMutability": "view",
      "type": "function"
    },
    {
      "inputs": [
        {
          "internalType": "string",
          "name": "_name",
          "type": "string"
        },
        {
          "internalType": "string",
          "name": "_surname",
          "type": "string"
        },
        {
          "internalType": "string",
          "name": "_country",
          "type": "string"
        },
        {
          "internalType": "string",
          "name": "_city",
          "type": "string"
        },
        {
          "internalType": "string",
          "name": "_nationality",
          "type": "string"
        },
        {
          "internalType": "uint256",
          "name": "_birthdate",
          "type": "uint256"
        },
        {
          "internalType": "string",
          "name": "_email",
          "type": "string"
        },
        {
          "internalType": "string",
          "name": "_phone",
          "type": "string"
        },
        {
          "internalType": "string",
          "name": "_description",
          "type": "string"
        },
        {
          "internalType": "address",
          "name": "_walletAddress",
          "type": "address"
        }
      ],
      "name": "registerUser",
      "outputs": [],
      "stateMutability": "nonpayable",
      "type": "function"
    },
    {
      "inputs": [
        {
          "internalType": "uint256",
          "name": "",
          "type": "uint256"
        }
      ],
      "name": "registeredUsers",
      "outputs": [
        {
          "internalType": "address",
          "name": "",
          "type": "address"
        }
      ],
      "stateMutability": "view",
      "type": "function"
    },
    {
      "inputs": [],
      "name": "renounceOwnership",
      "outputs": [],
      "stateMutability": "nonpayable",
      "type": "function"
    },
    {
      "inputs": [
        {
          "internalType": "address",
          "name": "newOwner",
          "type": "address"
        }
      ],
      "name": "transferOwnership",
      "outputs": [],
      "stateMutability": "nonpayable",
      "type": "function"
    },
    {
      "inputs": [],
      "name": "unpause",
      "outputs": [],
      "stateMutability": "nonpayable",
      "type": "function"
    },
    {
      "inputs": [
        {
          "internalType": "string",
          "name": "_name",
          "type": "string"
        },
        {
          "internalType": "string",
          "name": "_surname",
          "type": "string"
        },
        {
          "internalType": "string",
          "name": "_country",
          "type": "string"
        },
        {
          "internalType": "string",
          "name": "_city",
          "type": "string"
        },
        {
          "internalType": "string",
          "name": "_nationality",
          "type": "string"
        },
        {
          "internalType": "uint256",
          "name": "_birthdate",
          "type": "uint256"
        },
        {
          "internalType": "string",
          "name": "_email",
          "type": "string"
        },
        {
          "internalType": "string",
          "name": "_phone",
          "type": "string"
        },
        {
          "internalType": "string",
          "name": "_description",
          "type": "string"
        },
        {
          "internalType": "address",
          "name": "_walletAddress",
          "type": "address"
        }
      ],
      "name": "updateUserProfile",
      "outputs": [],
      "stateMutability": "nonpayable",
      "type": "function"
    },
    {
      "inputs": [
        {
          "internalType": "address",
          "name": "",
          "type": "address"
        }
      ],
      "name": "userProfiles",
      "outputs": [
        {
          "internalType": "string",
          "name": "name",
          "type": "string"
        },
        {
          "internalType": "string",
          "name": "surname",
          "type": "string"
        },
        {
          "internalType": "string",
          "name": "country",
          "type": "string"
        },
        {
          "internalType": "string",
          "name": "city",
          "type": "string"
        },
        {
          "internalType": "string",
          "name": "nationality",
          "type": "string"
        },
        {
          "internalType": "uint256",
          "name": "birthdate",
          "type": "uint256"
        },
        {
          "internalType": "string",
          "name": "email",
          "type": "string"
        },
        {
          "internalType": "string",
          "name": "phone",
          "type": "string"
        },
        {
          "internalType": "string",
          "name": "description",
          "type": "string"
        },
        {
          "internalType": "address",
          "name": "walletAddress",
          "type": "address"
        },
        {
          "internalType": "bool",
          "name": "isRegistered",
          "type": "bool"
        }
      ],
      "stateMutability": "view",
      "type": "function"
    }
  ],
  "bytecode": "0x608060405234801561001057600080fd5b5033600073ffffffffffffffffffffffffffffffffffffffff168173ffffffffffffffffffffffffffffffffffffffff16036100845760006040517f1e4fbdf700000000000000000000000000000000000000000000000000000000815260040161007b91906101b8565b60405180910390fd5b610093816100b360201b60201c565b5060008060146101000a81548160ff0219169083151502179055506101d3565b60008060009054906101000a900473ffffffffffffffffffffffffffffffffffffffff169050816000806101000a81548173ffffffffffffffffffffffffffffffffffffffff021916908373ffffffffffffffffffffffffffffffffffffffff1602179055508173ffffffffffffffffffffffffffffffffffffffff168173ffffffffffffffffffffffffffffffffffffffff167f8be0079c531659141344cd1fd0a4f28419497f9722a3daafe3b4186f6b6457e060405160405180910390a35050565b600073ffffffffffffffffffffffffffffffffffffffff82169050919050565b60006101a282610177565b9050919050565b6101b281610197565b82525050565b60006020820190506101cd60008301846101a9565b92915050565b6122a6806101e26000396000f3fe608060405234801561001057600080fd5b50600436106100b45760003560e01c80638456cb59116100715780638456cb59146101715780638da5cb5b1461017b578063987ee15614610199578063a7db3f6e146101d2578063e2842d79146101ee578063f2fde38b1461020c576100b4565b8063332d56d7146100b95780633f4ba83a146100f357806356f4137f146100fd5780635c975abb14610119578063715018a6146101375780637259e0f814610141575b600080fd5b6100d360048036038101906100ce9190611734565b610228565b6040516100ea9b9a99989796959493929190611834565b60405180910390f35b6100fb6106ef565b005b61011760048036038101906101129190611a78565b610701565b005b6101216109cf565b60405161012e9190611c37565b60405180910390f35b61013f6109e5565b005b61015b60048036038101906101569190611c52565b6109f9565b6040516101689190611c7f565b60405180910390f35b610179610a38565b005b610183610a4a565b6040516101909190611c7f565b60405180910390f35b6101b360048036038101906101ae9190611734565b610a73565b6040516101c99a99989796959493929190611c9a565b60405180910390f35b6101ec60048036038101906101e79190611a78565b610fe3565b005b6101f6611315565b6040516102039190611e2c565b60405180910390f35b61022660048036038101906102219190611734565b6113a3565b005b600160205280600052604060002060009150905080600001805461024b90611e7d565b80601f016020809104026020016040519081016040528092919081815260200182805461027790611e7d565b80156102c45780601f10610299576101008083540402835291602001916102c4565b820191906000526020600020905b8154815290600101906020018083116102a757829003601f168201915b5050505050908060010180546102d990611e7d565b80601f016020809104026020016040519081016040528092919081815260200182805461030590611e7d565b80156103525780601f1061032757610100808354040283529160200191610352565b820191906000526020600020905b81548152906001019060200180831161033557829003601f168201915b50505050509080600201805461036790611e7d565b80601f016020809104026020016040519081016040528092919081815260200182805461039390611e7d565b80156103e05780601f106103b5576101008083540402835291602001916103e0565b820191906000526020600020905b8154815290600101906020018083116103c357829003601f168201915b5050505050908060030180546103f590611e7d565b80601f016020809104026020016040519081016040528092919081815260200182805461042190611e7d565b801561046e5780601f106104435761010080835404028352916020019161046e565b820191906000526020600020905b81548152906001019060200180831161045157829003601f168201915b50505050509080600401805461048390611e7d565b80601f01602080910402602001604051908101604052809291908181526020018280546104af90611e7d565b80156104fc5780601f106104d1576101008083540402835291602001916104fc565b820191906000526020600020905b8154815290600101906020018083116104df57829003601f168201915b50505050509080600501549080600601805461051790611e7d565b80601f016020809104026020016040519081016040528092919081815260200182805461054390611e7d565b80156105905780601f1061056557610100808354040283529160200191610590565b820191906000526020600020905b81548152906001019060200180831161057357829003601f168201915b5050505050908060070180546105a590611e7d565b80601f01602080910402602001604051908101604052809291908181526020018280546105d190611e7d565b801561061e5780601f106105f35761010080835404028352916020019161061e565b820191906000526020600020905b81548152906001019060200180831161060157829003601f168201915b50505050509080600801805461063390611e7d565b80601f016020809104026020016040519081016040528092919081815260200182805461065f90611e7d565b80156106ac5780601f10610681576101008083540402835291602001916106ac565b820191906000526020600020905b81548152906001019060200180831161068f57829003601f168201915b5050505050908060090160009054906101000a900473ffffffffffffffffffffffffffffffffffffffff16908060090160149054906101000a900460ff1690508b565b6106f7611429565b6106ff6114b0565b565b610709611512565b600160003373ffffffffffffffffffffffffffffffffffffffff1673ffffffffffffffffffffffffffffffffffffffff16815260200190815260200160002060090160149054906101000a900460ff16610798576040517f08c379a000000000000000000000000000000000000000000000000000000000815260040161078f90611efa565b60405180910390fd5b6040518061016001604052808b81526020018a81526020018981526020018881526020018781526020018681526020018581526020018481526020018381526020018273ffffffffffffffffffffffffffffffffffffffff16815260200160011515815250600160003373ffffffffffffffffffffffffffffffffffffffff1673ffffffffffffffffffffffffffffffffffffffff168152602001908152602001600020600082015181600001908161085191906120c6565b50602082015181600101908161086791906120c6565b50604082015181600201908161087d91906120c6565b50606082015181600301908161089391906120c6565b5060808201518160040190816108a991906120c6565b5060a0820151816005015560c08201518160060190816108c991906120c6565b5060e08201518160070190816108df91906120c6565b506101008201518160080190816108f691906120c6565b506101208201518160090160006101000a81548173ffffffffffffffffffffffffffffffffffffffff021916908373ffffffffffffffffffffffffffffffffffffffff1602179055506101408201518160090160146101000a81548160ff0219169083151502179055509050503373ffffffffffffffffffffffffffffffffffffffff167f1f94958c458323399d4c387f4cb7276951e5603fd630b2703c30a6fd3422d67b8b8b8b8b8b8b8b8b8b8b6040516109bb9a99989796959493929190611c9a565b60405180910390a250505050505050505050565b60008060149054906101000a900460ff16905090565b6109ed611429565b6109f76000611553565b565b60028181548110610a0957600080fd5b906000526020600020016000915054906101000a900473ffffffffffffffffffffffffffffffffffffffff1681565b610a40611429565b610a48611617565b565b60008060009054906101000a900473ffffffffffffffffffffffffffffffffffffffff16905090565b606080606080606060006060806060600080600160008d73ffffffffffffffffffffffffffffffffffffffff1673ffffffffffffffffffffffffffffffffffffffff16815260200190815260200160002090508060090160149054906101000a900460ff16610b17576040517f08c379a0000000000000000000000000000000000000000000000000000000008152600401610b0e906121e4565b60405180910390fd5b806000018160010182600201836003018460040185600501548660060187600701886008018960090160009054906101000a900473ffffffffffffffffffffffffffffffffffffffff16898054610b6d90611e7d565b80601f0160208091040260200160405190810160405280929190818152602001828054610b9990611e7d565b8015610be65780601f10610bbb57610100808354040283529160200191610be6565b820191906000526020600020905b815481529060010190602001808311610bc957829003601f168201915b50505050509950888054610bf990611e7d565b80601f0160208091040260200160405190810160405280929190818152602001828054610c2590611e7d565b8015610c725780601f10610c4757610100808354040283529160200191610c72565b820191906000526020600020905b815481529060010190602001808311610c5557829003601f168201915b50505050509850878054610c8590611e7d565b80601f0160208091040260200160405190810160405280929190818152602001828054610cb190611e7d565b8015610cfe5780601f10610cd357610100808354040283529160200191610cfe565b820191906000526020600020905b815481529060010190602001808311610ce157829003601f168201915b50505050509750868054610d1190611e7d565b80601f0160208091040260200160405190810160405280929190818152602001828054610d3d90611e7d565b8015610d8a5780601f10610d5f57610100808354040283529160200191610d8a565b820191906000526020600020905b815481529060010190602001808311610d6d57829003601f168201915b50505050509650858054610d9d90611e7d565b80601f0160208091040260200160405190810160405280929190818152602001828054610dc990611e7d565b8015610e165780601f10610deb57610100808354040283529160200191610e16565b820191906000526020600020905b815481529060010190602001808311610df957829003601f168201915b50505050509550838054610e2990611e7d565b80601f0160208091040260200160405190810160405280929190818152602001828054610e5590611e7d565b8015610ea25780601f10610e7757610100808354040283529160200191610ea2565b820191906000526020600020905b815481529060010190602001808311610e8557829003601f168201915b50505050509350828054610eb590611e7d565b80601f0160208091040260200160405190810160405280929190818152602001828054610ee190611e7d565b8015610f2e5780601f10610f0357610100808354040283529160200191610f2e565b820191906000526020600020905b815481529060010190602001808311610f1157829003601f168201915b50505050509250818054610f4190611e7d565b80601f0160208091040260200160405190810160405280929190818152602001828054610f6d90611e7d565b8015610fba5780601f10610f8f57610100808354040283529160200191610fba565b820191906000526020600020905b815481529060010190602001808311610f9d57829003601f168201915b505050505091509a509a509a509a509a509a509a509a509a509a50509193959799509193959799565b610feb611512565b600160003373ffffffffffffffffffffffffffffffffffffffff1673ffffffffffffffffffffffffffffffffffffffff16815260200190815260200160002060090160149054906101000a900460ff161561107b576040517f08c379a000000000000000000000000000000000000000000000000000000000815260040161107290612250565b60405180910390fd5b6040518061016001604052808b81526020018a81526020018981526020018881526020018781526020018681526020018581526020018481526020018381526020018273ffffffffffffffffffffffffffffffffffffffff16815260200160011515815250600160003373ffffffffffffffffffffffffffffffffffffffff1673ffffffffffffffffffffffffffffffffffffffff168152602001908152602001600020600082015181600001908161113491906120c6565b50602082015181600101908161114a91906120c6565b50604082015181600201908161116091906120c6565b50606082015181600301908161117691906120c6565b50608082015181600401908161118c91906120c6565b5060a0820151816005015560c08201518160060190816111ac91906120c6565b5060e08201518160070190816111c291906120c6565b506101008201518160080190816111d991906120c6565b506101208201518160090160006101000a81548173ffffffffffffffffffffffffffffffffffffffff021916908373ffffffffffffffffffffffffffffffffffffffff1602179055506101408201518160090160146101000a81548160ff0219169083151502179055509050506002339080600181540180825580915050600190039060005260206000200160009091909190916101000a81548173ffffffffffffffffffffffffffffffffffffffff021916908373ffffffffffffffffffffffffffffffffffffffff1602179055503373ffffffffffffffffffffffffffffffffffffffff167faf646fabf395e6e43855a5c38f3e58c9abd97c446af737ac8ec1993797d502af8b8b8b8b8b8b8b8b8b8b6040516113019a99989796959493929190611c9a565b60405180910390a250505050505050505050565b6060600280548060200260200160405190810160405280929190818152602001828054801561139957602002820191906000526020600020905b8160009054906101000a900473ffffffffffffffffffffffffffffffffffffffff1673ffffffffffffffffffffffffffffffffffffffff168152602001906001019080831161134f575b5050505050905090565b6113ab611429565b600073ffffffffffffffffffffffffffffffffffffffff168173ffffffffffffffffffffffffffffffffffffffff160361141d5760006040517f1e4fbdf70000000000000000000000000000000000000000000000000000000081526004016114149190611c7f565b60405180910390fd5b61142681611553565b50565b61143161167a565b73ffffffffffffffffffffffffffffffffffffffff1661144f610a4a565b73ffffffffffffffffffffffffffffffffffffffff16146114ae5761147261167a565b6040517f118cdaa70000000000000000000000000000000000000000000000000000000081526004016114a59190611c7f565b60405180910390fd5b565b6114b8611682565b60008060146101000a81548160ff0219169083151502179055507f5db9ee0a495bf2e6ff9c91a7834c1ba4fdd244a5e8aa4e537bd38aeae4b073aa6114fb61167a565b6040516115089190611c7f565b60405180910390a1565b61151a6109cf565b15611551576040517fd93c066500000000000000000000000000000000000000000000000000000000815260040160405180910390fd5b565b60008060009054906101000a900473ffffffffffffffffffffffffffffffffffffffff169050816000806101000a81548173ffffffffffffffffffffffffffffffffffffffff021916908373ffffffffffffffffffffffffffffffffffffffff1602179055508173ffffffffffffffffffffffffffffffffffffffff168173ffffffffffffffffffffffffffffffffffffffff167f8be0079c531659141344cd1fd0a4f28419497f9722a3daafe3b4186f6b6457e060405160405180910390a35050565b61161f611512565b6001600060146101000a81548160ff0219169083151502179055507f62e78cea01bee320cd4e420270b5ea74000d11b0c9f74754ebdbfc544b05a25861166361167a565b6040516116709190611c7f565b60405180910390a1565b600033905090565b61168a6109cf565b6116c0576040517f8dfc202b00000000000000000000000000000000000000000000000000000000815260040160405180910390fd5b565b6000604051905090565b600080fd5b600080fd5b600073ffffffffffffffffffffffffffffffffffffffff82169050919050565b6000611701826116d6565b9050919050565b611711816116f6565b811461171c57600080fd5b50565b60008135905061172e81611708565b92915050565b60006020828403121561174a576117496116cc565b5b60006117588482850161171f565b91505092915050565b600081519050919050565b600082825260208201905092915050565b60005b8381101561179b578082015181840152602081019050611780565b60008484015250505050565b6000601f19601f8301169050919050565b60006117c382611761565b6117cd818561176c565b93506117dd81856020860161177d565b6117e6816117a7565b840191505092915050565b6000819050919050565b611804816117f1565b82525050565b611813816116f6565b82525050565b60008115159050919050565b61182e81611819565b82525050565b600061016082019050818103600083015261184f818e6117b8565b90508181036020830152611863818d6117b8565b90508181036040830152611877818c6117b8565b9050818103606083015261188b818b6117b8565b9050818103608083015261189f818a6117b8565b90506118ae60a08301896117fb565b81810360c08301526118c081886117b8565b905081810360e08301526118d481876117b8565b90508181036101008301526118e981866117b8565b90506118f961012083018561180a565b611907610140830184611825565b9c9b505050505050505050505050565b600080fd5b600080fd5b7f4e487b7100000000000000000000000000000000000000000000000000000000600052604160045260246000fd5b611959826117a7565b810181811067ffffffffffffffff8211171561197857611977611921565b5b80604052505050565b600061198b6116c2565b90506119978282611950565b919050565b600067ffffffffffffffff8211156119b7576119b6611921565b5b6119c0826117a7565b9050602081019050919050565b82818337600083830152505050565b60006119ef6119ea8461199c565b611981565b905082815260208101848484011115611a0b57611a0a61191c565b5b611a168482856119cd565b509392505050565b600082601f830112611a3357611a32611917565b5b8135611a438482602086016119dc565b91505092915050565b611a55816117f1565b8114611a6057600080fd5b50565b600081359050611a7281611a4c565b92915050565b6000806000806000806000806000806101408b8d031215611a9c57611a9b6116cc565b5b60008b013567ffffffffffffffff811115611aba57611ab96116d1565b5b611ac68d828e01611a1e565b9a505060208b013567ffffffffffffffff811115611ae757611ae66116d1565b5b611af38d828e01611a1e565b99505060408b013567ffffffffffffffff811115611b1457611b136116d1565b5b611b208d828e01611a1e565b98505060608b013567ffffffffffffffff811115611b4157611b406116d1565b5b611b4d8d828e01611a1e565b97505060808b013567ffffffffffffffff811115611b6e57611b6d6116d1565b5b611b7a8d828e01611a1e565b96505060a0611b8b8d828e01611a63565b95505060c08b013567ffffffffffffffff811115611bac57611bab6116d1565b5b611bb88d828e01611a1e565b94505060e08b013567ffffffffffffffff811115611bd957611bd86116d1565b5b611be58d828e01611a1e565b9350506101008b013567ffffffffffffffff811115611c0757611c066116d1565b5b611c138d828e01611a1e565b925050610120611c258d828e0161171f565b9150509295989b9194979a5092959850565b6000602082019050611c4c6000830184611825565b92915050565b600060208284031215611c6857611c676116cc565b5b6000611c7684828501611a63565b91505092915050565b6000602082019050611c94600083018461180a565b92915050565b6000610140820190508181036000830152611cb5818d6117b8565b90508181036020830152611cc9818c6117b8565b90508181036040830152611cdd818b6117b8565b90508181036060830152611cf1818a6117b8565b90508181036080830152611d0581896117b8565b9050611d1460a08301886117fb565b81810360c0830152611d2681876117b8565b905081810360e0830152611d3a81866117b8565b9050818103610100830152611d4f81856117b8565b9050611d5f61012083018461180a565b9b9a5050505050505050505050565b600081519050919050565b600082825260208201905092915050565b6000819050602082019050919050565b611da3816116f6565b82525050565b6000611db58383611d9a565b60208301905092915050565b6000602082019050919050565b6000611dd982611d6e565b611de38185611d79565b9350611dee83611d8a565b8060005b83811015611e1f578151611e068882611da9565b9750611e1183611dc1565b925050600181019050611df2565b5085935050505092915050565b60006020820190508181036000830152611e468184611dce565b905092915050565b7f4e487b7100000000000000000000000000000000000000000000000000000000600052602260045260246000fd5b60006002820490506001821680611e9557607f821691505b602082108103611ea857611ea7611e4e565b5b50919050565b7f55736572206973206e6f74207265676973746572656400000000000000000000600082015250565b6000611ee460168361176c565b9150611eef82611eae565b602082019050919050565b60006020820190508181036000830152611f1381611ed7565b9050919050565b60008190508160005260206000209050919050565b60006020601f8301049050919050565b600082821b905092915050565b600060088302611f7c7fffffffffffffffffffffffffffffffffffffffffffffffffffffffffffffffff82611f3f565b611f868683611f3f565b95508019841693508086168417925050509392505050565b6000819050919050565b6000611fc3611fbe611fb9846117f1565b611f9e565b6117f1565b9050919050565b6000819050919050565b611fdd83611fa8565b611ff1611fe982611fca565b848454611f4c565b825550505050565b600090565b612006611ff9565b612011818484611fd4565b505050565b5b818110156120355761202a600082611ffe565b600181019050612017565b5050565b601f82111561207a5761204b81611f1a565b61205484611f2f565b81016020851015612063578190505b61207761206f85611f2f565b830182612016565b50505b505050565b600082821c905092915050565b600061209d6000198460080261207f565b1980831691505092915050565b60006120b6838361208c565b9150826002028217905092915050565b6120cf82611761565b67ffffffffffffffff8111156120e8576120e7611921565b5b6120f28254611e7d565b6120fd828285612039565b600060209050601f831160018114612130576000841561211e578287015190505b61212885826120aa565b865550612190565b601f19841661213e86611f1a565b60005b8281101561216657848901518255600182019150602085019450602081019050612141565b86831015612183578489015161217f601f89168261208c565b8355505b6001600288020188555050505b505050505050565b7f55736572206e6f74207265676973746572656400000000000000000000000000600082015250565b60006121ce60138361176c565b91506121d982612198565b602082019050919050565b600060208201905081810360008301526121fd816121c1565b9050919050565b7f5573657220616c72656164792072656769737465726564000000000000000000600082015250565b600061223a60178361176c565b915061224582612204565b602082019050919050565b600060208201905081810360008301526122698161222d565b905091905056fea2646970667358221220e8823c3632b80e6027dc74e9c683b414d0e42a4439c8f2a0b8f7f724f204be7964736f6c634300081b0033",
  "linkReferences": {},
  "deployedLinkReferences": {}
}